{
	"DAO_smartcontract.sol": {
		"demo": {
			"abi": [
				{
					"inputs": [
						{
							"internalType": "uint256",
							"name": "_contributionTimeEnd",
							"type": "uint256"
						},
						{
							"internalType": "uint256",
							"name": "_voteTime",
							"type": "uint256"
						},
						{
							"internalType": "uint256",
							"name": "_quorum",
							"type": "uint256"
						}
					],
					"stateMutability": "nonpayable",
					"type": "constructor"
				},
				{
					"inputs": [],
					"name": "ProposalList",
					"outputs": [
						{
							"components": [
								{
									"internalType": "uint256",
									"name": "id",
									"type": "uint256"
								},
								{
									"internalType": "string",
									"name": "description",
									"type": "string"
								},
								{
									"internalType": "uint256",
									"name": "amount",
									"type": "uint256"
								},
								{
									"internalType": "address payable",
									"name": "receipent",
									"type": "address"
								},
								{
									"internalType": "uint256",
									"name": "votes",
									"type": "uint256"
								},
								{
									"internalType": "uint256",
									"name": "end",
									"type": "uint256"
								},
								{
									"internalType": "bool",
									"name": "isExecuted",
									"type": "bool"
								}
							],
							"internalType": "struct demo.Proposal[]",
							"name": "",
							"type": "tuple[]"
						}
					],
					"stateMutability": "view",
					"type": "function"
				},
				{
					"inputs": [
						{
							"internalType": "uint256",
							"name": "amount",
							"type": "uint256"
						},
						{
							"internalType": "address payable",
							"name": "receipient",
							"type": "address"
						}
					],
					"name": "_transfer",
					"outputs": [],
					"stateMutability": "nonpayable",
					"type": "function"
				},
				{
					"inputs": [],
					"name": "availableFunds",
					"outputs": [
						{
							"internalType": "uint256",
							"name": "",
							"type": "uint256"
						}
					],
					"stateMutability": "view",
					"type": "function"
				},
				{
					"inputs": [],
					"name": "contribution",
					"outputs": [],
					"stateMutability": "payable",
					"type": "function"
				},
				{
					"inputs": [],
					"name": "contributionTimeEnd",
					"outputs": [
						{
							"internalType": "uint256",
							"name": "",
							"type": "uint256"
						}
					],
					"stateMutability": "view",
					"type": "function"
				},
				{
					"inputs": [
						{
							"internalType": "string",
							"name": "description",
							"type": "string"
						},
						{
							"internalType": "uint256",
							"name": "amount",
							"type": "uint256"
						},
						{
							"internalType": "address payable",
							"name": "receipient",
							"type": "address"
						}
					],
					"name": "createProposal",
					"outputs": [],
					"stateMutability": "nonpayable",
					"type": "function"
				},
				{
					"inputs": [
						{
							"internalType": "uint256",
							"name": "proposalId",
							"type": "uint256"
						}
					],
					"name": "executeProposal",
					"outputs": [],
					"stateMutability": "nonpayable",
					"type": "function"
				},
				{
					"inputs": [
						{
							"internalType": "uint256",
							"name": "",
							"type": "uint256"
						}
					],
					"name": "investorList",
					"outputs": [
						{
							"internalType": "address",
							"name": "",
							"type": "address"
						}
					],
					"stateMutability": "view",
					"type": "function"
				},
				{
					"inputs": [
						{
							"internalType": "address",
							"name": "",
							"type": "address"
						},
						{
							"internalType": "uint256",
							"name": "",
							"type": "uint256"
						}
					],
					"name": "isVoted",
					"outputs": [
						{
							"internalType": "bool",
							"name": "",
							"type": "bool"
						}
					],
					"stateMutability": "view",
					"type": "function"
				},
				{
					"inputs": [],
					"name": "manager",
					"outputs": [
						{
							"internalType": "address",
							"name": "",
							"type": "address"
						}
					],
					"stateMutability": "view",
					"type": "function"
				},
				{
					"inputs": [],
					"name": "nextProposalId",
					"outputs": [
						{
							"internalType": "uint256",
							"name": "",
							"type": "uint256"
						}
					],
					"stateMutability": "view",
					"type": "function"
				},
				{
					"inputs": [
						{
							"internalType": "address",
							"name": "",
							"type": "address"
						}
					],
					"name": "numOfshares",
					"outputs": [
						{
							"internalType": "uint256",
							"name": "",
							"type": "uint256"
						}
					],
					"stateMutability": "view",
					"type": "function"
				},
				{
					"inputs": [
						{
							"internalType": "uint256",
							"name": "",
							"type": "uint256"
						}
					],
					"name": "proposals",
					"outputs": [
						{
							"internalType": "uint256",
							"name": "id",
							"type": "uint256"
						},
						{
							"internalType": "string",
							"name": "description",
							"type": "string"
						},
						{
							"internalType": "uint256",
							"name": "amount",
							"type": "uint256"
						},
						{
							"internalType": "address payable",
							"name": "receipent",
							"type": "address"
						},
						{
							"internalType": "uint256",
							"name": "votes",
							"type": "uint256"
						},
						{
							"internalType": "uint256",
							"name": "end",
							"type": "uint256"
						},
						{
							"internalType": "bool",
							"name": "isExecuted",
							"type": "bool"
						}
					],
					"stateMutability": "view",
					"type": "function"
				},
				{
					"inputs": [],
					"name": "quorum",
					"outputs": [
						{
							"internalType": "uint256",
							"name": "",
							"type": "uint256"
						}
					],
					"stateMutability": "view",
					"type": "function"
				},
				{
					"inputs": [
						{
							"internalType": "uint256",
							"name": "amount",
							"type": "uint256"
						}
					],
					"name": "redeemShare",
					"outputs": [],
					"stateMutability": "nonpayable",
					"type": "function"
				},
				{
					"inputs": [],
					"name": "totalShares",
					"outputs": [
						{
							"internalType": "uint256",
							"name": "",
							"type": "uint256"
						}
					],
					"stateMutability": "view",
					"type": "function"
				},
				{
					"inputs": [
						{
							"internalType": "uint256",
							"name": "amount",
							"type": "uint256"
						},
						{
							"internalType": "address",
							"name": "to",
							"type": "address"
						}
					],
					"name": "transferShare",
					"outputs": [],
					"stateMutability": "nonpayable",
					"type": "function"
				},
				{
					"inputs": [
						{
							"internalType": "uint256",
							"name": "proposalId",
							"type": "uint256"
						}
					],
					"name": "voteProposal",
					"outputs": [],
					"stateMutability": "nonpayable",
					"type": "function"
				},
				{
					"inputs": [],
					"name": "voteTime",
					"outputs": [
						{
							"internalType": "uint256",
							"name": "",
							"type": "uint256"
						}
					],
					"stateMutability": "view",
					"type": "function"
				},
				{
					"inputs": [
						{
							"internalType": "address",
							"name": "",
							"type": "address"
						},
						{
							"internalType": "address",
							"name": "",
							"type": "address"
						}
					],
					"name": "withdrawalStatus",
					"outputs": [
						{
							"internalType": "bool",
							"name": "",
							"type": "bool"
						}
					],
					"stateMutability": "view",
					"type": "function"
				}
			],
			"devdoc": {
				"kind": "dev",
				"methods": {},
				"version": 1
			},
			"evm": {
				"assembly": "    /* \"DAO_smartcontract.sol\":68:4296  contract demo{... */\n  mstore(0x40, 0x80)\n    /* \"DAO_smartcontract.sol\":820:1126  constructor(uint _contributionTimeEnd,uint _voteTime,uint _quorum)... */\n  callvalue\n  dup1\n  iszero\n  tag_1\n  jumpi\n  0x00\n  dup1\n  revert\ntag_1:\n  pop\n  mload(0x40)\n  sub(codesize, bytecodeSize)\n  dup1\n  bytecodeSize\n  dup4\n  codecopy\n  dup2\n  dup2\n  add\n  0x40\n  mstore\n  dup2\n  add\n  swap1\n  tag_2\n  swap2\n  swap1\n  tag_3\n  jump\t// in\ntag_2:\n    /* \"DAO_smartcontract.sol\":922:923  0 */\n  0x00\n    /* \"DAO_smartcontract.sol\":914:921  _quorum */\n  dup2\n    /* \"DAO_smartcontract.sol\":914:923  _quorum>0 */\n  gt\n    /* \"DAO_smartcontract.sol\":914:938  _quorum>0 && _quorum<100 */\n  dup1\n  iszero\n  tag_6\n  jumpi\n  pop\n    /* \"DAO_smartcontract.sol\":935:938  100 */\n  0x64\n    /* \"DAO_smartcontract.sol\":927:934  _quorum */\n  dup2\n    /* \"DAO_smartcontract.sol\":927:938  _quorum<100 */\n  lt\n    /* \"DAO_smartcontract.sol\":914:938  _quorum>0 && _quorum<100 */\ntag_6:\n    /* \"DAO_smartcontract.sol\":906:959  require(_quorum>0 && _quorum<100,\"Not valid values\" ) */\n  tag_7\n  jumpi\n  mload(0x40)\n  0x08c379a000000000000000000000000000000000000000000000000000000000\n  dup2\n  mstore\n  0x04\n  add\n  tag_8\n  swap1\n  tag_9\n  jump\t// in\ntag_8:\n  mload(0x40)\n  dup1\n  swap2\n  sub\n  swap1\n  revert\ntag_7:\n    /* \"DAO_smartcontract.sol\":1008:1028  _contributionTimeEnd */\n  dup3\n    /* \"DAO_smartcontract.sol\":992:1007  block.timestamp */\n  timestamp\n    /* \"DAO_smartcontract.sol\":992:1028  block.timestamp+_contributionTimeEnd */\n  tag_10\n  swap2\n  swap1\n  tag_11\n  jump\t// in\ntag_10:\n    /* \"DAO_smartcontract.sol\":972:991  contributionTimeEnd */\n  0x08\n    /* \"DAO_smartcontract.sol\":972:1028  contributionTimeEnd=block.timestamp+_contributionTimeEnd */\n  dup2\n  swap1\n  sstore\n  pop\n    /* \"DAO_smartcontract.sol\":1050:1059  _voteTime */\n  dup2\n    /* \"DAO_smartcontract.sol\":1041:1049  voteTime */\n  0x0a\n    /* \"DAO_smartcontract.sol\":1041:1059  voteTime=_voteTime */\n  dup2\n  swap1\n  sstore\n  pop\n    /* \"DAO_smartcontract.sol\":1079:1086  _quorum */\n  dup1\n    /* \"DAO_smartcontract.sol\":1072:1078  quorum */\n  0x0b\n    /* \"DAO_smartcontract.sol\":1072:1086  quorum=_quorum */\n  dup2\n  swap1\n  sstore\n  pop\n    /* \"DAO_smartcontract.sol\":1107:1117  msg.sender */\n  caller\n    /* \"DAO_smartcontract.sol\":1099:1106  manager */\n  0x0c\n  0x00\n    /* \"DAO_smartcontract.sol\":1099:1117  manager=msg.sender */\n  0x0100\n  exp\n  dup2\n  sload\n  dup2\n  0xffffffffffffffffffffffffffffffffffffffff\n  mul\n  not\n  and\n  swap1\n  dup4\n  0xffffffffffffffffffffffffffffffffffffffff\n  and\n  mul\n  or\n  swap1\n  sstore\n  pop\n    /* \"DAO_smartcontract.sol\":820:1126  constructor(uint _contributionTimeEnd,uint _voteTime,uint _quorum)... */\n  pop\n  pop\n  pop\n    /* \"DAO_smartcontract.sol\":68:4296  contract demo{... */\n  jump(tag_12)\n    /* \"#utility.yul\":88:205   */\ntag_14:\n    /* \"#utility.yul\":197:198   */\n  0x00\n    /* \"#utility.yul\":194:195   */\n  dup1\n    /* \"#utility.yul\":187:199   */\n  revert\n    /* \"#utility.yul\":334:411   */\ntag_16:\n    /* \"#utility.yul\":371:378   */\n  0x00\n    /* \"#utility.yul\":400:405   */\n  dup2\n    /* \"#utility.yul\":389:405   */\n  swap1\n  pop\n    /* \"#utility.yul\":334:411   */\n  swap2\n  swap1\n  pop\n  jump\t// out\n    /* \"#utility.yul\":417:539   */\ntag_17:\n    /* \"#utility.yul\":490:514   */\n  tag_29\n    /* \"#utility.yul\":508:513   */\n  dup2\n    /* \"#utility.yul\":490:514   */\n  tag_16\n  jump\t// in\ntag_29:\n    /* \"#utility.yul\":483:488   */\n  dup2\n    /* \"#utility.yul\":480:515   */\n  eq\n    /* \"#utility.yul\":470:533   */\n  tag_30\n  jumpi\n    /* \"#utility.yul\":529:530   */\n  0x00\n    /* \"#utility.yul\":526:527   */\n  dup1\n    /* \"#utility.yul\":519:531   */\n  revert\n    /* \"#utility.yul\":470:533   */\ntag_30:\n    /* \"#utility.yul\":417:539   */\n  pop\n  jump\t// out\n    /* \"#utility.yul\":545:688   */\ntag_18:\n    /* \"#utility.yul\":602:607   */\n  0x00\n    /* \"#utility.yul\":633:639   */\n  dup2\n    /* \"#utility.yul\":627:640   */\n  mload\n    /* \"#utility.yul\":618:640   */\n  swap1\n  pop\n    /* \"#utility.yul\":649:682   */\n  tag_32\n    /* \"#utility.yul\":676:681   */\n  dup2\n    /* \"#utility.yul\":649:682   */\n  tag_17\n  jump\t// in\ntag_32:\n    /* \"#utility.yul\":545:688   */\n  swap3\n  swap2\n  pop\n  pop\n  jump\t// out\n    /* \"#utility.yul\":694:1357   */\ntag_3:\n    /* \"#utility.yul\":782:788   */\n  0x00\n    /* \"#utility.yul\":790:796   */\n  dup1\n    /* \"#utility.yul\":798:804   */\n  0x00\n    /* \"#utility.yul\":847:849   */\n  0x60\n    /* \"#utility.yul\":835:844   */\n  dup5\n    /* \"#utility.yul\":826:833   */\n  dup7\n    /* \"#utility.yul\":822:845   */\n  sub\n    /* \"#utility.yul\":818:850   */\n  slt\n    /* \"#utility.yul\":815:934   */\n  iszero\n  tag_34\n  jumpi\n    /* \"#utility.yul\":853:932   */\n  tag_35\n  tag_14\n  jump\t// in\ntag_35:\n    /* \"#utility.yul\":815:934   */\ntag_34:\n    /* \"#utility.yul\":973:974   */\n  0x00\n    /* \"#utility.yul\":998:1062   */\n  tag_36\n    /* \"#utility.yul\":1054:1061   */\n  dup7\n    /* \"#utility.yul\":1045:1051   */\n  dup3\n    /* \"#utility.yul\":1034:1043   */\n  dup8\n    /* \"#utility.yul\":1030:1052   */\n  add\n    /* \"#utility.yul\":998:1062   */\n  tag_18\n  jump\t// in\ntag_36:\n    /* \"#utility.yul\":988:1062   */\n  swap4\n  pop\n    /* \"#utility.yul\":944:1072   */\n  pop\n    /* \"#utility.yul\":1111:1113   */\n  0x20\n    /* \"#utility.yul\":1137:1201   */\n  tag_37\n    /* \"#utility.yul\":1193:1200   */\n  dup7\n    /* \"#utility.yul\":1184:1190   */\n  dup3\n    /* \"#utility.yul\":1173:1182   */\n  dup8\n    /* \"#utility.yul\":1169:1191   */\n  add\n    /* \"#utility.yul\":1137:1201   */\n  tag_18\n  jump\t// in\ntag_37:\n    /* \"#utility.yul\":1127:1201   */\n  swap3\n  pop\n    /* \"#utility.yul\":1082:1211   */\n  pop\n    /* \"#utility.yul\":1250:1252   */\n  0x40\n    /* \"#utility.yul\":1276:1340   */\n  tag_38\n    /* \"#utility.yul\":1332:1339   */\n  dup7\n    /* \"#utility.yul\":1323:1329   */\n  dup3\n    /* \"#utility.yul\":1312:1321   */\n  dup8\n    /* \"#utility.yul\":1308:1330   */\n  add\n    /* \"#utility.yul\":1276:1340   */\n  tag_18\n  jump\t// in\ntag_38:\n    /* \"#utility.yul\":1266:1340   */\n  swap2\n  pop\n    /* \"#utility.yul\":1221:1350   */\n  pop\n    /* \"#utility.yul\":694:1357   */\n  swap3\n  pop\n  swap3\n  pop\n  swap3\n  jump\t// out\n    /* \"#utility.yul\":1363:1532   */\ntag_19:\n    /* \"#utility.yul\":1447:1458   */\n  0x00\n    /* \"#utility.yul\":1481:1487   */\n  dup3\n    /* \"#utility.yul\":1476:1479   */\n  dup3\n    /* \"#utility.yul\":1469:1488   */\n  mstore\n    /* \"#utility.yul\":1521:1525   */\n  0x20\n    /* \"#utility.yul\":1516:1519   */\n  dup3\n    /* \"#utility.yul\":1512:1526   */\n  add\n    /* \"#utility.yul\":1497:1526   */\n  swap1\n  pop\n    /* \"#utility.yul\":1363:1532   */\n  swap3\n  swap2\n  pop\n  pop\n  jump\t// out\n    /* \"#utility.yul\":1538:1704   */\ntag_20:\n    /* \"#utility.yul\":1678:1696   */\n  0x4e6f742076616c69642076616c75657300000000000000000000000000000000\n    /* \"#utility.yul\":1674:1675   */\n  0x00\n    /* \"#utility.yul\":1666:1672   */\n  dup3\n    /* \"#utility.yul\":1662:1676   */\n  add\n    /* \"#utility.yul\":1655:1697   */\n  mstore\n    /* \"#utility.yul\":1538:1704   */\n  pop\n  jump\t// out\n    /* \"#utility.yul\":1710:2076   */\ntag_21:\n    /* \"#utility.yul\":1852:1855   */\n  0x00\n    /* \"#utility.yul\":1873:1940   */\n  tag_42\n    /* \"#utility.yul\":1937:1939   */\n  0x10\n    /* \"#utility.yul\":1932:1935   */\n  dup4\n    /* \"#utility.yul\":1873:1940   */\n  tag_19\n  jump\t// in\ntag_42:\n    /* \"#utility.yul\":1866:1940   */\n  swap2\n  pop\n    /* \"#utility.yul\":1949:2042   */\n  tag_43\n    /* \"#utility.yul\":2038:2041   */\n  dup3\n    /* \"#utility.yul\":1949:2042   */\n  tag_20\n  jump\t// in\ntag_43:\n    /* \"#utility.yul\":2067:2069   */\n  0x20\n    /* \"#utility.yul\":2062:2065   */\n  dup3\n    /* \"#utility.yul\":2058:2070   */\n  add\n    /* \"#utility.yul\":2051:2070   */\n  swap1\n  pop\n    /* \"#utility.yul\":1710:2076   */\n  swap2\n  swap1\n  pop\n  jump\t// out\n    /* \"#utility.yul\":2082:2501   */\ntag_9:\n    /* \"#utility.yul\":2248:2252   */\n  0x00\n    /* \"#utility.yul\":2286:2288   */\n  0x20\n    /* \"#utility.yul\":2275:2284   */\n  dup3\n    /* \"#utility.yul\":2271:2289   */\n  add\n    /* \"#utility.yul\":2263:2289   */\n  swap1\n  pop\n    /* \"#utility.yul\":2335:2344   */\n  dup2\n    /* \"#utility.yul\":2329:2333   */\n  dup2\n    /* \"#utility.yul\":2325:2345   */\n  sub\n    /* \"#utility.yul\":2321:2322   */\n  0x00\n    /* \"#utility.yul\":2310:2319   */\n  dup4\n    /* \"#utility.yul\":2306:2323   */\n  add\n    /* \"#utility.yul\":2299:2346   */\n  mstore\n    /* \"#utility.yul\":2363:2494   */\n  tag_45\n    /* \"#utility.yul\":2489:2493   */\n  dup2\n    /* \"#utility.yul\":2363:2494   */\n  tag_21\n  jump\t// in\ntag_45:\n    /* \"#utility.yul\":2355:2494   */\n  swap1\n  pop\n    /* \"#utility.yul\":2082:2501   */\n  swap2\n  swap1\n  pop\n  jump\t// out\n    /* \"#utility.yul\":2507:2687   */\ntag_22:\n    /* \"#utility.yul\":2555:2632   */\n  0x4e487b7100000000000000000000000000000000000000000000000000000000\n    /* \"#utility.yul\":2552:2553   */\n  0x00\n    /* \"#utility.yul\":2545:2633   */\n  mstore\n    /* \"#utility.yul\":2652:2656   */\n  0x11\n    /* \"#utility.yul\":2649:2650   */\n  0x04\n    /* \"#utility.yul\":2642:2657   */\n  mstore\n    /* \"#utility.yul\":2676:2680   */\n  0x24\n    /* \"#utility.yul\":2673:2674   */\n  0x00\n    /* \"#utility.yul\":2666:2681   */\n  revert\n    /* \"#utility.yul\":2693:2884   */\ntag_11:\n    /* \"#utility.yul\":2733:2736   */\n  0x00\n    /* \"#utility.yul\":2752:2772   */\n  tag_48\n    /* \"#utility.yul\":2770:2771   */\n  dup3\n    /* \"#utility.yul\":2752:2772   */\n  tag_16\n  jump\t// in\ntag_48:\n    /* \"#utility.yul\":2747:2772   */\n  swap2\n  pop\n    /* \"#utility.yul\":2786:2806   */\n  tag_49\n    /* \"#utility.yul\":2804:2805   */\n  dup4\n    /* \"#utility.yul\":2786:2806   */\n  tag_16\n  jump\t// in\ntag_49:\n    /* \"#utility.yul\":2781:2806   */\n  swap3\n  pop\n    /* \"#utility.yul\":2829:2830   */\n  dup3\n    /* \"#utility.yul\":2826:2827   */\n  dup3\n    /* \"#utility.yul\":2822:2831   */\n  add\n    /* \"#utility.yul\":2815:2831   */\n  swap1\n  pop\n    /* \"#utility.yul\":2850:2853   */\n  dup1\n    /* \"#utility.yul\":2847:2848   */\n  dup3\n    /* \"#utility.yul\":2844:2854   */\n  gt\n    /* \"#utility.yul\":2841:2877   */\n  iszero\n  tag_50\n  jumpi\n    /* \"#utility.yul\":2857:2875   */\n  tag_51\n  tag_22\n  jump\t// in\ntag_51:\n    /* \"#utility.yul\":2841:2877   */\ntag_50:\n    /* \"#utility.yul\":2693:2884   */\n  swap3\n  swap2\n  pop\n  pop\n  jump\t// out\n    /* \"DAO_smartcontract.sol\":68:4296  contract demo{... */\ntag_12:\n  dataSize(sub_0)\n  dup1\n  dataOffset(sub_0)\n  0x00\n  codecopy\n  0x00\n  return\nstop\n\nsub_0: assembly {\n        /* \"DAO_smartcontract.sol\":68:4296  contract demo{... */\n      mstore(0x40, 0x80)\n      jumpi(tag_1, lt(calldatasize, 0x04))\n      shr(0xe0, calldataload(0x00))\n      dup1\n      0x50520b1f\n      gt\n      tag_22\n      jumpi\n      dup1\n      0x868643df\n      gt\n      tag_23\n      jumpi\n      dup1\n      0x868643df\n      eq\n      tag_17\n      jumpi\n      dup1\n      0x8ee36f05\n      eq\n      tag_18\n      jumpi\n      dup1\n      0xafc8275b\n      eq\n      tag_19\n      jumpi\n      dup1\n      0xbcf93dd6\n      eq\n      tag_20\n      jumpi\n      dup1\n      0xe65da429\n      eq\n      tag_21\n      jumpi\n      jump(tag_1)\n    tag_23:\n      dup1\n      0x50520b1f\n      eq\n      tag_12\n      jumpi\n      dup1\n      0x6ac1e01f\n      eq\n      tag_13\n      jumpi\n      dup1\n      0x6dfc1099\n      eq\n      tag_14\n      jumpi\n      dup1\n      0x807896d5\n      eq\n      tag_15\n      jumpi\n      dup1\n      0x83f9f20e\n      eq\n      tag_16\n      jumpi\n      jump(tag_1)\n    tag_22:\n      dup1\n      0x1942c3ce\n      gt\n      tag_24\n      jumpi\n      dup1\n      0x1942c3ce\n      eq\n      tag_7\n      jumpi\n      dup1\n      0x2ab09d14\n      eq\n      tag_8\n      jumpi\n      dup1\n      0x3a98ef39\n      eq\n      tag_9\n      jumpi\n      dup1\n      0x46fcff4c\n      eq\n      tag_10\n      jumpi\n      dup1\n      0x481c6a75\n      eq\n      tag_11\n      jumpi\n      jump(tag_1)\n    tag_24:\n      dup1\n      0x013cf08b\n      eq\n      tag_2\n      jumpi\n      dup1\n      0x039383e6\n      eq\n      tag_3\n      jumpi\n      dup1\n      0x0d61b519\n      eq\n      tag_4\n      jumpi\n      dup1\n      0x12f9b48e\n      eq\n      tag_5\n      jumpi\n      dup1\n      0x1703a018\n      eq\n      tag_6\n      jumpi\n    tag_1:\n      0x00\n      dup1\n      revert\n        /* \"DAO_smartcontract.sol\":547:586  mapping(uint=>Proposal)public proposals */\n    tag_2:\n      callvalue\n      dup1\n      iszero\n      tag_25\n      jumpi\n      0x00\n      dup1\n      revert\n    tag_25:\n      pop\n      tag_26\n      0x04\n      dup1\n      calldatasize\n      sub\n      dup2\n      add\n      swap1\n      tag_27\n      swap2\n      swap1\n      tag_28\n      jump\t// in\n    tag_27:\n      tag_29\n      jump\t// in\n    tag_26:\n      mload(0x40)\n      tag_30\n      swap8\n      swap7\n      swap6\n      swap5\n      swap4\n      swap3\n      swap2\n      swap1\n      tag_31\n      jump\t// in\n    tag_30:\n      mload(0x40)\n      dup1\n      swap2\n      sub\n      swap1\n      return\n        /* \"DAO_smartcontract.sol\":2250:2726  function transferShare(uint amount,address to)public onlyInvestor(){... */\n    tag_3:\n      callvalue\n      dup1\n      iszero\n      tag_32\n      jumpi\n      0x00\n      dup1\n      revert\n    tag_32:\n      pop\n      tag_33\n      0x04\n      dup1\n      calldatasize\n      sub\n      dup2\n      add\n      swap1\n      tag_34\n      swap2\n      swap1\n      tag_35\n      jump\t// in\n    tag_34:\n      tag_36\n      jump\t// in\n    tag_33:\n      stop\n        /* \"DAO_smartcontract.sol\":3540:3897  function executeProposal(uint proposalId)public onlyManager()... */\n    tag_4:\n      callvalue\n      dup1\n      iszero\n      tag_37\n      jumpi\n      0x00\n      dup1\n      revert\n    tag_37:\n      pop\n      tag_38\n      0x04\n      dup1\n      calldatasize\n      sub\n      dup2\n      add\n      swap1\n      tag_39\n      swap2\n      swap1\n      tag_28\n      jump\t// in\n    tag_39:\n      tag_40\n      jump\t// in\n    tag_38:\n      stop\n        /* \"DAO_smartcontract.sol\":511:539  address[]public investorList */\n    tag_5:\n      callvalue\n      dup1\n      iszero\n      tag_41\n      jumpi\n      0x00\n      dup1\n      revert\n    tag_41:\n      pop\n      tag_42\n      0x04\n      dup1\n      calldatasize\n      sub\n      dup2\n      add\n      swap1\n      tag_43\n      swap2\n      swap1\n      tag_28\n      jump\t// in\n    tag_43:\n      tag_44\n      jump\t// in\n    tag_42:\n      mload(0x40)\n      tag_45\n      swap2\n      swap1\n      tag_46\n      jump\t// in\n    tag_45:\n      mload(0x40)\n      dup1\n      swap2\n      sub\n      swap1\n      return\n        /* \"DAO_smartcontract.sol\":762:780  uint public quorum */\n    tag_6:\n      callvalue\n      dup1\n      iszero\n      tag_47\n      jumpi\n      0x00\n      dup1\n      revert\n    tag_47:\n      pop\n      tag_48\n      tag_49\n      jump\t// in\n    tag_48:\n      mload(0x40)\n      tag_50\n      swap2\n      swap1\n      tag_51\n      jump\t// in\n    tag_50:\n      mload(0x40)\n      dup1\n      swap2\n      sub\n      swap1\n      return\n        /* \"DAO_smartcontract.sol\":3906:4019  function _transfer(uint amount, address payable receipient)public{... */\n    tag_7:\n      callvalue\n      dup1\n      iszero\n      tag_52\n      jumpi\n      0x00\n      dup1\n      revert\n    tag_52:\n      pop\n      tag_53\n      0x04\n      dup1\n      calldatasize\n      sub\n      dup2\n      add\n      swap1\n      tag_54\n      swap2\n      swap1\n      tag_55\n      jump\t// in\n    tag_54:\n      tag_56\n      jump\t// in\n    tag_53:\n      stop\n        /* \"DAO_smartcontract.sol\":700:726  uint public nextProposalId */\n    tag_8:\n      callvalue\n      dup1\n      iszero\n      tag_57\n      jumpi\n      0x00\n      dup1\n      revert\n    tag_57:\n      pop\n      tag_58\n      tag_59\n      jump\t// in\n    tag_58:\n      mload(0x40)\n      tag_60\n      swap2\n      swap1\n      tag_51\n      jump\t// in\n    tag_60:\n      mload(0x40)\n      dup1\n      swap2\n      sub\n      swap1\n      return\n        /* \"DAO_smartcontract.sol\":596:619  uint public totalShares */\n    tag_9:\n      callvalue\n      dup1\n      iszero\n      tag_61\n      jumpi\n      0x00\n      dup1\n      revert\n    tag_61:\n      pop\n      tag_62\n      tag_63\n      jump\t// in\n    tag_62:\n      mload(0x40)\n      tag_64\n      swap2\n      swap1\n      tag_51\n      jump\t// in\n    tag_64:\n      mload(0x40)\n      dup1\n      swap2\n      sub\n      swap1\n      return\n        /* \"DAO_smartcontract.sol\":627:653  uint public availableFunds */\n    tag_10:\n      callvalue\n      dup1\n      iszero\n      tag_65\n      jumpi\n      0x00\n      dup1\n      revert\n    tag_65:\n      pop\n      tag_66\n      tag_67\n      jump\t// in\n    tag_66:\n      mload(0x40)\n      tag_68\n      swap2\n      swap1\n      tag_51\n      jump\t// in\n    tag_68:\n      mload(0x40)\n      dup1\n      swap2\n      sub\n      swap1\n      return\n        /* \"DAO_smartcontract.sol\":788:810  address public manager */\n    tag_11:\n      callvalue\n      dup1\n      iszero\n      tag_69\n      jumpi\n      0x00\n      dup1\n      revert\n    tag_69:\n      pop\n      tag_70\n      tag_71\n      jump\t// in\n    tag_70:\n      mload(0x40)\n      tag_72\n      swap2\n      swap1\n      tag_46\n      jump\t// in\n    tag_72:\n      mload(0x40)\n      dup1\n      swap2\n      sub\n      swap1\n      return\n        /* \"DAO_smartcontract.sol\":1390:1797  function contribution()public payable{... */\n    tag_12:\n      tag_73\n      tag_74\n      jump\t// in\n    tag_73:\n      stop\n        /* \"DAO_smartcontract.sol\":2734:3052  function createProposal(string calldata description,uint amount,address payable receipient) public onlyManager{... */\n    tag_13:\n      callvalue\n      dup1\n      iszero\n      tag_75\n      jumpi\n      0x00\n      dup1\n      revert\n    tag_75:\n      pop\n      tag_76\n      0x04\n      dup1\n      calldatasize\n      sub\n      dup2\n      add\n      swap1\n      tag_77\n      swap2\n      swap1\n      tag_78\n      jump\t// in\n    tag_77:\n      tag_79\n      jump\t// in\n    tag_76:\n      stop\n        /* \"DAO_smartcontract.sol\":4028:4293  function ProposalList() public view returns(Proposal[] memory){... */\n    tag_14:\n      callvalue\n      dup1\n      iszero\n      tag_80\n      jumpi\n      0x00\n      dup1\n      revert\n    tag_80:\n      pop\n      tag_81\n      tag_82\n      jump\t// in\n    tag_81:\n      mload(0x40)\n      tag_83\n      swap2\n      swap1\n      tag_84\n      jump\t// in\n    tag_83:\n      mload(0x40)\n      dup1\n      swap2\n      sub\n      swap1\n      return\n        /* \"DAO_smartcontract.sol\":3062:3534  function voteProposal(uint proposalId) public onlyInvestor()... */\n    tag_15:\n      callvalue\n      dup1\n      iszero\n      tag_85\n      jumpi\n      0x00\n      dup1\n      revert\n    tag_85:\n      pop\n      tag_86\n      0x04\n      dup1\n      calldatasize\n      sub\n      dup2\n      add\n      swap1\n      tag_87\n      swap2\n      swap1\n      tag_28\n      jump\t// in\n    tag_87:\n      tag_88\n      jump\t// in\n    tag_86:\n      stop\n        /* \"DAO_smartcontract.sol\":440:503  mapping(address=>mapping(address=>bool))public withdrawalStatus */\n    tag_16:\n      callvalue\n      dup1\n      iszero\n      tag_89\n      jumpi\n      0x00\n      dup1\n      revert\n    tag_89:\n      pop\n      tag_90\n      0x04\n      dup1\n      calldatasize\n      sub\n      dup2\n      add\n      swap1\n      tag_91\n      swap2\n      swap1\n      tag_92\n      jump\t// in\n    tag_91:\n      tag_93\n      jump\t// in\n    tag_90:\n      mload(0x40)\n      tag_94\n      swap2\n      swap1\n      tag_95\n      jump\t// in\n    tag_94:\n      mload(0x40)\n      dup1\n      swap2\n      sub\n      swap1\n      return\n        /* \"DAO_smartcontract.sol\":1806:2241  function redeemShare(uint amount) public onlyInvestor(){... */\n    tag_17:\n      callvalue\n      dup1\n      iszero\n      tag_96\n      jumpi\n      0x00\n      dup1\n      revert\n    tag_96:\n      pop\n      tag_97\n      0x04\n      dup1\n      calldatasize\n      sub\n      dup2\n      add\n      swap1\n      tag_98\n      swap2\n      swap1\n      tag_28\n      jump\t// in\n    tag_98:\n      tag_99\n      jump\t// in\n    tag_97:\n      stop\n        /* \"DAO_smartcontract.sol\":381:432  mapping(address=>mapping(uint=>bool))public isVoted */\n    tag_18:\n      callvalue\n      dup1\n      iszero\n      tag_100\n      jumpi\n      0x00\n      dup1\n      revert\n    tag_100:\n      pop\n      tag_101\n      0x04\n      dup1\n      calldatasize\n      sub\n      dup2\n      add\n      swap1\n      tag_102\n      swap2\n      swap1\n      tag_103\n      jump\t// in\n    tag_102:\n      tag_104\n      jump\t// in\n    tag_101:\n      mload(0x40)\n      tag_105\n      swap2\n      swap1\n      tag_95\n      jump\t// in\n    tag_105:\n      mload(0x40)\n      dup1\n      swap2\n      sub\n      swap1\n      return\n        /* \"DAO_smartcontract.sol\":661:692  uint public contributionTimeEnd */\n    tag_19:\n      callvalue\n      dup1\n      iszero\n      tag_106\n      jumpi\n      0x00\n      dup1\n      revert\n    tag_106:\n      pop\n      tag_107\n      tag_108\n      jump\t// in\n    tag_107:\n      mload(0x40)\n      tag_109\n      swap2\n      swap1\n      tag_51\n      jump\t// in\n    tag_109:\n      mload(0x40)\n      dup1\n      swap2\n      sub\n      swap1\n      return\n        /* \"DAO_smartcontract.sol\":734:754  uint public voteTime */\n    tag_20:\n      callvalue\n      dup1\n      iszero\n      tag_110\n      jumpi\n      0x00\n      dup1\n      revert\n    tag_110:\n      pop\n      tag_111\n      tag_112\n      jump\t// in\n    tag_111:\n      mload(0x40)\n      tag_113\n      swap2\n      swap1\n      tag_51\n      jump\t// in\n    tag_113:\n      mload(0x40)\n      dup1\n      swap2\n      sub\n      swap1\n      return\n        /* \"DAO_smartcontract.sol\":333:373  mapping(address=>uint)public numOfshares */\n    tag_21:\n      callvalue\n      dup1\n      iszero\n      tag_114\n      jumpi\n      0x00\n      dup1\n      revert\n    tag_114:\n      pop\n      tag_115\n      0x04\n      dup1\n      calldatasize\n      sub\n      dup2\n      add\n      swap1\n      tag_116\n      swap2\n      swap1\n      tag_117\n      jump\t// in\n    tag_116:\n      tag_118\n      jump\t// in\n    tag_115:\n      mload(0x40)\n      tag_119\n      swap2\n      swap1\n      tag_51\n      jump\t// in\n    tag_119:\n      mload(0x40)\n      dup1\n      swap2\n      sub\n      swap1\n      return\n        /* \"DAO_smartcontract.sol\":547:586  mapping(uint=>Proposal)public proposals */\n    tag_29:\n      mstore(0x20, 0x05)\n      dup1\n      0x00\n      mstore\n      keccak256(0x00, 0x40)\n      0x00\n      swap2\n      pop\n      swap1\n      pop\n      dup1\n      0x00\n      add\n      sload\n      swap1\n      dup1\n      0x01\n      add\n      dup1\n      sload\n      tag_120\n      swap1\n      tag_121\n      jump\t// in\n    tag_120:\n      dup1\n      0x1f\n      add\n      0x20\n      dup1\n      swap2\n      div\n      mul\n      0x20\n      add\n      mload(0x40)\n      swap1\n      dup2\n      add\n      0x40\n      mstore\n      dup1\n      swap3\n      swap2\n      swap1\n      dup2\n      dup2\n      mstore\n      0x20\n      add\n      dup3\n      dup1\n      sload\n      tag_122\n      swap1\n      tag_121\n      jump\t// in\n    tag_122:\n      dup1\n      iszero\n      tag_123\n      jumpi\n      dup1\n      0x1f\n      lt\n      tag_124\n      jumpi\n      0x0100\n      dup1\n      dup4\n      sload\n      div\n      mul\n      dup4\n      mstore\n      swap2\n      0x20\n      add\n      swap2\n      jump(tag_123)\n    tag_124:\n      dup3\n      add\n      swap2\n      swap1\n      0x00\n      mstore\n      keccak256(0x00, 0x20)\n      swap1\n    tag_125:\n      dup2\n      sload\n      dup2\n      mstore\n      swap1\n      0x01\n      add\n      swap1\n      0x20\n      add\n      dup1\n      dup4\n      gt\n      tag_125\n      jumpi\n      dup3\n      swap1\n      sub\n      0x1f\n      and\n      dup3\n      add\n      swap2\n    tag_123:\n      pop\n      pop\n      pop\n      pop\n      pop\n      swap1\n      dup1\n      0x02\n      add\n      sload\n      swap1\n      dup1\n      0x03\n      add\n      0x00\n      swap1\n      sload\n      swap1\n      0x0100\n      exp\n      swap1\n      div\n      0xffffffffffffffffffffffffffffffffffffffff\n      and\n      swap1\n      dup1\n      0x04\n      add\n      sload\n      swap1\n      dup1\n      0x05\n      add\n      sload\n      swap1\n      dup1\n      0x06\n      add\n      0x00\n      swap1\n      sload\n      swap1\n      0x0100\n      exp\n      swap1\n      div\n      0xff\n      and\n      swap1\n      pop\n      dup8\n      jump\t// out\n        /* \"DAO_smartcontract.sol\":2250:2726  function transferShare(uint amount,address to)public onlyInvestor(){... */\n    tag_36:\n        /* \"DAO_smartcontract.sol\":1207:1211  true */\n      0x01\n        /* \"DAO_smartcontract.sol\":1183:1211  isInvestor[msg.sender]==true */\n      iszero\n      iszero\n        /* \"DAO_smartcontract.sol\":1183:1193  isInvestor */\n      0x00\n        /* \"DAO_smartcontract.sol\":1183:1205  isInvestor[msg.sender] */\n      dup1\n        /* \"DAO_smartcontract.sol\":1194:1204  msg.sender */\n      caller\n        /* \"DAO_smartcontract.sol\":1183:1205  isInvestor[msg.sender] */\n      0xffffffffffffffffffffffffffffffffffffffff\n      and\n      0xffffffffffffffffffffffffffffffffffffffff\n      and\n      dup2\n      mstore\n      0x20\n      add\n      swap1\n      dup2\n      mstore\n      0x20\n      add\n      0x00\n      keccak256\n      0x00\n      swap1\n      sload\n      swap1\n      0x0100\n      exp\n      swap1\n      div\n      0xff\n      and\n        /* \"DAO_smartcontract.sol\":1183:1211  isInvestor[msg.sender]==true */\n      iszero\n      iszero\n      eq\n        /* \"DAO_smartcontract.sol\":1175:1238  require(isInvestor[msg.sender]==true,\"You are not an investor\") */\n      tag_127\n      jumpi\n      mload(0x40)\n      0x08c379a000000000000000000000000000000000000000000000000000000000\n      dup2\n      mstore\n      0x04\n      add\n      tag_128\n      swap1\n      tag_129\n      jump\t// in\n    tag_128:\n      mload(0x40)\n      dup1\n      swap2\n      sub\n      swap1\n      revert\n    tag_127:\n        /* \"DAO_smartcontract.sol\":2353:2359  amount */\n      dup2\n        /* \"DAO_smartcontract.sol\":2337:2351  availableFunds */\n      sload(0x07)\n        /* \"DAO_smartcontract.sol\":2337:2359  availableFunds>=amount */\n      lt\n      iszero\n        /* \"DAO_smartcontract.sol\":2329:2389  require(availableFunds>=amount,\"Not enough funds available\") */\n      tag_131\n      jumpi\n      mload(0x40)\n      0x08c379a000000000000000000000000000000000000000000000000000000000\n      dup2\n      mstore\n      0x04\n      add\n      tag_132\n      swap1\n      tag_133\n      jump\t// in\n    tag_132:\n      mload(0x40)\n      dup1\n      swap2\n      sub\n      swap1\n      revert\n    tag_131:\n        /* \"DAO_smartcontract.sol\":2434:2440  amount */\n      dup2\n        /* \"DAO_smartcontract.sol\":2409:2420  numOfshares */\n      0x01\n        /* \"DAO_smartcontract.sol\":2409:2432  numOfshares[msg.sender] */\n      0x00\n        /* \"DAO_smartcontract.sol\":2421:2431  msg.sender */\n      caller\n        /* \"DAO_smartcontract.sol\":2409:2432  numOfshares[msg.sender] */\n      0xffffffffffffffffffffffffffffffffffffffff\n      and\n      0xffffffffffffffffffffffffffffffffffffffff\n      and\n      dup2\n      mstore\n      0x20\n      add\n      swap1\n      dup2\n      mstore\n      0x20\n      add\n      0x00\n      keccak256\n      sload\n        /* \"DAO_smartcontract.sol\":2409:2440  numOfshares[msg.sender]>=amount */\n      lt\n      iszero\n        /* \"DAO_smartcontract.sol\":2401:2472  require(numOfshares[msg.sender]>=amount,\"You don't have enough shares\") */\n      tag_134\n      jumpi\n      mload(0x40)\n      0x08c379a000000000000000000000000000000000000000000000000000000000\n      dup2\n      mstore\n      0x04\n      add\n      tag_135\n      swap1\n      tag_136\n      jump\t// in\n    tag_135:\n      mload(0x40)\n      dup1\n      swap2\n      sub\n      swap1\n      revert\n    tag_134:\n        /* \"DAO_smartcontract.sol\":2508:2514  amount */\n      dup2\n        /* \"DAO_smartcontract.sol\":2483:2494  numOfshares */\n      0x01\n        /* \"DAO_smartcontract.sol\":2483:2506  numOfshares[msg.sender] */\n      0x00\n        /* \"DAO_smartcontract.sol\":2495:2505  msg.sender */\n      caller\n        /* \"DAO_smartcontract.sol\":2483:2506  numOfshares[msg.sender] */\n      0xffffffffffffffffffffffffffffffffffffffff\n      and\n      0xffffffffffffffffffffffffffffffffffffffff\n      and\n      dup2\n      mstore\n      0x20\n      add\n      swap1\n      dup2\n      mstore\n      0x20\n      add\n      0x00\n      keccak256\n      0x00\n        /* \"DAO_smartcontract.sol\":2483:2514  numOfshares[msg.sender]-=amount */\n      dup3\n      dup3\n      sload\n      tag_137\n      swap2\n      swap1\n      tag_138\n      jump\t// in\n    tag_137:\n      swap3\n      pop\n      pop\n      dup2\n      swap1\n      sstore\n      pop\n        /* \"DAO_smartcontract.sol\":2542:2548  amount */\n      dup2\n        /* \"DAO_smartcontract.sol\":2525:2536  numOfshares */\n      0x01\n        /* \"DAO_smartcontract.sol\":2525:2540  numOfshares[to] */\n      0x00\n        /* \"DAO_smartcontract.sol\":2537:2539  to */\n      dup4\n        /* \"DAO_smartcontract.sol\":2525:2540  numOfshares[to] */\n      0xffffffffffffffffffffffffffffffffffffffff\n      and\n      0xffffffffffffffffffffffffffffffffffffffff\n      and\n      dup2\n      mstore\n      0x20\n      add\n      swap1\n      dup2\n      mstore\n      0x20\n      add\n      0x00\n      keccak256\n      0x00\n        /* \"DAO_smartcontract.sol\":2525:2548  numOfshares[to]+=amount */\n      dup3\n      dup3\n      sload\n      tag_139\n      swap2\n      swap1\n      tag_140\n      jump\t// in\n    tag_139:\n      swap3\n      pop\n      pop\n      dup2\n      swap1\n      sstore\n      pop\n        /* \"DAO_smartcontract.sol\":2587:2588  0 */\n      0x00\n        /* \"DAO_smartcontract.sol\":2562:2573  numOfshares */\n      0x01\n        /* \"DAO_smartcontract.sol\":2562:2585  numOfshares[msg.sender] */\n      0x00\n        /* \"DAO_smartcontract.sol\":2574:2584  msg.sender */\n      caller\n        /* \"DAO_smartcontract.sol\":2562:2585  numOfshares[msg.sender] */\n      0xffffffffffffffffffffffffffffffffffffffff\n      and\n      0xffffffffffffffffffffffffffffffffffffffff\n      and\n      dup2\n      mstore\n      0x20\n      add\n      swap1\n      dup2\n      mstore\n      0x20\n      add\n      0x00\n      keccak256\n      sload\n        /* \"DAO_smartcontract.sol\":2562:2588  numOfshares[msg.sender]==0 */\n      sub\n        /* \"DAO_smartcontract.sol\":2559:2654  if(numOfshares[msg.sender]==0)... */\n      tag_141\n      jumpi\n        /* \"DAO_smartcontract.sol\":2637:2642  false */\n      0x00\n        /* \"DAO_smartcontract.sol\":2614:2624  isInvestor */\n      dup1\n        /* \"DAO_smartcontract.sol\":2614:2636  isInvestor[msg.sender] */\n      0x00\n        /* \"DAO_smartcontract.sol\":2625:2635  msg.sender */\n      caller\n        /* \"DAO_smartcontract.sol\":2614:2636  isInvestor[msg.sender] */\n      0xffffffffffffffffffffffffffffffffffffffff\n      and\n      0xffffffffffffffffffffffffffffffffffffffff\n      and\n      dup2\n      mstore\n      0x20\n      add\n      swap1\n      dup2\n      mstore\n      0x20\n      add\n      0x00\n      keccak256\n      0x00\n        /* \"DAO_smartcontract.sol\":2614:2642  isInvestor[msg.sender]=false */\n      0x0100\n      exp\n      dup2\n      sload\n      dup2\n      0xff\n      mul\n      not\n      and\n      swap1\n      dup4\n      iszero\n      iszero\n      mul\n      or\n      swap1\n      sstore\n      pop\n        /* \"DAO_smartcontract.sol\":2559:2654  if(numOfshares[msg.sender]==0)... */\n    tag_141:\n        /* \"DAO_smartcontract.sol\":2679:2683  true */\n      0x01\n        /* \"DAO_smartcontract.sol\":2664:2674  isInvestor */\n      0x00\n        /* \"DAO_smartcontract.sol\":2664:2678  isInvestor[to] */\n      dup1\n        /* \"DAO_smartcontract.sol\":2675:2677  to */\n      dup4\n        /* \"DAO_smartcontract.sol\":2664:2678  isInvestor[to] */\n      0xffffffffffffffffffffffffffffffffffffffff\n      and\n      0xffffffffffffffffffffffffffffffffffffffff\n      and\n      dup2\n      mstore\n      0x20\n      add\n      swap1\n      dup2\n      mstore\n      0x20\n      add\n      0x00\n      keccak256\n      0x00\n        /* \"DAO_smartcontract.sol\":2664:2683  isInvestor[to]=true */\n      0x0100\n      exp\n      dup2\n      sload\n      dup2\n      0xff\n      mul\n      not\n      and\n      swap1\n      dup4\n      iszero\n      iszero\n      mul\n      or\n      swap1\n      sstore\n      pop\n        /* \"DAO_smartcontract.sol\":2694:2706  investorList */\n      0x04\n        /* \"DAO_smartcontract.sol\":2712:2714  to */\n      dup2\n        /* \"DAO_smartcontract.sol\":2694:2715  investorList.push(to) */\n      swap1\n      dup1\n      0x01\n      dup2\n      sload\n      add\n      dup1\n      dup3\n      sstore\n      dup1\n      swap2\n      pop\n      pop\n      0x01\n      swap1\n      sub\n      swap1\n      0x00\n      mstore\n      keccak256(0x00, 0x20)\n      add\n      0x00\n      swap1\n      swap2\n      swap1\n      swap2\n      swap1\n      swap2\n      0x0100\n      exp\n      dup2\n      sload\n      dup2\n      0xffffffffffffffffffffffffffffffffffffffff\n      mul\n      not\n      and\n      swap1\n      dup4\n      0xffffffffffffffffffffffffffffffffffffffff\n      and\n      mul\n      or\n      swap1\n      sstore\n      pop\n        /* \"DAO_smartcontract.sol\":2250:2726  function transferShare(uint amount,address to)public onlyInvestor(){... */\n      pop\n      pop\n      jump\t// out\n        /* \"DAO_smartcontract.sol\":3540:3897  function executeProposal(uint proposalId)public onlyManager()... */\n    tag_40:\n        /* \"DAO_smartcontract.sol\":1326:1336  msg.sender */\n      caller\n        /* \"DAO_smartcontract.sol\":1317:1336  manager==msg.sender */\n      0xffffffffffffffffffffffffffffffffffffffff\n      and\n        /* \"DAO_smartcontract.sol\":1317:1324  manager */\n      0x0c\n      0x00\n      swap1\n      sload\n      swap1\n      0x0100\n      exp\n      swap1\n      div\n      0xffffffffffffffffffffffffffffffffffffffff\n      and\n        /* \"DAO_smartcontract.sol\":1317:1336  manager==msg.sender */\n      0xffffffffffffffffffffffffffffffffffffffff\n      and\n      eq\n        /* \"DAO_smartcontract.sol\":1309:1361  require(manager==msg.sender,\"You are not a manager\") */\n      tag_144\n      jumpi\n      mload(0x40)\n      0x08c379a000000000000000000000000000000000000000000000000000000000\n      dup2\n      mstore\n      0x04\n      add\n      tag_145\n      swap1\n      tag_146\n      jump\t// in\n    tag_145:\n      mload(0x40)\n      dup1\n      swap2\n      sub\n      swap1\n      revert\n    tag_144:\n        /* \"DAO_smartcontract.sol\":3618:3643  Proposal storage proposal */\n      0x00\n        /* \"DAO_smartcontract.sol\":3644:3653  proposals */\n      0x05\n        /* \"DAO_smartcontract.sol\":3644:3665  proposals[proposalId] */\n      0x00\n        /* \"DAO_smartcontract.sol\":3654:3664  proposalId */\n      dup4\n        /* \"DAO_smartcontract.sol\":3644:3665  proposals[proposalId] */\n      dup2\n      mstore\n      0x20\n      add\n      swap1\n      dup2\n      mstore\n      0x20\n      add\n      0x00\n      keccak256\n        /* \"DAO_smartcontract.sol\":3618:3665  Proposal storage proposal=proposals[proposalId] */\n      swap1\n      pop\n        /* \"DAO_smartcontract.sol\":3720:3726  quorum */\n      sload(0x0b)\n        /* \"DAO_smartcontract.sol\":3706:3717  totalShares */\n      sload(0x06)\n        /* \"DAO_smartcontract.sol\":3701:3704  100 */\n      0x64\n        /* \"DAO_smartcontract.sol\":3686:3694  proposal */\n      dup4\n        /* \"DAO_smartcontract.sol\":3686:3700  proposal.votes */\n      0x04\n      add\n      sload\n        /* \"DAO_smartcontract.sol\":3686:3704  proposal.votes*100 */\n      tag_148\n      swap2\n      swap1\n      tag_149\n      jump\t// in\n    tag_148:\n        /* \"DAO_smartcontract.sol\":3685:3717  (proposal.votes*100)/totalShares */\n      tag_150\n      swap2\n      swap1\n      tag_151\n      jump\t// in\n    tag_150:\n        /* \"DAO_smartcontract.sol\":3684:3726  ((proposal.votes*100)/totalShares)>=quorum */\n      lt\n      iszero\n        /* \"DAO_smartcontract.sol\":3676:3756  require(((proposal.votes*100)/totalShares)>=quorum ,\"Majority does not support\") */\n      tag_152\n      jumpi\n      mload(0x40)\n      0x08c379a000000000000000000000000000000000000000000000000000000000\n      dup2\n      mstore\n      0x04\n      add\n      tag_153\n      swap1\n      tag_154\n      jump\t// in\n    tag_153:\n      mload(0x40)\n      dup1\n      swap2\n      sub\n      swap1\n      revert\n    tag_152:\n        /* \"DAO_smartcontract.sol\":3787:3791  true */\n      0x01\n        /* \"DAO_smartcontract.sol\":3767:3775  proposal */\n      dup2\n        /* \"DAO_smartcontract.sol\":3767:3786  proposal.isExecuted */\n      0x06\n      add\n      0x00\n        /* \"DAO_smartcontract.sol\":3767:3791  proposal.isExecuted=true */\n      0x0100\n      exp\n      dup2\n      sload\n      dup2\n      0xff\n      mul\n      not\n      and\n      swap1\n      dup4\n      iszero\n      iszero\n      mul\n      or\n      swap1\n      sstore\n      pop\n        /* \"DAO_smartcontract.sol\":3818:3826  proposal */\n      dup1\n        /* \"DAO_smartcontract.sol\":3818:3833  proposal.amount */\n      0x02\n      add\n      sload\n        /* \"DAO_smartcontract.sol\":3802:3816  availableFunds */\n      0x07\n      0x00\n        /* \"DAO_smartcontract.sol\":3802:3833  availableFunds-=proposal.amount */\n      dup3\n      dup3\n      sload\n      tag_155\n      swap2\n      swap1\n      tag_138\n      jump\t// in\n    tag_155:\n      swap3\n      pop\n      pop\n      dup2\n      swap1\n      sstore\n      pop\n        /* \"DAO_smartcontract.sol\":3844:3889  _transfer(proposal.amount,proposal.receipent) */\n      tag_156\n        /* \"DAO_smartcontract.sol\":3854:3862  proposal */\n      dup2\n        /* \"DAO_smartcontract.sol\":3854:3869  proposal.amount */\n      0x02\n      add\n      sload\n        /* \"DAO_smartcontract.sol\":3870:3878  proposal */\n      dup3\n        /* \"DAO_smartcontract.sol\":3870:3888  proposal.receipent */\n      0x03\n      add\n      0x00\n      swap1\n      sload\n      swap1\n      0x0100\n      exp\n      swap1\n      div\n      0xffffffffffffffffffffffffffffffffffffffff\n      and\n        /* \"DAO_smartcontract.sol\":3844:3853  _transfer */\n      tag_56\n        /* \"DAO_smartcontract.sol\":3844:3889  _transfer(proposal.amount,proposal.receipent) */\n      jump\t// in\n    tag_156:\n        /* \"DAO_smartcontract.sol\":3607:3897  {... */\n      pop\n        /* \"DAO_smartcontract.sol\":3540:3897  function executeProposal(uint proposalId)public onlyManager()... */\n      pop\n      jump\t// out\n        /* \"DAO_smartcontract.sol\":511:539  address[]public investorList */\n    tag_44:\n      0x04\n      dup2\n      dup2\n      sload\n      dup2\n      lt\n      tag_157\n      jumpi\n      0x00\n      dup1\n      revert\n    tag_157:\n      swap1\n      0x00\n      mstore\n      keccak256(0x00, 0x20)\n      add\n      0x00\n      swap2\n      pop\n      sload\n      swap1\n      0x0100\n      exp\n      swap1\n      div\n      0xffffffffffffffffffffffffffffffffffffffff\n      and\n      dup2\n      jump\t// out\n        /* \"DAO_smartcontract.sol\":762:780  uint public quorum */\n    tag_49:\n      sload(0x0b)\n      dup2\n      jump\t// out\n        /* \"DAO_smartcontract.sol\":3906:4019  function _transfer(uint amount, address payable receipient)public{... */\n    tag_56:\n        /* \"DAO_smartcontract.sol\":3983:3993  receipient */\n      dup1\n        /* \"DAO_smartcontract.sol\":3983:4002  receipient.transfer */\n      0xffffffffffffffffffffffffffffffffffffffff\n      and\n        /* \"DAO_smartcontract.sol\":3983:4010  receipient.transfer(amount) */\n      0x08fc\n        /* \"DAO_smartcontract.sol\":4003:4009  amount */\n      dup4\n        /* \"DAO_smartcontract.sol\":3983:4010  receipient.transfer(amount) */\n      swap1\n      dup2\n      iszero\n      mul\n      swap1\n      mload(0x40)\n      0x00\n      mload(0x40)\n      dup1\n      dup4\n      sub\n      dup2\n      dup6\n      dup9\n      dup9\n      call\n      swap4\n      pop\n      pop\n      pop\n      pop\n      iszero\n      dup1\n      iszero\n      tag_161\n      jumpi\n      returndatasize\n      0x00\n      dup1\n      returndatacopy\n      revert(0x00, returndatasize)\n    tag_161:\n      pop\n        /* \"DAO_smartcontract.sol\":3906:4019  function _transfer(uint amount, address payable receipient)public{... */\n      pop\n      pop\n      jump\t// out\n        /* \"DAO_smartcontract.sol\":700:726  uint public nextProposalId */\n    tag_59:\n      sload(0x09)\n      dup2\n      jump\t// out\n        /* \"DAO_smartcontract.sol\":596:619  uint public totalShares */\n    tag_63:\n      sload(0x06)\n      dup2\n      jump\t// out\n        /* \"DAO_smartcontract.sol\":627:653  uint public availableFunds */\n    tag_67:\n      sload(0x07)\n      dup2\n      jump\t// out\n        /* \"DAO_smartcontract.sol\":788:810  address public manager */\n    tag_71:\n      0x0c\n      0x00\n      swap1\n      sload\n      swap1\n      0x0100\n      exp\n      swap1\n      div\n      0xffffffffffffffffffffffffffffffffffffffff\n      and\n      dup2\n      jump\t// out\n        /* \"DAO_smartcontract.sol\":1390:1797  function contribution()public payable{... */\n    tag_74:\n        /* \"DAO_smartcontract.sol\":1468:1483  block.timestamp */\n      timestamp\n        /* \"DAO_smartcontract.sol\":1447:1466  contributionTimeEnd */\n      sload(0x08)\n        /* \"DAO_smartcontract.sol\":1447:1483  contributionTimeEnd>=block.timestamp */\n      lt\n      iszero\n        /* \"DAO_smartcontract.sol\":1439:1510  require(contributionTimeEnd>=block.timestamp,\"Contribution time ended\") */\n      tag_163\n      jumpi\n      mload(0x40)\n      0x08c379a000000000000000000000000000000000000000000000000000000000\n      dup2\n      mstore\n      0x04\n      add\n      tag_164\n      swap1\n      tag_165\n      jump\t// in\n    tag_164:\n      mload(0x40)\n      dup1\n      swap2\n      sub\n      swap1\n      revert\n    tag_163:\n        /* \"DAO_smartcontract.sol\":1540:1541  0 */\n      0x00\n        /* \"DAO_smartcontract.sol\":1530:1539  msg.value */\n      callvalue\n        /* \"DAO_smartcontract.sol\":1530:1541  msg.value>0 */\n      gt\n        /* \"DAO_smartcontract.sol\":1522:1568  require(msg.value>0,\"Send more than 0  ether\") */\n      tag_166\n      jumpi\n      mload(0x40)\n      0x08c379a000000000000000000000000000000000000000000000000000000000\n      dup2\n      mstore\n      0x04\n      add\n      tag_167\n      swap1\n      tag_168\n      jump\t// in\n    tag_167:\n      mload(0x40)\n      dup1\n      swap2\n      sub\n      swap1\n      revert\n    tag_166:\n        /* \"DAO_smartcontract.sol\":1603:1607  true */\n      0x01\n        /* \"DAO_smartcontract.sol\":1580:1590  isInvestor */\n      0x00\n        /* \"DAO_smartcontract.sol\":1580:1602  isInvestor[msg.sender] */\n      dup1\n        /* \"DAO_smartcontract.sol\":1591:1601  msg.sender */\n      caller\n        /* \"DAO_smartcontract.sol\":1580:1602  isInvestor[msg.sender] */\n      0xffffffffffffffffffffffffffffffffffffffff\n      and\n      0xffffffffffffffffffffffffffffffffffffffff\n      and\n      dup2\n      mstore\n      0x20\n      add\n      swap1\n      dup2\n      mstore\n      0x20\n      add\n      0x00\n      keccak256\n      0x00\n        /* \"DAO_smartcontract.sol\":1580:1607  isInvestor[msg.sender]=true */\n      0x0100\n      exp\n      dup2\n      sload\n      dup2\n      0xff\n      mul\n      not\n      and\n      swap1\n      dup4\n      iszero\n      iszero\n      mul\n      or\n      swap1\n      sstore\n      pop\n        /* \"DAO_smartcontract.sol\":1667:1676  msg.value */\n      callvalue\n        /* \"DAO_smartcontract.sol\":1643:1654  numOfshares */\n      0x01\n        /* \"DAO_smartcontract.sol\":1643:1666  numOfshares[msg.sender] */\n      0x00\n        /* \"DAO_smartcontract.sol\":1655:1665  msg.sender */\n      caller\n        /* \"DAO_smartcontract.sol\":1643:1666  numOfshares[msg.sender] */\n      0xffffffffffffffffffffffffffffffffffffffff\n      and\n      0xffffffffffffffffffffffffffffffffffffffff\n      and\n      dup2\n      mstore\n      0x20\n      add\n      swap1\n      dup2\n      mstore\n      0x20\n      add\n      0x00\n      keccak256\n      sload\n        /* \"DAO_smartcontract.sol\":1643:1676  numOfshares[msg.sender]+msg.value */\n      tag_169\n      swap2\n      swap1\n      tag_140\n      jump\t// in\n    tag_169:\n        /* \"DAO_smartcontract.sol\":1619:1630  numOfshares */\n      0x01\n        /* \"DAO_smartcontract.sol\":1619:1642  numOfshares[msg.sender] */\n      0x00\n        /* \"DAO_smartcontract.sol\":1631:1641  msg.sender */\n      caller\n        /* \"DAO_smartcontract.sol\":1619:1642  numOfshares[msg.sender] */\n      0xffffffffffffffffffffffffffffffffffffffff\n      and\n      0xffffffffffffffffffffffffffffffffffffffff\n      and\n      dup2\n      mstore\n      0x20\n      add\n      swap1\n      dup2\n      mstore\n      0x20\n      add\n      0x00\n      keccak256\n        /* \"DAO_smartcontract.sol\":1619:1676  numOfshares[msg.sender]=numOfshares[msg.sender]+msg.value */\n      dup2\n      swap1\n      sstore\n      pop\n        /* \"DAO_smartcontract.sol\":1701:1710  msg.value */\n      callvalue\n        /* \"DAO_smartcontract.sol\":1688:1699  totalShares */\n      0x06\n      0x00\n        /* \"DAO_smartcontract.sol\":1688:1710  totalShares+=msg.value */\n      dup3\n      dup3\n      sload\n      tag_170\n      swap2\n      swap1\n      tag_140\n      jump\t// in\n    tag_170:\n      swap3\n      pop\n      pop\n      dup2\n      swap1\n      sstore\n      pop\n        /* \"DAO_smartcontract.sol\":1738:1747  msg.value */\n      callvalue\n        /* \"DAO_smartcontract.sol\":1722:1736  availableFunds */\n      0x07\n      0x00\n        /* \"DAO_smartcontract.sol\":1722:1747  availableFunds+=msg.value */\n      dup3\n      dup3\n      sload\n      tag_171\n      swap2\n      swap1\n      tag_140\n      jump\t// in\n    tag_171:\n      swap3\n      pop\n      pop\n      dup2\n      swap1\n      sstore\n      pop\n        /* \"DAO_smartcontract.sol\":1759:1771  investorList */\n      0x04\n        /* \"DAO_smartcontract.sol\":1777:1787  msg.sender */\n      caller\n        /* \"DAO_smartcontract.sol\":1759:1788  investorList.push(msg.sender) */\n      swap1\n      dup1\n      0x01\n      dup2\n      sload\n      add\n      dup1\n      dup3\n      sstore\n      dup1\n      swap2\n      pop\n      pop\n      0x01\n      swap1\n      sub\n      swap1\n      0x00\n      mstore\n      keccak256(0x00, 0x20)\n      add\n      0x00\n      swap1\n      swap2\n      swap1\n      swap2\n      swap1\n      swap2\n      0x0100\n      exp\n      dup2\n      sload\n      dup2\n      0xffffffffffffffffffffffffffffffffffffffff\n      mul\n      not\n      and\n      swap1\n      dup4\n      0xffffffffffffffffffffffffffffffffffffffff\n      and\n      mul\n      or\n      swap1\n      sstore\n      pop\n        /* \"DAO_smartcontract.sol\":1390:1797  function contribution()public payable{... */\n      jump\t// out\n        /* \"DAO_smartcontract.sol\":2734:3052  function createProposal(string calldata description,uint amount,address payable receipient) public onlyManager{... */\n    tag_79:\n        /* \"DAO_smartcontract.sol\":1326:1336  msg.sender */\n      caller\n        /* \"DAO_smartcontract.sol\":1317:1336  manager==msg.sender */\n      0xffffffffffffffffffffffffffffffffffffffff\n      and\n        /* \"DAO_smartcontract.sol\":1317:1324  manager */\n      0x0c\n      0x00\n      swap1\n      sload\n      swap1\n      0x0100\n      exp\n      swap1\n      div\n      0xffffffffffffffffffffffffffffffffffffffff\n      and\n        /* \"DAO_smartcontract.sol\":1317:1336  manager==msg.sender */\n      0xffffffffffffffffffffffffffffffffffffffff\n      and\n      eq\n        /* \"DAO_smartcontract.sol\":1309:1361  require(manager==msg.sender,\"You are not a manager\") */\n      tag_174\n      jumpi\n      mload(0x40)\n      0x08c379a000000000000000000000000000000000000000000000000000000000\n      dup2\n      mstore\n      0x04\n      add\n      tag_175\n      swap1\n      tag_146\n      jump\t// in\n    tag_175:\n      mload(0x40)\n      dup1\n      swap2\n      sub\n      swap1\n      revert\n    tag_174:\n        /* \"DAO_smartcontract.sol\":2875:2881  amount */\n      dup2\n        /* \"DAO_smartcontract.sol\":2859:2873  availableFunds */\n      sload(0x07)\n        /* \"DAO_smartcontract.sol\":2859:2881  availableFunds>=amount */\n      lt\n      iszero\n        /* \"DAO_smartcontract.sol\":2851:2901  require(availableFunds>=amount,\"Not enough funds\") */\n      tag_177\n      jumpi\n      mload(0x40)\n      0x08c379a000000000000000000000000000000000000000000000000000000000\n      dup2\n      mstore\n      0x04\n      add\n      tag_178\n      swap1\n      tag_179\n      jump\t// in\n    tag_178:\n      mload(0x40)\n      dup1\n      swap2\n      sub\n      swap1\n      revert\n    tag_177:\n        /* \"DAO_smartcontract.sol\":2934:3021  Proposal(nextProposalId,description,amount,receipient,0,block.timestamp+voteTime,false) */\n      mload(0x40)\n      dup1\n      0xe0\n      add\n      0x40\n      mstore\n      dup1\n        /* \"DAO_smartcontract.sol\":2943:2957  nextProposalId */\n      sload(0x09)\n        /* \"DAO_smartcontract.sol\":2934:3021  Proposal(nextProposalId,description,amount,receipient,0,block.timestamp+voteTime,false) */\n      dup2\n      mstore\n      0x20\n      add\n        /* \"DAO_smartcontract.sol\":2958:2969  description */\n      dup6\n      dup6\n        /* \"DAO_smartcontract.sol\":2934:3021  Proposal(nextProposalId,description,amount,receipient,0,block.timestamp+voteTime,false) */\n      dup1\n      dup1\n      0x1f\n      add\n      0x20\n      dup1\n      swap2\n      div\n      mul\n      0x20\n      add\n      mload(0x40)\n      swap1\n      dup2\n      add\n      0x40\n      mstore\n      dup1\n      swap4\n      swap3\n      swap2\n      swap1\n      dup2\n      dup2\n      mstore\n      0x20\n      add\n      dup4\n      dup4\n      dup1\n      dup3\n      dup5\n      calldatacopy\n      0x00\n      dup2\n      dup5\n      add\n      mstore\n      not(0x1f)\n      0x1f\n      dup3\n      add\n      and\n      swap1\n      pop\n      dup1\n      dup4\n      add\n      swap3\n      pop\n      pop\n      pop\n      pop\n      pop\n      pop\n      pop\n      dup2\n      mstore\n      0x20\n      add\n        /* \"DAO_smartcontract.sol\":2970:2976  amount */\n      dup4\n        /* \"DAO_smartcontract.sol\":2934:3021  Proposal(nextProposalId,description,amount,receipient,0,block.timestamp+voteTime,false) */\n      dup2\n      mstore\n      0x20\n      add\n        /* \"DAO_smartcontract.sol\":2977:2987  receipient */\n      dup3\n        /* \"DAO_smartcontract.sol\":2934:3021  Proposal(nextProposalId,description,amount,receipient,0,block.timestamp+voteTime,false) */\n      0xffffffffffffffffffffffffffffffffffffffff\n      and\n      dup2\n      mstore\n      0x20\n      add\n        /* \"DAO_smartcontract.sol\":2988:2989  0 */\n      0x00\n        /* \"DAO_smartcontract.sol\":2934:3021  Proposal(nextProposalId,description,amount,receipient,0,block.timestamp+voteTime,false) */\n      dup2\n      mstore\n      0x20\n      add\n        /* \"DAO_smartcontract.sol\":3006:3014  voteTime */\n      sload(0x0a)\n        /* \"DAO_smartcontract.sol\":2990:3005  block.timestamp */\n      timestamp\n        /* \"DAO_smartcontract.sol\":2990:3014  block.timestamp+voteTime */\n      tag_180\n      swap2\n      swap1\n      tag_140\n      jump\t// in\n    tag_180:\n        /* \"DAO_smartcontract.sol\":2934:3021  Proposal(nextProposalId,description,amount,receipient,0,block.timestamp+voteTime,false) */\n      dup2\n      mstore\n      0x20\n      add\n        /* \"DAO_smartcontract.sol\":3015:3020  false */\n      0x00\n        /* \"DAO_smartcontract.sol\":2934:3021  Proposal(nextProposalId,description,amount,receipient,0,block.timestamp+voteTime,false) */\n      iszero\n      iszero\n      dup2\n      mstore\n      pop\n        /* \"DAO_smartcontract.sol\":2908:2917  proposals */\n      0x05\n        /* \"DAO_smartcontract.sol\":2908:2933  proposals[nextProposalId] */\n      0x00\n        /* \"DAO_smartcontract.sol\":2918:2932  nextProposalId */\n      sload(0x09)\n        /* \"DAO_smartcontract.sol\":2908:2933  proposals[nextProposalId] */\n      dup2\n      mstore\n      0x20\n      add\n      swap1\n      dup2\n      mstore\n      0x20\n      add\n      0x00\n      keccak256\n        /* \"DAO_smartcontract.sol\":2908:3021  proposals[nextProposalId]=Proposal(nextProposalId,description,amount,receipient,0,block.timestamp+voteTime,false) */\n      0x00\n      dup3\n      add\n      mload\n      dup2\n      0x00\n      add\n      sstore\n      0x20\n      dup3\n      add\n      mload\n      dup2\n      0x01\n      add\n      swap1\n      dup2\n      tag_181\n      swap2\n      swap1\n      tag_182\n      jump\t// in\n    tag_181:\n      pop\n      0x40\n      dup3\n      add\n      mload\n      dup2\n      0x02\n      add\n      sstore\n      0x60\n      dup3\n      add\n      mload\n      dup2\n      0x03\n      add\n      exp(0x0100, 0x00)\n      dup2\n      sload\n      dup2\n      0xffffffffffffffffffffffffffffffffffffffff\n      mul\n      not\n      and\n      swap1\n      dup4\n      0xffffffffffffffffffffffffffffffffffffffff\n      and\n      mul\n      or\n      swap1\n      sstore\n      pop\n      0x80\n      dup3\n      add\n      mload\n      dup2\n      0x04\n      add\n      sstore\n      0xa0\n      dup3\n      add\n      mload\n      dup2\n      0x05\n      add\n      sstore\n      0xc0\n      dup3\n      add\n      mload\n      dup2\n      0x06\n      add\n      exp(0x0100, 0x00)\n      dup2\n      sload\n      dup2\n      0xff\n      mul\n      not\n      and\n      swap1\n      dup4\n      iszero\n      iszero\n      mul\n      or\n      swap1\n      sstore\n      pop\n      swap1\n      pop\n      pop\n        /* \"DAO_smartcontract.sol\":3028:3042  nextProposalId */\n      0x09\n      0x00\n        /* \"DAO_smartcontract.sol\":3028:3044  nextProposalId++ */\n      dup2\n      sload\n      dup1\n      swap3\n      swap2\n      swap1\n      tag_183\n      swap1\n      tag_184\n      jump\t// in\n    tag_183:\n      swap2\n      swap1\n      pop\n      sstore\n      pop\n        /* \"DAO_smartcontract.sol\":2734:3052  function createProposal(string calldata description,uint amount,address payable receipient) public onlyManager{... */\n      pop\n      pop\n      pop\n      pop\n      jump\t// out\n        /* \"DAO_smartcontract.sol\":4028:4293  function ProposalList() public view returns(Proposal[] memory){... */\n    tag_82:\n        /* \"DAO_smartcontract.sol\":4072:4089  Proposal[] memory */\n      0x60\n        /* \"DAO_smartcontract.sol\":4102:4123  Proposal[] memory arr */\n      0x00\n        /* \"DAO_smartcontract.sol\":4154:4155  1 */\n      0x01\n        /* \"DAO_smartcontract.sol\":4139:4153  nextProposalId */\n      sload(0x09)\n        /* \"DAO_smartcontract.sol\":4139:4155  nextProposalId-1 */\n      tag_186\n      swap2\n      swap1\n      tag_138\n      jump\t// in\n    tag_186:\n        /* \"DAO_smartcontract.sol\":4124:4156  new Proposal[](nextProposalId-1) */\n      0xffffffffffffffff\n      dup2\n      gt\n      iszero\n      tag_187\n      jumpi\n      tag_188\n      tag_189\n      jump\t// in\n    tag_188:\n    tag_187:\n      mload(0x40)\n      swap1\n      dup1\n      dup3\n      mstore\n      dup1\n      0x20\n      mul\n      0x20\n      add\n      dup3\n      add\n      0x40\n      mstore\n      dup1\n      iszero\n      tag_190\n      jumpi\n      dup2\n      0x20\n      add\n    tag_191:\n      tag_192\n      tag_193\n      jump\t// in\n    tag_192:\n      dup2\n      mstore\n      0x20\n      add\n      swap1\n      0x01\n      swap1\n      sub\n      swap1\n      dup2\n      tag_191\n      jumpi\n      swap1\n      pop\n    tag_190:\n      pop\n        /* \"DAO_smartcontract.sol\":4102:4156  Proposal[] memory arr=new Proposal[](nextProposalId-1) */\n      swap1\n      pop\n        /* \"DAO_smartcontract.sol\":4172:4178  uint i */\n      0x00\n        /* \"DAO_smartcontract.sol\":4168:4263  for(uint i=0;i<nextProposalId;i++)... */\n    tag_194:\n        /* \"DAO_smartcontract.sol\":4183:4197  nextProposalId */\n      sload(0x09)\n        /* \"DAO_smartcontract.sol\":4181:4182  i */\n      dup2\n        /* \"DAO_smartcontract.sol\":4181:4197  i<nextProposalId */\n      lt\n        /* \"DAO_smartcontract.sol\":4168:4263  for(uint i=0;i<nextProposalId;i++)... */\n      iszero\n      tag_195\n      jumpi\n        /* \"DAO_smartcontract.sol\":4236:4245  proposals */\n      0x05\n        /* \"DAO_smartcontract.sol\":4236:4248  proposals[i] */\n      0x00\n        /* \"DAO_smartcontract.sol\":4246:4247  i */\n      dup3\n        /* \"DAO_smartcontract.sol\":4236:4248  proposals[i] */\n      dup2\n      mstore\n      0x20\n      add\n      swap1\n      dup2\n      mstore\n      0x20\n      add\n      0x00\n      keccak256\n        /* \"DAO_smartcontract.sol\":4229:4248  arr[i]=proposals[i] */\n      mload(0x40)\n      dup1\n      0xe0\n      add\n      0x40\n      mstore\n      swap1\n      dup2\n      0x00\n      dup3\n      add\n      sload\n      dup2\n      mstore\n      0x20\n      add\n      0x01\n      dup3\n      add\n      dup1\n      sload\n      tag_197\n      swap1\n      tag_121\n      jump\t// in\n    tag_197:\n      dup1\n      0x1f\n      add\n      0x20\n      dup1\n      swap2\n      div\n      mul\n      0x20\n      add\n      mload(0x40)\n      swap1\n      dup2\n      add\n      0x40\n      mstore\n      dup1\n      swap3\n      swap2\n      swap1\n      dup2\n      dup2\n      mstore\n      0x20\n      add\n      dup3\n      dup1\n      sload\n      tag_198\n      swap1\n      tag_121\n      jump\t// in\n    tag_198:\n      dup1\n      iszero\n      tag_199\n      jumpi\n      dup1\n      0x1f\n      lt\n      tag_200\n      jumpi\n      0x0100\n      dup1\n      dup4\n      sload\n      div\n      mul\n      dup4\n      mstore\n      swap2\n      0x20\n      add\n      swap2\n      jump(tag_199)\n    tag_200:\n      dup3\n      add\n      swap2\n      swap1\n      0x00\n      mstore\n      keccak256(0x00, 0x20)\n      swap1\n    tag_201:\n      dup2\n      sload\n      dup2\n      mstore\n      swap1\n      0x01\n      add\n      swap1\n      0x20\n      add\n      dup1\n      dup4\n      gt\n      tag_201\n      jumpi\n      dup3\n      swap1\n      sub\n      0x1f\n      and\n      dup3\n      add\n      swap2\n    tag_199:\n      pop\n      pop\n      pop\n      pop\n      pop\n      dup2\n      mstore\n      0x20\n      add\n      0x02\n      dup3\n      add\n      sload\n      dup2\n      mstore\n      0x20\n      add\n      0x03\n      dup3\n      add\n      0x00\n      swap1\n      sload\n      swap1\n      0x0100\n      exp\n      swap1\n      div\n      0xffffffffffffffffffffffffffffffffffffffff\n      and\n      0xffffffffffffffffffffffffffffffffffffffff\n      and\n      0xffffffffffffffffffffffffffffffffffffffff\n      and\n      dup2\n      mstore\n      0x20\n      add\n      0x04\n      dup3\n      add\n      sload\n      dup2\n      mstore\n      0x20\n      add\n      0x05\n      dup3\n      add\n      sload\n      dup2\n      mstore\n      0x20\n      add\n      0x06\n      dup3\n      add\n      0x00\n      swap1\n      sload\n      swap1\n      0x0100\n      exp\n      swap1\n      div\n      0xff\n      and\n      iszero\n      iszero\n      iszero\n      iszero\n      dup2\n      mstore\n      pop\n      pop\n        /* \"DAO_smartcontract.sol\":4229:4232  arr */\n      dup3\n        /* \"DAO_smartcontract.sol\":4233:4234  i */\n      dup3\n        /* \"DAO_smartcontract.sol\":4229:4235  arr[i] */\n      dup2\n      mload\n      dup2\n      lt\n      tag_202\n      jumpi\n      tag_203\n      tag_204\n      jump\t// in\n    tag_203:\n    tag_202:\n      0x20\n      mul\n      0x20\n      add\n      add\n        /* \"DAO_smartcontract.sol\":4229:4248  arr[i]=proposals[i] */\n      dup2\n      swap1\n      mstore\n      pop\n        /* \"DAO_smartcontract.sol\":4198:4201  i++ */\n      dup1\n      dup1\n      tag_205\n      swap1\n      tag_184\n      jump\t// in\n    tag_205:\n      swap2\n      pop\n      pop\n        /* \"DAO_smartcontract.sol\":4168:4263  for(uint i=0;i<nextProposalId;i++)... */\n      jump(tag_194)\n    tag_195:\n      pop\n        /* \"DAO_smartcontract.sol\":4281:4284  arr */\n      dup1\n        /* \"DAO_smartcontract.sol\":4274:4284  return arr */\n      swap2\n      pop\n      pop\n        /* \"DAO_smartcontract.sol\":4028:4293  function ProposalList() public view returns(Proposal[] memory){... */\n      swap1\n      jump\t// out\n        /* \"DAO_smartcontract.sol\":3062:3534  function voteProposal(uint proposalId) public onlyInvestor()... */\n    tag_88:\n        /* \"DAO_smartcontract.sol\":1207:1211  true */\n      0x01\n        /* \"DAO_smartcontract.sol\":1183:1211  isInvestor[msg.sender]==true */\n      iszero\n      iszero\n        /* \"DAO_smartcontract.sol\":1183:1193  isInvestor */\n      0x00\n        /* \"DAO_smartcontract.sol\":1183:1205  isInvestor[msg.sender] */\n      dup1\n        /* \"DAO_smartcontract.sol\":1194:1204  msg.sender */\n      caller\n        /* \"DAO_smartcontract.sol\":1183:1205  isInvestor[msg.sender] */\n      0xffffffffffffffffffffffffffffffffffffffff\n      and\n      0xffffffffffffffffffffffffffffffffffffffff\n      and\n      dup2\n      mstore\n      0x20\n      add\n      swap1\n      dup2\n      mstore\n      0x20\n      add\n      0x00\n      keccak256\n      0x00\n      swap1\n      sload\n      swap1\n      0x0100\n      exp\n      swap1\n      div\n      0xff\n      and\n        /* \"DAO_smartcontract.sol\":1183:1211  isInvestor[msg.sender]==true */\n      iszero\n      iszero\n      eq\n        /* \"DAO_smartcontract.sol\":1175:1238  require(isInvestor[msg.sender]==true,\"You are not an investor\") */\n      tag_207\n      jumpi\n      mload(0x40)\n      0x08c379a000000000000000000000000000000000000000000000000000000000\n      dup2\n      mstore\n      0x04\n      add\n      tag_208\n      swap1\n      tag_129\n      jump\t// in\n    tag_208:\n      mload(0x40)\n      dup1\n      swap2\n      sub\n      swap1\n      revert\n    tag_207:\n        /* \"DAO_smartcontract.sol\":3139:3164  Proposal storage proposal */\n      0x00\n        /* \"DAO_smartcontract.sol\":3165:3174  proposals */\n      0x05\n        /* \"DAO_smartcontract.sol\":3165:3186  proposals[proposalId] */\n      0x00\n        /* \"DAO_smartcontract.sol\":3175:3185  proposalId */\n      dup4\n        /* \"DAO_smartcontract.sol\":3165:3186  proposals[proposalId] */\n      dup2\n      mstore\n      0x20\n      add\n      swap1\n      dup2\n      mstore\n      0x20\n      add\n      0x00\n      keccak256\n        /* \"DAO_smartcontract.sol\":3139:3186  Proposal storage proposal=proposals[proposalId] */\n      swap1\n      pop\n        /* \"DAO_smartcontract.sol\":3238:3243  false */\n      0x00\n        /* \"DAO_smartcontract.sol\":3205:3243  isVoted[msg.sender][proposalId]==false */\n      iszero\n      iszero\n        /* \"DAO_smartcontract.sol\":3205:3212  isVoted */\n      0x02\n        /* \"DAO_smartcontract.sol\":3205:3224  isVoted[msg.sender] */\n      0x00\n        /* \"DAO_smartcontract.sol\":3213:3223  msg.sender */\n      caller\n        /* \"DAO_smartcontract.sol\":3205:3224  isVoted[msg.sender] */\n      0xffffffffffffffffffffffffffffffffffffffff\n      and\n      0xffffffffffffffffffffffffffffffffffffffff\n      and\n      dup2\n      mstore\n      0x20\n      add\n      swap1\n      dup2\n      mstore\n      0x20\n      add\n      0x00\n      keccak256\n        /* \"DAO_smartcontract.sol\":3205:3236  isVoted[msg.sender][proposalId] */\n      0x00\n        /* \"DAO_smartcontract.sol\":3225:3235  proposalId */\n      dup5\n        /* \"DAO_smartcontract.sol\":3205:3236  isVoted[msg.sender][proposalId] */\n      dup2\n      mstore\n      0x20\n      add\n      swap1\n      dup2\n      mstore\n      0x20\n      add\n      0x00\n      keccak256\n      0x00\n      swap1\n      sload\n      swap1\n      0x0100\n      exp\n      swap1\n      div\n      0xff\n      and\n        /* \"DAO_smartcontract.sol\":3205:3243  isVoted[msg.sender][proposalId]==false */\n      iszero\n      iszero\n      eq\n        /* \"DAO_smartcontract.sol\":3197:3287  require(isVoted[msg.sender][proposalId]==false,\"You have already voted for this proposal\") */\n      tag_210\n      jumpi\n      mload(0x40)\n      0x08c379a000000000000000000000000000000000000000000000000000000000\n      dup2\n      mstore\n      0x04\n      add\n      tag_211\n      swap1\n      tag_212\n      jump\t// in\n    tag_211:\n      mload(0x40)\n      dup1\n      swap2\n      sub\n      swap1\n      revert\n    tag_210:\n        /* \"DAO_smartcontract.sol\":3320:3335  block.timestamp */\n      timestamp\n        /* \"DAO_smartcontract.sol\":3306:3314  proposal */\n      dup2\n        /* \"DAO_smartcontract.sol\":3306:3318  proposal.end */\n      0x05\n      add\n      sload\n        /* \"DAO_smartcontract.sol\":3306:3335  proposal.end>=block.timestamp */\n      lt\n      iszero\n        /* \"DAO_smartcontract.sol\":3298:3356  require(proposal.end>=block.timestamp,\"Voting time ended\") */\n      tag_213\n      jumpi\n      mload(0x40)\n      0x08c379a000000000000000000000000000000000000000000000000000000000\n      dup2\n      mstore\n      0x04\n      add\n      tag_214\n      swap1\n      tag_215\n      jump\t// in\n    tag_214:\n      mload(0x40)\n      dup1\n      swap2\n      sub\n      swap1\n      revert\n    tag_213:\n        /* \"DAO_smartcontract.sol\":3396:3401  false */\n      0x00\n        /* \"DAO_smartcontract.sol\":3375:3401  proposal.isExecuted==false */\n      iszero\n      iszero\n        /* \"DAO_smartcontract.sol\":3375:3383  proposal */\n      dup2\n        /* \"DAO_smartcontract.sol\":3375:3394  proposal.isExecuted */\n      0x06\n      add\n      0x00\n      swap1\n      sload\n      swap1\n      0x0100\n      exp\n      swap1\n      div\n      0xff\n      and\n        /* \"DAO_smartcontract.sol\":3375:3401  proposal.isExecuted==false */\n      iszero\n      iszero\n      eq\n        /* \"DAO_smartcontract.sol\":3367:3427  require(proposal.isExecuted==false,\"It is already executed\") */\n      tag_216\n      jumpi\n      mload(0x40)\n      0x08c379a000000000000000000000000000000000000000000000000000000000\n      dup2\n      mstore\n      0x04\n      add\n      tag_217\n      swap1\n      tag_218\n      jump\t// in\n    tag_217:\n      mload(0x40)\n      dup1\n      swap2\n      sub\n      swap1\n      revert\n    tag_216:\n        /* \"DAO_smartcontract.sol\":3470:3474  true */\n      0x01\n        /* \"DAO_smartcontract.sol\":3438:3445  isVoted */\n      0x02\n        /* \"DAO_smartcontract.sol\":3438:3457  isVoted[msg.sender] */\n      0x00\n        /* \"DAO_smartcontract.sol\":3446:3456  msg.sender */\n      caller\n        /* \"DAO_smartcontract.sol\":3438:3457  isVoted[msg.sender] */\n      0xffffffffffffffffffffffffffffffffffffffff\n      and\n      0xffffffffffffffffffffffffffffffffffffffff\n      and\n      dup2\n      mstore\n      0x20\n      add\n      swap1\n      dup2\n      mstore\n      0x20\n      add\n      0x00\n      keccak256\n        /* \"DAO_smartcontract.sol\":3438:3469  isVoted[msg.sender][proposalId] */\n      0x00\n        /* \"DAO_smartcontract.sol\":3458:3468  proposalId */\n      dup5\n        /* \"DAO_smartcontract.sol\":3438:3469  isVoted[msg.sender][proposalId] */\n      dup2\n      mstore\n      0x20\n      add\n      swap1\n      dup2\n      mstore\n      0x20\n      add\n      0x00\n      keccak256\n      0x00\n        /* \"DAO_smartcontract.sol\":3438:3474  isVoted[msg.sender][proposalId]=true */\n      0x0100\n      exp\n      dup2\n      sload\n      dup2\n      0xff\n      mul\n      not\n      and\n      swap1\n      dup4\n      iszero\n      iszero\n      mul\n      or\n      swap1\n      sstore\n      pop\n        /* \"DAO_smartcontract.sol\":3501:3512  numOfshares */\n      0x01\n        /* \"DAO_smartcontract.sol\":3501:3524  numOfshares[msg.sender] */\n      0x00\n        /* \"DAO_smartcontract.sol\":3513:3523  msg.sender */\n      caller\n        /* \"DAO_smartcontract.sol\":3501:3524  numOfshares[msg.sender] */\n      0xffffffffffffffffffffffffffffffffffffffff\n      and\n      0xffffffffffffffffffffffffffffffffffffffff\n      and\n      dup2\n      mstore\n      0x20\n      add\n      swap1\n      dup2\n      mstore\n      0x20\n      add\n      0x00\n      keccak256\n      sload\n        /* \"DAO_smartcontract.sol\":3485:3493  proposal */\n      dup2\n        /* \"DAO_smartcontract.sol\":3485:3499  proposal.votes */\n      0x04\n      add\n      0x00\n        /* \"DAO_smartcontract.sol\":3485:3524  proposal.votes+=numOfshares[msg.sender] */\n      dup3\n      dup3\n      sload\n      tag_219\n      swap2\n      swap1\n      tag_140\n      jump\t// in\n    tag_219:\n      swap3\n      pop\n      pop\n      dup2\n      swap1\n      sstore\n      pop\n        /* \"DAO_smartcontract.sol\":3128:3534  {... */\n      pop\n        /* \"DAO_smartcontract.sol\":3062:3534  function voteProposal(uint proposalId) public onlyInvestor()... */\n      pop\n      jump\t// out\n        /* \"DAO_smartcontract.sol\":440:503  mapping(address=>mapping(address=>bool))public withdrawalStatus */\n    tag_93:\n      mstore(0x20, 0x03)\n      dup2\n      0x00\n      mstore\n      mstore(0x20, keccak256(0x00, 0x40))\n      dup1\n      0x00\n      mstore\n      keccak256(0x00, 0x40)\n      0x00\n      swap2\n      pop\n      swap2\n      pop\n      swap1\n      sload\n      swap1\n      0x0100\n      exp\n      swap1\n      div\n      0xff\n      and\n      dup2\n      jump\t// out\n        /* \"DAO_smartcontract.sol\":1806:2241  function redeemShare(uint amount) public onlyInvestor(){... */\n    tag_99:\n        /* \"DAO_smartcontract.sol\":1207:1211  true */\n      0x01\n        /* \"DAO_smartcontract.sol\":1183:1211  isInvestor[msg.sender]==true */\n      iszero\n      iszero\n        /* \"DAO_smartcontract.sol\":1183:1193  isInvestor */\n      0x00\n        /* \"DAO_smartcontract.sol\":1183:1205  isInvestor[msg.sender] */\n      dup1\n        /* \"DAO_smartcontract.sol\":1194:1204  msg.sender */\n      caller\n        /* \"DAO_smartcontract.sol\":1183:1205  isInvestor[msg.sender] */\n      0xffffffffffffffffffffffffffffffffffffffff\n      and\n      0xffffffffffffffffffffffffffffffffffffffff\n      and\n      dup2\n      mstore\n      0x20\n      add\n      swap1\n      dup2\n      mstore\n      0x20\n      add\n      0x00\n      keccak256\n      0x00\n      swap1\n      sload\n      swap1\n      0x0100\n      exp\n      swap1\n      div\n      0xff\n      and\n        /* \"DAO_smartcontract.sol\":1183:1211  isInvestor[msg.sender]==true */\n      iszero\n      iszero\n      eq\n        /* \"DAO_smartcontract.sol\":1175:1238  require(isInvestor[msg.sender]==true,\"You are not an investor\") */\n      tag_221\n      jumpi\n      mload(0x40)\n      0x08c379a000000000000000000000000000000000000000000000000000000000\n      dup2\n      mstore\n      0x04\n      add\n      tag_222\n      swap1\n      tag_129\n      jump\t// in\n    tag_222:\n      mload(0x40)\n      dup1\n      swap2\n      sub\n      swap1\n      revert\n    tag_221:\n        /* \"DAO_smartcontract.sol\":1906:1912  amount */\n      dup1\n        /* \"DAO_smartcontract.sol\":1881:1892  numOfshares */\n      0x01\n        /* \"DAO_smartcontract.sol\":1881:1904  numOfshares[msg.sender] */\n      0x00\n        /* \"DAO_smartcontract.sol\":1893:1903  msg.sender */\n      caller\n        /* \"DAO_smartcontract.sol\":1881:1904  numOfshares[msg.sender] */\n      0xffffffffffffffffffffffffffffffffffffffff\n      and\n      0xffffffffffffffffffffffffffffffffffffffff\n      and\n      dup2\n      mstore\n      0x20\n      add\n      swap1\n      dup2\n      mstore\n      0x20\n      add\n      0x00\n      keccak256\n      sload\n        /* \"DAO_smartcontract.sol\":1881:1912  numOfshares[msg.sender]>=amount */\n      lt\n      iszero\n        /* \"DAO_smartcontract.sol\":1873:1944  require(numOfshares[msg.sender]>=amount,\"You don't have enough shares\") */\n      tag_224\n      jumpi\n      mload(0x40)\n      0x08c379a000000000000000000000000000000000000000000000000000000000\n      dup2\n      mstore\n      0x04\n      add\n      tag_225\n      swap1\n      tag_136\n      jump\t// in\n    tag_225:\n      mload(0x40)\n      dup1\n      swap2\n      sub\n      swap1\n      revert\n    tag_224:\n        /* \"DAO_smartcontract.sol\":1980:1986  amount */\n      dup1\n        /* \"DAO_smartcontract.sol\":1964:1978  availableFunds */\n      sload(0x07)\n        /* \"DAO_smartcontract.sol\":1964:1986  availableFunds>=amount */\n      lt\n      iszero\n        /* \"DAO_smartcontract.sol\":1956:2006  require(availableFunds>=amount,\"Not enough funds\") */\n      tag_226\n      jumpi\n      mload(0x40)\n      0x08c379a000000000000000000000000000000000000000000000000000000000\n      dup2\n      mstore\n      0x04\n      add\n      tag_227\n      swap1\n      tag_179\n      jump\t// in\n    tag_227:\n      mload(0x40)\n      dup1\n      swap2\n      sub\n      swap1\n      revert\n    tag_226:\n        /* \"DAO_smartcontract.sol\":2043:2049  amount */\n      dup1\n        /* \"DAO_smartcontract.sol\":2018:2029  numOfshares */\n      0x01\n        /* \"DAO_smartcontract.sol\":2018:2041  numOfshares[msg.sender] */\n      0x00\n        /* \"DAO_smartcontract.sol\":2030:2040  msg.sender */\n      caller\n        /* \"DAO_smartcontract.sol\":2018:2041  numOfshares[msg.sender] */\n      0xffffffffffffffffffffffffffffffffffffffff\n      and\n      0xffffffffffffffffffffffffffffffffffffffff\n      and\n      dup2\n      mstore\n      0x20\n      add\n      swap1\n      dup2\n      mstore\n      0x20\n      add\n      0x00\n      keccak256\n      0x00\n        /* \"DAO_smartcontract.sol\":2018:2049  numOfshares[msg.sender]-=amount */\n      dup3\n      dup3\n      sload\n      tag_228\n      swap2\n      swap1\n      tag_138\n      jump\t// in\n    tag_228:\n      swap3\n      pop\n      pop\n      dup2\n      swap1\n      sstore\n      pop\n        /* \"DAO_smartcontract.sol\":2089:2090  0 */\n      0x00\n        /* \"DAO_smartcontract.sol\":2064:2075  numOfshares */\n      0x01\n        /* \"DAO_smartcontract.sol\":2064:2087  numOfshares[msg.sender] */\n      0x00\n        /* \"DAO_smartcontract.sol\":2076:2086  msg.sender */\n      caller\n        /* \"DAO_smartcontract.sol\":2064:2087  numOfshares[msg.sender] */\n      0xffffffffffffffffffffffffffffffffffffffff\n      and\n      0xffffffffffffffffffffffffffffffffffffffff\n      and\n      dup2\n      mstore\n      0x20\n      add\n      swap1\n      dup2\n      mstore\n      0x20\n      add\n      0x00\n      keccak256\n      sload\n        /* \"DAO_smartcontract.sol\":2064:2090  numOfshares[msg.sender]==0 */\n      sub\n        /* \"DAO_smartcontract.sol\":2061:2148  if(numOfshares[msg.sender]==0){... */\n      tag_229\n      jumpi\n        /* \"DAO_smartcontract.sol\":2130:2135  false */\n      0x00\n        /* \"DAO_smartcontract.sol\":2107:2117  isInvestor */\n      dup1\n        /* \"DAO_smartcontract.sol\":2107:2129  isInvestor[msg.sender] */\n      0x00\n        /* \"DAO_smartcontract.sol\":2118:2128  msg.sender */\n      caller\n        /* \"DAO_smartcontract.sol\":2107:2129  isInvestor[msg.sender] */\n      0xffffffffffffffffffffffffffffffffffffffff\n      and\n      0xffffffffffffffffffffffffffffffffffffffff\n      and\n      dup2\n      mstore\n      0x20\n      add\n      swap1\n      dup2\n      mstore\n      0x20\n      add\n      0x00\n      keccak256\n      0x00\n        /* \"DAO_smartcontract.sol\":2107:2135  isInvestor[msg.sender]=false */\n      0x0100\n      exp\n      dup2\n      sload\n      dup2\n      0xff\n      mul\n      not\n      and\n      swap1\n      dup4\n      iszero\n      iszero\n      mul\n      or\n      swap1\n      sstore\n      pop\n        /* \"DAO_smartcontract.sol\":2061:2148  if(numOfshares[msg.sender]==0){... */\n    tag_229:\n        /* \"DAO_smartcontract.sol\":2175:2181  amount */\n      dup1\n        /* \"DAO_smartcontract.sol\":2159:2173  availableFunds */\n      0x07\n      0x00\n        /* \"DAO_smartcontract.sol\":2159:2181  availableFunds-=amount */\n      dup3\n      dup3\n      sload\n      tag_230\n      swap2\n      swap1\n      tag_138\n      jump\t// in\n    tag_230:\n      swap3\n      pop\n      pop\n      dup2\n      swap1\n      sstore\n      pop\n        /* \"DAO_smartcontract.sol\":2201:2211  msg.sender */\n      caller\n        /* \"DAO_smartcontract.sol\":2193:2221  payable(msg.sender).transfer */\n      0xffffffffffffffffffffffffffffffffffffffff\n      and\n        /* \"DAO_smartcontract.sol\":2193:2229  payable(msg.sender).transfer(amount) */\n      0x08fc\n        /* \"DAO_smartcontract.sol\":2222:2228  amount */\n      dup3\n        /* \"DAO_smartcontract.sol\":2193:2229  payable(msg.sender).transfer(amount) */\n      swap1\n      dup2\n      iszero\n      mul\n      swap1\n      mload(0x40)\n      0x00\n      mload(0x40)\n      dup1\n      dup4\n      sub\n      dup2\n      dup6\n      dup9\n      dup9\n      call\n      swap4\n      pop\n      pop\n      pop\n      pop\n      iszero\n      dup1\n      iszero\n      tag_232\n      jumpi\n      returndatasize\n      0x00\n      dup1\n      returndatacopy\n      revert(0x00, returndatasize)\n    tag_232:\n      pop\n        /* \"DAO_smartcontract.sol\":1806:2241  function redeemShare(uint amount) public onlyInvestor(){... */\n      pop\n      jump\t// out\n        /* \"DAO_smartcontract.sol\":381:432  mapping(address=>mapping(uint=>bool))public isVoted */\n    tag_104:\n      mstore(0x20, 0x02)\n      dup2\n      0x00\n      mstore\n      mstore(0x20, keccak256(0x00, 0x40))\n      dup1\n      0x00\n      mstore\n      keccak256(0x00, 0x40)\n      0x00\n      swap2\n      pop\n      swap2\n      pop\n      swap1\n      sload\n      swap1\n      0x0100\n      exp\n      swap1\n      div\n      0xff\n      and\n      dup2\n      jump\t// out\n        /* \"DAO_smartcontract.sol\":661:692  uint public contributionTimeEnd */\n    tag_108:\n      sload(0x08)\n      dup2\n      jump\t// out\n        /* \"DAO_smartcontract.sol\":734:754  uint public voteTime */\n    tag_112:\n      sload(0x0a)\n      dup2\n      jump\t// out\n        /* \"DAO_smartcontract.sol\":333:373  mapping(address=>uint)public numOfshares */\n    tag_118:\n      mstore(0x20, 0x01)\n      dup1\n      0x00\n      mstore\n      keccak256(0x00, 0x40)\n      0x00\n      swap2\n      pop\n      swap1\n      pop\n      sload\n      dup2\n      jump\t// out\n    tag_193:\n      mload(0x40)\n      dup1\n      0xe0\n      add\n      0x40\n      mstore\n      dup1\n      0x00\n      dup2\n      mstore\n      0x20\n      add\n      0x60\n      dup2\n      mstore\n      0x20\n      add\n      0x00\n      dup2\n      mstore\n      0x20\n      add\n      and(0xffffffffffffffffffffffffffffffffffffffff, 0x00)\n      dup2\n      mstore\n      0x20\n      add\n      0x00\n      dup2\n      mstore\n      0x20\n      add\n      0x00\n      dup2\n      mstore\n      0x20\n      add\n      iszero(iszero(0x00))\n      dup2\n      mstore\n      pop\n      swap1\n      jump\t// out\n        /* \"#utility.yul\":88:205   */\n    tag_234:\n        /* \"#utility.yul\":197:198   */\n      0x00\n        /* \"#utility.yul\":194:195   */\n      dup1\n        /* \"#utility.yul\":187:199   */\n      revert\n        /* \"#utility.yul\":211:328   */\n    tag_235:\n        /* \"#utility.yul\":320:321   */\n      0x00\n        /* \"#utility.yul\":317:318   */\n      dup1\n        /* \"#utility.yul\":310:322   */\n      revert\n        /* \"#utility.yul\":334:411   */\n    tag_236:\n        /* \"#utility.yul\":371:378   */\n      0x00\n        /* \"#utility.yul\":400:405   */\n      dup2\n        /* \"#utility.yul\":389:405   */\n      swap1\n      pop\n        /* \"#utility.yul\":334:411   */\n      swap2\n      swap1\n      pop\n      jump\t// out\n        /* \"#utility.yul\":417:539   */\n    tag_237:\n        /* \"#utility.yul\":490:514   */\n      tag_318\n        /* \"#utility.yul\":508:513   */\n      dup2\n        /* \"#utility.yul\":490:514   */\n      tag_236\n      jump\t// in\n    tag_318:\n        /* \"#utility.yul\":483:488   */\n      dup2\n        /* \"#utility.yul\":480:515   */\n      eq\n        /* \"#utility.yul\":470:533   */\n      tag_319\n      jumpi\n        /* \"#utility.yul\":529:530   */\n      0x00\n        /* \"#utility.yul\":526:527   */\n      dup1\n        /* \"#utility.yul\":519:531   */\n      revert\n        /* \"#utility.yul\":470:533   */\n    tag_319:\n        /* \"#utility.yul\":417:539   */\n      pop\n      jump\t// out\n        /* \"#utility.yul\":545:684   */\n    tag_238:\n        /* \"#utility.yul\":591:596   */\n      0x00\n        /* \"#utility.yul\":629:635   */\n      dup2\n        /* \"#utility.yul\":616:636   */\n      calldataload\n        /* \"#utility.yul\":607:636   */\n      swap1\n      pop\n        /* \"#utility.yul\":645:678   */\n      tag_321\n        /* \"#utility.yul\":672:677   */\n      dup2\n        /* \"#utility.yul\":645:678   */\n      tag_237\n      jump\t// in\n    tag_321:\n        /* \"#utility.yul\":545:684   */\n      swap3\n      swap2\n      pop\n      pop\n      jump\t// out\n        /* \"#utility.yul\":690:1019   */\n    tag_28:\n        /* \"#utility.yul\":749:755   */\n      0x00\n        /* \"#utility.yul\":798:800   */\n      0x20\n        /* \"#utility.yul\":786:795   */\n      dup3\n        /* \"#utility.yul\":777:784   */\n      dup5\n        /* \"#utility.yul\":773:796   */\n      sub\n        /* \"#utility.yul\":769:801   */\n      slt\n        /* \"#utility.yul\":766:885   */\n      iszero\n      tag_323\n      jumpi\n        /* \"#utility.yul\":804:883   */\n      tag_324\n      tag_234\n      jump\t// in\n    tag_324:\n        /* \"#utility.yul\":766:885   */\n    tag_323:\n        /* \"#utility.yul\":924:925   */\n      0x00\n        /* \"#utility.yul\":949:1002   */\n      tag_325\n        /* \"#utility.yul\":994:1001   */\n      dup5\n        /* \"#utility.yul\":985:991   */\n      dup3\n        /* \"#utility.yul\":974:983   */\n      dup6\n        /* \"#utility.yul\":970:992   */\n      add\n        /* \"#utility.yul\":949:1002   */\n      tag_238\n      jump\t// in\n    tag_325:\n        /* \"#utility.yul\":939:1002   */\n      swap2\n      pop\n        /* \"#utility.yul\":895:1012   */\n      pop\n        /* \"#utility.yul\":690:1019   */\n      swap3\n      swap2\n      pop\n      pop\n      jump\t// out\n        /* \"#utility.yul\":1025:1143   */\n    tag_239:\n        /* \"#utility.yul\":1112:1136   */\n      tag_327\n        /* \"#utility.yul\":1130:1135   */\n      dup2\n        /* \"#utility.yul\":1112:1136   */\n      tag_236\n      jump\t// in\n    tag_327:\n        /* \"#utility.yul\":1107:1110   */\n      dup3\n        /* \"#utility.yul\":1100:1137   */\n      mstore\n        /* \"#utility.yul\":1025:1143   */\n      pop\n      pop\n      jump\t// out\n        /* \"#utility.yul\":1149:1248   */\n    tag_240:\n        /* \"#utility.yul\":1201:1207   */\n      0x00\n        /* \"#utility.yul\":1235:1240   */\n      dup2\n        /* \"#utility.yul\":1229:1241   */\n      mload\n        /* \"#utility.yul\":1219:1241   */\n      swap1\n      pop\n        /* \"#utility.yul\":1149:1248   */\n      swap2\n      swap1\n      pop\n      jump\t// out\n        /* \"#utility.yul\":1254:1423   */\n    tag_241:\n        /* \"#utility.yul\":1338:1349   */\n      0x00\n        /* \"#utility.yul\":1372:1378   */\n      dup3\n        /* \"#utility.yul\":1367:1370   */\n      dup3\n        /* \"#utility.yul\":1360:1379   */\n      mstore\n        /* \"#utility.yul\":1412:1416   */\n      0x20\n        /* \"#utility.yul\":1407:1410   */\n      dup3\n        /* \"#utility.yul\":1403:1417   */\n      add\n        /* \"#utility.yul\":1388:1417   */\n      swap1\n      pop\n        /* \"#utility.yul\":1254:1423   */\n      swap3\n      swap2\n      pop\n      pop\n      jump\t// out\n        /* \"#utility.yul\":1429:1675   */\n    tag_242:\n        /* \"#utility.yul\":1510:1511   */\n      0x00\n        /* \"#utility.yul\":1520:1633   */\n    tag_331:\n        /* \"#utility.yul\":1534:1540   */\n      dup4\n        /* \"#utility.yul\":1531:1532   */\n      dup2\n        /* \"#utility.yul\":1528:1541   */\n      lt\n        /* \"#utility.yul\":1520:1633   */\n      iszero\n      tag_333\n      jumpi\n        /* \"#utility.yul\":1619:1620   */\n      dup1\n        /* \"#utility.yul\":1614:1617   */\n      dup3\n        /* \"#utility.yul\":1610:1621   */\n      add\n        /* \"#utility.yul\":1604:1622   */\n      mload\n        /* \"#utility.yul\":1600:1601   */\n      dup2\n        /* \"#utility.yul\":1595:1598   */\n      dup5\n        /* \"#utility.yul\":1591:1602   */\n      add\n        /* \"#utility.yul\":1584:1623   */\n      mstore\n        /* \"#utility.yul\":1556:1558   */\n      0x20\n        /* \"#utility.yul\":1553:1554   */\n      dup2\n        /* \"#utility.yul\":1549:1559   */\n      add\n        /* \"#utility.yul\":1544:1559   */\n      swap1\n      pop\n        /* \"#utility.yul\":1520:1633   */\n      jump(tag_331)\n    tag_333:\n        /* \"#utility.yul\":1667:1668   */\n      0x00\n        /* \"#utility.yul\":1658:1664   */\n      dup5\n        /* \"#utility.yul\":1653:1656   */\n      dup5\n        /* \"#utility.yul\":1649:1665   */\n      add\n        /* \"#utility.yul\":1642:1669   */\n      mstore\n        /* \"#utility.yul\":1491:1675   */\n      pop\n        /* \"#utility.yul\":1429:1675   */\n      pop\n      pop\n      pop\n      jump\t// out\n        /* \"#utility.yul\":1681:1783   */\n    tag_243:\n        /* \"#utility.yul\":1722:1728   */\n      0x00\n        /* \"#utility.yul\":1773:1775   */\n      0x1f\n        /* \"#utility.yul\":1769:1776   */\n      not\n        /* \"#utility.yul\":1764:1766   */\n      0x1f\n        /* \"#utility.yul\":1757:1762   */\n      dup4\n        /* \"#utility.yul\":1753:1767   */\n      add\n        /* \"#utility.yul\":1749:1777   */\n      and\n        /* \"#utility.yul\":1739:1777   */\n      swap1\n      pop\n        /* \"#utility.yul\":1681:1783   */\n      swap2\n      swap1\n      pop\n      jump\t// out\n        /* \"#utility.yul\":1789:2166   */\n    tag_244:\n        /* \"#utility.yul\":1877:1880   */\n      0x00\n        /* \"#utility.yul\":1905:1944   */\n      tag_336\n        /* \"#utility.yul\":1938:1943   */\n      dup3\n        /* \"#utility.yul\":1905:1944   */\n      tag_240\n      jump\t// in\n    tag_336:\n        /* \"#utility.yul\":1960:2031   */\n      tag_337\n        /* \"#utility.yul\":2024:2030   */\n      dup2\n        /* \"#utility.yul\":2019:2022   */\n      dup6\n        /* \"#utility.yul\":1960:2031   */\n      tag_241\n      jump\t// in\n    tag_337:\n        /* \"#utility.yul\":1953:2031   */\n      swap4\n      pop\n        /* \"#utility.yul\":2040:2105   */\n      tag_338\n        /* \"#utility.yul\":2098:2104   */\n      dup2\n        /* \"#utility.yul\":2093:2096   */\n      dup6\n        /* \"#utility.yul\":2086:2090   */\n      0x20\n        /* \"#utility.yul\":2079:2084   */\n      dup7\n        /* \"#utility.yul\":2075:2091   */\n      add\n        /* \"#utility.yul\":2040:2105   */\n      tag_242\n      jump\t// in\n    tag_338:\n        /* \"#utility.yul\":2130:2159   */\n      tag_339\n        /* \"#utility.yul\":2152:2158   */\n      dup2\n        /* \"#utility.yul\":2130:2159   */\n      tag_243\n      jump\t// in\n    tag_339:\n        /* \"#utility.yul\":2125:2128   */\n      dup5\n        /* \"#utility.yul\":2121:2160   */\n      add\n        /* \"#utility.yul\":2114:2160   */\n      swap2\n      pop\n        /* \"#utility.yul\":1881:2166   */\n      pop\n        /* \"#utility.yul\":1789:2166   */\n      swap3\n      swap2\n      pop\n      pop\n      jump\t// out\n        /* \"#utility.yul\":2172:2298   */\n    tag_245:\n        /* \"#utility.yul\":2209:2216   */\n      0x00\n        /* \"#utility.yul\":2249:2291   */\n      0xffffffffffffffffffffffffffffffffffffffff\n        /* \"#utility.yul\":2242:2247   */\n      dup3\n        /* \"#utility.yul\":2238:2292   */\n      and\n        /* \"#utility.yul\":2227:2292   */\n      swap1\n      pop\n        /* \"#utility.yul\":2172:2298   */\n      swap2\n      swap1\n      pop\n      jump\t// out\n        /* \"#utility.yul\":2304:2408   */\n    tag_246:\n        /* \"#utility.yul\":2349:2356   */\n      0x00\n        /* \"#utility.yul\":2378:2402   */\n      tag_342\n        /* \"#utility.yul\":2396:2401   */\n      dup3\n        /* \"#utility.yul\":2378:2402   */\n      tag_245\n      jump\t// in\n    tag_342:\n        /* \"#utility.yul\":2367:2402   */\n      swap1\n      pop\n        /* \"#utility.yul\":2304:2408   */\n      swap2\n      swap1\n      pop\n      jump\t// out\n        /* \"#utility.yul\":2414:2556   */\n    tag_247:\n        /* \"#utility.yul\":2517:2549   */\n      tag_344\n        /* \"#utility.yul\":2543:2548   */\n      dup2\n        /* \"#utility.yul\":2517:2549   */\n      tag_246\n      jump\t// in\n    tag_344:\n        /* \"#utility.yul\":2512:2515   */\n      dup3\n        /* \"#utility.yul\":2505:2550   */\n      mstore\n        /* \"#utility.yul\":2414:2556   */\n      pop\n      pop\n      jump\t// out\n        /* \"#utility.yul\":2562:2652   */\n    tag_248:\n        /* \"#utility.yul\":2596:2603   */\n      0x00\n        /* \"#utility.yul\":2639:2644   */\n      dup2\n        /* \"#utility.yul\":2632:2645   */\n      iszero\n        /* \"#utility.yul\":2625:2646   */\n      iszero\n        /* \"#utility.yul\":2614:2646   */\n      swap1\n      pop\n        /* \"#utility.yul\":2562:2652   */\n      swap2\n      swap1\n      pop\n      jump\t// out\n        /* \"#utility.yul\":2658:2767   */\n    tag_249:\n        /* \"#utility.yul\":2739:2760   */\n      tag_347\n        /* \"#utility.yul\":2754:2759   */\n      dup2\n        /* \"#utility.yul\":2739:2760   */\n      tag_248\n      jump\t// in\n    tag_347:\n        /* \"#utility.yul\":2734:2737   */\n      dup3\n        /* \"#utility.yul\":2727:2761   */\n      mstore\n        /* \"#utility.yul\":2658:2767   */\n      pop\n      pop\n      jump\t// out\n        /* \"#utility.yul\":2773:3770   */\n    tag_31:\n        /* \"#utility.yul\":3064:3068   */\n      0x00\n        /* \"#utility.yul\":3102:3105   */\n      0xe0\n        /* \"#utility.yul\":3091:3100   */\n      dup3\n        /* \"#utility.yul\":3087:3106   */\n      add\n        /* \"#utility.yul\":3079:3106   */\n      swap1\n      pop\n        /* \"#utility.yul\":3116:3187   */\n      tag_349\n        /* \"#utility.yul\":3184:3185   */\n      0x00\n        /* \"#utility.yul\":3173:3182   */\n      dup4\n        /* \"#utility.yul\":3169:3186   */\n      add\n        /* \"#utility.yul\":3160:3166   */\n      dup11\n        /* \"#utility.yul\":3116:3187   */\n      tag_239\n      jump\t// in\n    tag_349:\n        /* \"#utility.yul\":3234:3243   */\n      dup2\n        /* \"#utility.yul\":3228:3232   */\n      dup2\n        /* \"#utility.yul\":3224:3244   */\n      sub\n        /* \"#utility.yul\":3219:3221   */\n      0x20\n        /* \"#utility.yul\":3208:3217   */\n      dup4\n        /* \"#utility.yul\":3204:3222   */\n      add\n        /* \"#utility.yul\":3197:3245   */\n      mstore\n        /* \"#utility.yul\":3262:3340   */\n      tag_350\n        /* \"#utility.yul\":3335:3339   */\n      dup2\n        /* \"#utility.yul\":3326:3332   */\n      dup10\n        /* \"#utility.yul\":3262:3340   */\n      tag_244\n      jump\t// in\n    tag_350:\n        /* \"#utility.yul\":3254:3340   */\n      swap1\n      pop\n        /* \"#utility.yul\":3350:3422   */\n      tag_351\n        /* \"#utility.yul\":3418:3420   */\n      0x40\n        /* \"#utility.yul\":3407:3416   */\n      dup4\n        /* \"#utility.yul\":3403:3421   */\n      add\n        /* \"#utility.yul\":3394:3400   */\n      dup9\n        /* \"#utility.yul\":3350:3422   */\n      tag_239\n      jump\t// in\n    tag_351:\n        /* \"#utility.yul\":3432:3520   */\n      tag_352\n        /* \"#utility.yul\":3516:3518   */\n      0x60\n        /* \"#utility.yul\":3505:3514   */\n      dup4\n        /* \"#utility.yul\":3501:3519   */\n      add\n        /* \"#utility.yul\":3492:3498   */\n      dup8\n        /* \"#utility.yul\":3432:3520   */\n      tag_247\n      jump\t// in\n    tag_352:\n        /* \"#utility.yul\":3530:3603   */\n      tag_353\n        /* \"#utility.yul\":3598:3601   */\n      0x80\n        /* \"#utility.yul\":3587:3596   */\n      dup4\n        /* \"#utility.yul\":3583:3602   */\n      add\n        /* \"#utility.yul\":3574:3580   */\n      dup7\n        /* \"#utility.yul\":3530:3603   */\n      tag_239\n      jump\t// in\n    tag_353:\n        /* \"#utility.yul\":3613:3686   */\n      tag_354\n        /* \"#utility.yul\":3681:3684   */\n      0xa0\n        /* \"#utility.yul\":3670:3679   */\n      dup4\n        /* \"#utility.yul\":3666:3685   */\n      add\n        /* \"#utility.yul\":3657:3663   */\n      dup6\n        /* \"#utility.yul\":3613:3686   */\n      tag_239\n      jump\t// in\n    tag_354:\n        /* \"#utility.yul\":3696:3763   */\n      tag_355\n        /* \"#utility.yul\":3758:3761   */\n      0xc0\n        /* \"#utility.yul\":3747:3756   */\n      dup4\n        /* \"#utility.yul\":3743:3762   */\n      add\n        /* \"#utility.yul\":3734:3740   */\n      dup5\n        /* \"#utility.yul\":3696:3763   */\n      tag_249\n      jump\t// in\n    tag_355:\n        /* \"#utility.yul\":2773:3770   */\n      swap9\n      swap8\n      pop\n      pop\n      pop\n      pop\n      pop\n      pop\n      pop\n      pop\n      jump\t// out\n        /* \"#utility.yul\":3776:3872   */\n    tag_250:\n        /* \"#utility.yul\":3813:3820   */\n      0x00\n        /* \"#utility.yul\":3842:3866   */\n      tag_357\n        /* \"#utility.yul\":3860:3865   */\n      dup3\n        /* \"#utility.yul\":3842:3866   */\n      tag_245\n      jump\t// in\n    tag_357:\n        /* \"#utility.yul\":3831:3866   */\n      swap1\n      pop\n        /* \"#utility.yul\":3776:3872   */\n      swap2\n      swap1\n      pop\n      jump\t// out\n        /* \"#utility.yul\":3878:4000   */\n    tag_251:\n        /* \"#utility.yul\":3951:3975   */\n      tag_359\n        /* \"#utility.yul\":3969:3974   */\n      dup2\n        /* \"#utility.yul\":3951:3975   */\n      tag_250\n      jump\t// in\n    tag_359:\n        /* \"#utility.yul\":3944:3949   */\n      dup2\n        /* \"#utility.yul\":3941:3976   */\n      eq\n        /* \"#utility.yul\":3931:3994   */\n      tag_360\n      jumpi\n        /* \"#utility.yul\":3990:3991   */\n      0x00\n        /* \"#utility.yul\":3987:3988   */\n      dup1\n        /* \"#utility.yul\":3980:3992   */\n      revert\n        /* \"#utility.yul\":3931:3994   */\n    tag_360:\n        /* \"#utility.yul\":3878:4000   */\n      pop\n      jump\t// out\n        /* \"#utility.yul\":4006:4145   */\n    tag_252:\n        /* \"#utility.yul\":4052:4057   */\n      0x00\n        /* \"#utility.yul\":4090:4096   */\n      dup2\n        /* \"#utility.yul\":4077:4097   */\n      calldataload\n        /* \"#utility.yul\":4068:4097   */\n      swap1\n      pop\n        /* \"#utility.yul\":4106:4139   */\n      tag_362\n        /* \"#utility.yul\":4133:4138   */\n      dup2\n        /* \"#utility.yul\":4106:4139   */\n      tag_251\n      jump\t// in\n    tag_362:\n        /* \"#utility.yul\":4006:4145   */\n      swap3\n      swap2\n      pop\n      pop\n      jump\t// out\n        /* \"#utility.yul\":4151:4625   */\n    tag_35:\n        /* \"#utility.yul\":4219:4225   */\n      0x00\n        /* \"#utility.yul\":4227:4233   */\n      dup1\n        /* \"#utility.yul\":4276:4278   */\n      0x40\n        /* \"#utility.yul\":4264:4273   */\n      dup4\n        /* \"#utility.yul\":4255:4262   */\n      dup6\n        /* \"#utility.yul\":4251:4274   */\n      sub\n        /* \"#utility.yul\":4247:4279   */\n      slt\n        /* \"#utility.yul\":4244:4363   */\n      iszero\n      tag_364\n      jumpi\n        /* \"#utility.yul\":4282:4361   */\n      tag_365\n      tag_234\n      jump\t// in\n    tag_365:\n        /* \"#utility.yul\":4244:4363   */\n    tag_364:\n        /* \"#utility.yul\":4402:4403   */\n      0x00\n        /* \"#utility.yul\":4427:4480   */\n      tag_366\n        /* \"#utility.yul\":4472:4479   */\n      dup6\n        /* \"#utility.yul\":4463:4469   */\n      dup3\n        /* \"#utility.yul\":4452:4461   */\n      dup7\n        /* \"#utility.yul\":4448:4470   */\n      add\n        /* \"#utility.yul\":4427:4480   */\n      tag_238\n      jump\t// in\n    tag_366:\n        /* \"#utility.yul\":4417:4480   */\n      swap3\n      pop\n        /* \"#utility.yul\":4373:4490   */\n      pop\n        /* \"#utility.yul\":4529:4531   */\n      0x20\n        /* \"#utility.yul\":4555:4608   */\n      tag_367\n        /* \"#utility.yul\":4600:4607   */\n      dup6\n        /* \"#utility.yul\":4591:4597   */\n      dup3\n        /* \"#utility.yul\":4580:4589   */\n      dup7\n        /* \"#utility.yul\":4576:4598   */\n      add\n        /* \"#utility.yul\":4555:4608   */\n      tag_252\n      jump\t// in\n    tag_367:\n        /* \"#utility.yul\":4545:4608   */\n      swap2\n      pop\n        /* \"#utility.yul\":4500:4618   */\n      pop\n        /* \"#utility.yul\":4151:4625   */\n      swap3\n      pop\n      swap3\n      swap1\n      pop\n      jump\t// out\n        /* \"#utility.yul\":4631:4749   */\n    tag_253:\n        /* \"#utility.yul\":4718:4742   */\n      tag_369\n        /* \"#utility.yul\":4736:4741   */\n      dup2\n        /* \"#utility.yul\":4718:4742   */\n      tag_250\n      jump\t// in\n    tag_369:\n        /* \"#utility.yul\":4713:4716   */\n      dup3\n        /* \"#utility.yul\":4706:4743   */\n      mstore\n        /* \"#utility.yul\":4631:4749   */\n      pop\n      pop\n      jump\t// out\n        /* \"#utility.yul\":4755:4977   */\n    tag_46:\n        /* \"#utility.yul\":4848:4852   */\n      0x00\n        /* \"#utility.yul\":4886:4888   */\n      0x20\n        /* \"#utility.yul\":4875:4884   */\n      dup3\n        /* \"#utility.yul\":4871:4889   */\n      add\n        /* \"#utility.yul\":4863:4889   */\n      swap1\n      pop\n        /* \"#utility.yul\":4899:4970   */\n      tag_371\n        /* \"#utility.yul\":4967:4968   */\n      0x00\n        /* \"#utility.yul\":4956:4965   */\n      dup4\n        /* \"#utility.yul\":4952:4969   */\n      add\n        /* \"#utility.yul\":4943:4949   */\n      dup5\n        /* \"#utility.yul\":4899:4970   */\n      tag_253\n      jump\t// in\n    tag_371:\n        /* \"#utility.yul\":4755:4977   */\n      swap3\n      swap2\n      pop\n      pop\n      jump\t// out\n        /* \"#utility.yul\":4983:5205   */\n    tag_51:\n        /* \"#utility.yul\":5076:5080   */\n      0x00\n        /* \"#utility.yul\":5114:5116   */\n      0x20\n        /* \"#utility.yul\":5103:5112   */\n      dup3\n        /* \"#utility.yul\":5099:5117   */\n      add\n        /* \"#utility.yul\":5091:5117   */\n      swap1\n      pop\n        /* \"#utility.yul\":5127:5198   */\n      tag_373\n        /* \"#utility.yul\":5195:5196   */\n      0x00\n        /* \"#utility.yul\":5184:5193   */\n      dup4\n        /* \"#utility.yul\":5180:5197   */\n      add\n        /* \"#utility.yul\":5171:5177   */\n      dup5\n        /* \"#utility.yul\":5127:5198   */\n      tag_239\n      jump\t// in\n    tag_373:\n        /* \"#utility.yul\":4983:5205   */\n      swap3\n      swap2\n      pop\n      pop\n      jump\t// out\n        /* \"#utility.yul\":5211:5349   */\n    tag_254:\n        /* \"#utility.yul\":5292:5324   */\n      tag_375\n        /* \"#utility.yul\":5318:5323   */\n      dup2\n        /* \"#utility.yul\":5292:5324   */\n      tag_246\n      jump\t// in\n    tag_375:\n        /* \"#utility.yul\":5285:5290   */\n      dup2\n        /* \"#utility.yul\":5282:5325   */\n      eq\n        /* \"#utility.yul\":5272:5343   */\n      tag_376\n      jumpi\n        /* \"#utility.yul\":5339:5340   */\n      0x00\n        /* \"#utility.yul\":5336:5337   */\n      dup1\n        /* \"#utility.yul\":5329:5341   */\n      revert\n        /* \"#utility.yul\":5272:5343   */\n    tag_376:\n        /* \"#utility.yul\":5211:5349   */\n      pop\n      jump\t// out\n        /* \"#utility.yul\":5355:5510   */\n    tag_255:\n        /* \"#utility.yul\":5409:5414   */\n      0x00\n        /* \"#utility.yul\":5447:5453   */\n      dup2\n        /* \"#utility.yul\":5434:5454   */\n      calldataload\n        /* \"#utility.yul\":5425:5454   */\n      swap1\n      pop\n        /* \"#utility.yul\":5463:5504   */\n      tag_378\n        /* \"#utility.yul\":5498:5503   */\n      dup2\n        /* \"#utility.yul\":5463:5504   */\n      tag_254\n      jump\t// in\n    tag_378:\n        /* \"#utility.yul\":5355:5510   */\n      swap3\n      swap2\n      pop\n      pop\n      jump\t// out\n        /* \"#utility.yul\":5516:6006   */\n    tag_55:\n        /* \"#utility.yul\":5592:5598   */\n      0x00\n        /* \"#utility.yul\":5600:5606   */\n      dup1\n        /* \"#utility.yul\":5649:5651   */\n      0x40\n        /* \"#utility.yul\":5637:5646   */\n      dup4\n        /* \"#utility.yul\":5628:5635   */\n      dup6\n        /* \"#utility.yul\":5624:5647   */\n      sub\n        /* \"#utility.yul\":5620:5652   */\n      slt\n        /* \"#utility.yul\":5617:5736   */\n      iszero\n      tag_380\n      jumpi\n        /* \"#utility.yul\":5655:5734   */\n      tag_381\n      tag_234\n      jump\t// in\n    tag_381:\n        /* \"#utility.yul\":5617:5736   */\n    tag_380:\n        /* \"#utility.yul\":5775:5776   */\n      0x00\n        /* \"#utility.yul\":5800:5853   */\n      tag_382\n        /* \"#utility.yul\":5845:5852   */\n      dup6\n        /* \"#utility.yul\":5836:5842   */\n      dup3\n        /* \"#utility.yul\":5825:5834   */\n      dup7\n        /* \"#utility.yul\":5821:5843   */\n      add\n        /* \"#utility.yul\":5800:5853   */\n      tag_238\n      jump\t// in\n    tag_382:\n        /* \"#utility.yul\":5790:5853   */\n      swap3\n      pop\n        /* \"#utility.yul\":5746:5863   */\n      pop\n        /* \"#utility.yul\":5902:5904   */\n      0x20\n        /* \"#utility.yul\":5928:5989   */\n      tag_383\n        /* \"#utility.yul\":5981:5988   */\n      dup6\n        /* \"#utility.yul\":5972:5978   */\n      dup3\n        /* \"#utility.yul\":5961:5970   */\n      dup7\n        /* \"#utility.yul\":5957:5979   */\n      add\n        /* \"#utility.yul\":5928:5989   */\n      tag_255\n      jump\t// in\n    tag_383:\n        /* \"#utility.yul\":5918:5989   */\n      swap2\n      pop\n        /* \"#utility.yul\":5873:5999   */\n      pop\n        /* \"#utility.yul\":5516:6006   */\n      swap3\n      pop\n      swap3\n      swap1\n      pop\n      jump\t// out\n        /* \"#utility.yul\":6012:6129   */\n    tag_256:\n        /* \"#utility.yul\":6121:6122   */\n      0x00\n        /* \"#utility.yul\":6118:6119   */\n      dup1\n        /* \"#utility.yul\":6111:6123   */\n      revert\n        /* \"#utility.yul\":6135:6252   */\n    tag_257:\n        /* \"#utility.yul\":6244:6245   */\n      0x00\n        /* \"#utility.yul\":6241:6242   */\n      dup1\n        /* \"#utility.yul\":6234:6246   */\n      revert\n        /* \"#utility.yul\":6258:6375   */\n    tag_258:\n        /* \"#utility.yul\":6367:6368   */\n      0x00\n        /* \"#utility.yul\":6364:6365   */\n      dup1\n        /* \"#utility.yul\":6357:6369   */\n      revert\n        /* \"#utility.yul\":6395:6948   */\n    tag_259:\n        /* \"#utility.yul\":6453:6461   */\n      0x00\n        /* \"#utility.yul\":6463:6469   */\n      dup1\n        /* \"#utility.yul\":6513:6516   */\n      dup4\n        /* \"#utility.yul\":6506:6510   */\n      0x1f\n        /* \"#utility.yul\":6498:6504   */\n      dup5\n        /* \"#utility.yul\":6494:6511   */\n      add\n        /* \"#utility.yul\":6490:6517   */\n      slt\n        /* \"#utility.yul\":6480:6602   */\n      tag_388\n      jumpi\n        /* \"#utility.yul\":6521:6600   */\n      tag_389\n      tag_256\n      jump\t// in\n    tag_389:\n        /* \"#utility.yul\":6480:6602   */\n    tag_388:\n        /* \"#utility.yul\":6634:6640   */\n      dup3\n        /* \"#utility.yul\":6621:6641   */\n      calldataload\n        /* \"#utility.yul\":6611:6641   */\n      swap1\n      pop\n        /* \"#utility.yul\":6664:6682   */\n      0xffffffffffffffff\n        /* \"#utility.yul\":6656:6662   */\n      dup2\n        /* \"#utility.yul\":6653:6683   */\n      gt\n        /* \"#utility.yul\":6650:6767   */\n      iszero\n      tag_390\n      jumpi\n        /* \"#utility.yul\":6686:6765   */\n      tag_391\n      tag_257\n      jump\t// in\n    tag_391:\n        /* \"#utility.yul\":6650:6767   */\n    tag_390:\n        /* \"#utility.yul\":6800:6804   */\n      0x20\n        /* \"#utility.yul\":6792:6798   */\n      dup4\n        /* \"#utility.yul\":6788:6805   */\n      add\n        /* \"#utility.yul\":6776:6805   */\n      swap2\n      pop\n        /* \"#utility.yul\":6854:6857   */\n      dup4\n        /* \"#utility.yul\":6846:6850   */\n      0x01\n        /* \"#utility.yul\":6838:6844   */\n      dup3\n        /* \"#utility.yul\":6834:6851   */\n      mul\n        /* \"#utility.yul\":6824:6832   */\n      dup4\n        /* \"#utility.yul\":6820:6852   */\n      add\n        /* \"#utility.yul\":6817:6858   */\n      gt\n        /* \"#utility.yul\":6814:6942   */\n      iszero\n      tag_392\n      jumpi\n        /* \"#utility.yul\":6861:6940   */\n      tag_393\n      tag_258\n      jump\t// in\n    tag_393:\n        /* \"#utility.yul\":6814:6942   */\n    tag_392:\n        /* \"#utility.yul\":6395:6948   */\n      swap3\n      pop\n      swap3\n      swap1\n      pop\n      jump\t// out\n        /* \"#utility.yul\":6954:7789   */\n    tag_78:\n        /* \"#utility.yul\":7051:7057   */\n      0x00\n        /* \"#utility.yul\":7059:7065   */\n      dup1\n        /* \"#utility.yul\":7067:7073   */\n      0x00\n        /* \"#utility.yul\":7075:7081   */\n      dup1\n        /* \"#utility.yul\":7124:7126   */\n      0x60\n        /* \"#utility.yul\":7112:7121   */\n      dup6\n        /* \"#utility.yul\":7103:7110   */\n      dup8\n        /* \"#utility.yul\":7099:7122   */\n      sub\n        /* \"#utility.yul\":7095:7127   */\n      slt\n        /* \"#utility.yul\":7092:7211   */\n      iszero\n      tag_395\n      jumpi\n        /* \"#utility.yul\":7130:7209   */\n      tag_396\n      tag_234\n      jump\t// in\n    tag_396:\n        /* \"#utility.yul\":7092:7211   */\n    tag_395:\n        /* \"#utility.yul\":7278:7279   */\n      0x00\n        /* \"#utility.yul\":7267:7276   */\n      dup6\n        /* \"#utility.yul\":7263:7280   */\n      add\n        /* \"#utility.yul\":7250:7281   */\n      calldataload\n        /* \"#utility.yul\":7308:7326   */\n      0xffffffffffffffff\n        /* \"#utility.yul\":7300:7306   */\n      dup2\n        /* \"#utility.yul\":7297:7327   */\n      gt\n        /* \"#utility.yul\":7294:7411   */\n      iszero\n      tag_397\n      jumpi\n        /* \"#utility.yul\":7330:7409   */\n      tag_398\n      tag_235\n      jump\t// in\n    tag_398:\n        /* \"#utility.yul\":7294:7411   */\n    tag_397:\n        /* \"#utility.yul\":7443:7508   */\n      tag_399\n        /* \"#utility.yul\":7500:7507   */\n      dup8\n        /* \"#utility.yul\":7491:7497   */\n      dup3\n        /* \"#utility.yul\":7480:7489   */\n      dup9\n        /* \"#utility.yul\":7476:7498   */\n      add\n        /* \"#utility.yul\":7443:7508   */\n      tag_259\n      jump\t// in\n    tag_399:\n        /* \"#utility.yul\":7425:7508   */\n      swap5\n      pop\n      swap5\n      pop\n        /* \"#utility.yul\":7221:7518   */\n      pop\n        /* \"#utility.yul\":7557:7559   */\n      0x20\n        /* \"#utility.yul\":7583:7636   */\n      tag_400\n        /* \"#utility.yul\":7628:7635   */\n      dup8\n        /* \"#utility.yul\":7619:7625   */\n      dup3\n        /* \"#utility.yul\":7608:7617   */\n      dup9\n        /* \"#utility.yul\":7604:7626   */\n      add\n        /* \"#utility.yul\":7583:7636   */\n      tag_238\n      jump\t// in\n    tag_400:\n        /* \"#utility.yul\":7573:7636   */\n      swap3\n      pop\n        /* \"#utility.yul\":7528:7646   */\n      pop\n        /* \"#utility.yul\":7685:7687   */\n      0x40\n        /* \"#utility.yul\":7711:7772   */\n      tag_401\n        /* \"#utility.yul\":7764:7771   */\n      dup8\n        /* \"#utility.yul\":7755:7761   */\n      dup3\n        /* \"#utility.yul\":7744:7753   */\n      dup9\n        /* \"#utility.yul\":7740:7762   */\n      add\n        /* \"#utility.yul\":7711:7772   */\n      tag_255\n      jump\t// in\n    tag_401:\n        /* \"#utility.yul\":7701:7772   */\n      swap2\n      pop\n        /* \"#utility.yul\":7656:7782   */\n      pop\n        /* \"#utility.yul\":6954:7789   */\n      swap3\n      swap6\n      swap2\n      swap5\n      pop\n      swap3\n      pop\n      jump\t// out\n        /* \"#utility.yul\":7795:7933   */\n    tag_260:\n        /* \"#utility.yul\":7886:7892   */\n      0x00\n        /* \"#utility.yul\":7920:7925   */\n      dup2\n        /* \"#utility.yul\":7914:7926   */\n      mload\n        /* \"#utility.yul\":7904:7926   */\n      swap1\n      pop\n        /* \"#utility.yul\":7795:7933   */\n      swap2\n      swap1\n      pop\n      jump\t// out\n        /* \"#utility.yul\":7939:8147   */\n    tag_261:\n        /* \"#utility.yul\":8062:8073   */\n      0x00\n        /* \"#utility.yul\":8096:8102   */\n      dup3\n        /* \"#utility.yul\":8091:8094   */\n      dup3\n        /* \"#utility.yul\":8084:8103   */\n      mstore\n        /* \"#utility.yul\":8136:8140   */\n      0x20\n        /* \"#utility.yul\":8131:8134   */\n      dup3\n        /* \"#utility.yul\":8127:8141   */\n      add\n        /* \"#utility.yul\":8112:8141   */\n      swap1\n      pop\n        /* \"#utility.yul\":7939:8147   */\n      swap3\n      swap2\n      pop\n      pop\n      jump\t// out\n        /* \"#utility.yul\":8153:8309   */\n    tag_262:\n        /* \"#utility.yul\":8244:8248   */\n      0x00\n        /* \"#utility.yul\":8267:8270   */\n      dup2\n        /* \"#utility.yul\":8259:8270   */\n      swap1\n      pop\n        /* \"#utility.yul\":8297:8301   */\n      0x20\n        /* \"#utility.yul\":8292:8295   */\n      dup3\n        /* \"#utility.yul\":8288:8302   */\n      add\n        /* \"#utility.yul\":8280:8302   */\n      swap1\n      pop\n        /* \"#utility.yul\":8153:8309   */\n      swap2\n      swap1\n      pop\n      jump\t// out\n        /* \"#utility.yul\":8315:8423   */\n    tag_263:\n        /* \"#utility.yul\":8392:8416   */\n      tag_406\n        /* \"#utility.yul\":8410:8415   */\n      dup2\n        /* \"#utility.yul\":8392:8416   */\n      tag_236\n      jump\t// in\n    tag_406:\n        /* \"#utility.yul\":8387:8390   */\n      dup3\n        /* \"#utility.yul\":8380:8417   */\n      mstore\n        /* \"#utility.yul\":8315:8423   */\n      pop\n      pop\n      jump\t// out\n        /* \"#utility.yul\":8429:8588   */\n    tag_264:\n        /* \"#utility.yul\":8503:8514   */\n      0x00\n        /* \"#utility.yul\":8537:8543   */\n      dup3\n        /* \"#utility.yul\":8532:8535   */\n      dup3\n        /* \"#utility.yul\":8525:8544   */\n      mstore\n        /* \"#utility.yul\":8577:8581   */\n      0x20\n        /* \"#utility.yul\":8572:8575   */\n      dup3\n        /* \"#utility.yul\":8568:8582   */\n      add\n        /* \"#utility.yul\":8553:8582   */\n      swap1\n      pop\n        /* \"#utility.yul\":8429:8588   */\n      swap3\n      swap2\n      pop\n      pop\n      jump\t// out\n        /* \"#utility.yul\":8594:8951   */\n    tag_265:\n        /* \"#utility.yul\":8672:8675   */\n      0x00\n        /* \"#utility.yul\":8700:8739   */\n      tag_409\n        /* \"#utility.yul\":8733:8738   */\n      dup3\n        /* \"#utility.yul\":8700:8739   */\n      tag_240\n      jump\t// in\n    tag_409:\n        /* \"#utility.yul\":8755:8816   */\n      tag_410\n        /* \"#utility.yul\":8809:8815   */\n      dup2\n        /* \"#utility.yul\":8804:8807   */\n      dup6\n        /* \"#utility.yul\":8755:8816   */\n      tag_264\n      jump\t// in\n    tag_410:\n        /* \"#utility.yul\":8748:8816   */\n      swap4\n      pop\n        /* \"#utility.yul\":8825:8890   */\n      tag_411\n        /* \"#utility.yul\":8883:8889   */\n      dup2\n        /* \"#utility.yul\":8878:8881   */\n      dup6\n        /* \"#utility.yul\":8871:8875   */\n      0x20\n        /* \"#utility.yul\":8864:8869   */\n      dup7\n        /* \"#utility.yul\":8860:8876   */\n      add\n        /* \"#utility.yul\":8825:8890   */\n      tag_242\n      jump\t// in\n    tag_411:\n        /* \"#utility.yul\":8915:8944   */\n      tag_412\n        /* \"#utility.yul\":8937:8943   */\n      dup2\n        /* \"#utility.yul\":8915:8944   */\n      tag_243\n      jump\t// in\n    tag_412:\n        /* \"#utility.yul\":8910:8913   */\n      dup5\n        /* \"#utility.yul\":8906:8945   */\n      add\n        /* \"#utility.yul\":8899:8945   */\n      swap2\n      pop\n        /* \"#utility.yul\":8676:8951   */\n      pop\n        /* \"#utility.yul\":8594:8951   */\n      swap3\n      swap2\n      pop\n      pop\n      jump\t// out\n        /* \"#utility.yul\":8957:9089   */\n    tag_266:\n        /* \"#utility.yul\":9050:9082   */\n      tag_414\n        /* \"#utility.yul\":9076:9081   */\n      dup2\n        /* \"#utility.yul\":9050:9082   */\n      tag_246\n      jump\t// in\n    tag_414:\n        /* \"#utility.yul\":9045:9048   */\n      dup3\n        /* \"#utility.yul\":9038:9083   */\n      mstore\n        /* \"#utility.yul\":8957:9089   */\n      pop\n      pop\n      jump\t// out\n        /* \"#utility.yul\":9095:9194   */\n    tag_267:\n        /* \"#utility.yul\":9166:9187   */\n      tag_416\n        /* \"#utility.yul\":9181:9186   */\n      dup2\n        /* \"#utility.yul\":9166:9187   */\n      tag_248\n      jump\t// in\n    tag_416:\n        /* \"#utility.yul\":9161:9164   */\n      dup3\n        /* \"#utility.yul\":9154:9188   */\n      mstore\n        /* \"#utility.yul\":9095:9194   */\n      pop\n      pop\n      jump\t// out\n        /* \"#utility.yul\":9252:10744   */\n    tag_268:\n        /* \"#utility.yul\":9359:9362   */\n      0x00\n        /* \"#utility.yul\":9395:9399   */\n      0xe0\n        /* \"#utility.yul\":9390:9393   */\n      dup4\n        /* \"#utility.yul\":9386:9400   */\n      add\n        /* \"#utility.yul\":9480:9484   */\n      0x00\n        /* \"#utility.yul\":9473:9478   */\n      dup4\n        /* \"#utility.yul\":9469:9485   */\n      add\n        /* \"#utility.yul\":9463:9486   */\n      mload\n        /* \"#utility.yul\":9499:9562   */\n      tag_418\n        /* \"#utility.yul\":9556:9560   */\n      0x00\n        /* \"#utility.yul\":9551:9554   */\n      dup7\n        /* \"#utility.yul\":9547:9561   */\n      add\n        /* \"#utility.yul\":9533:9545   */\n      dup3\n        /* \"#utility.yul\":9499:9562   */\n      tag_263\n      jump\t// in\n    tag_418:\n        /* \"#utility.yul\":9410:9572   */\n      pop\n        /* \"#utility.yul\":9661:9665   */\n      0x20\n        /* \"#utility.yul\":9654:9659   */\n      dup4\n        /* \"#utility.yul\":9650:9666   */\n      add\n        /* \"#utility.yul\":9644:9667   */\n      mload\n        /* \"#utility.yul\":9714:9717   */\n      dup5\n        /* \"#utility.yul\":9708:9712   */\n      dup3\n        /* \"#utility.yul\":9704:9718   */\n      sub\n        /* \"#utility.yul\":9697:9701   */\n      0x20\n        /* \"#utility.yul\":9692:9695   */\n      dup7\n        /* \"#utility.yul\":9688:9702   */\n      add\n        /* \"#utility.yul\":9681:9719   */\n      mstore\n        /* \"#utility.yul\":9740:9813   */\n      tag_419\n        /* \"#utility.yul\":9808:9812   */\n      dup3\n        /* \"#utility.yul\":9794:9806   */\n      dup3\n        /* \"#utility.yul\":9740:9813   */\n      tag_265\n      jump\t// in\n    tag_419:\n        /* \"#utility.yul\":9732:9813   */\n      swap2\n      pop\n        /* \"#utility.yul\":9582:9824   */\n      pop\n        /* \"#utility.yul\":9908:9912   */\n      0x40\n        /* \"#utility.yul\":9901:9906   */\n      dup4\n        /* \"#utility.yul\":9897:9913   */\n      add\n        /* \"#utility.yul\":9891:9914   */\n      mload\n        /* \"#utility.yul\":9927:9990   */\n      tag_420\n        /* \"#utility.yul\":9984:9988   */\n      0x40\n        /* \"#utility.yul\":9979:9982   */\n      dup7\n        /* \"#utility.yul\":9975:9989   */\n      add\n        /* \"#utility.yul\":9961:9973   */\n      dup3\n        /* \"#utility.yul\":9927:9990   */\n      tag_263\n      jump\t// in\n    tag_420:\n        /* \"#utility.yul\":9834:10000   */\n      pop\n        /* \"#utility.yul\":10087:10091   */\n      0x60\n        /* \"#utility.yul\":10080:10085   */\n      dup4\n        /* \"#utility.yul\":10076:10092   */\n      add\n        /* \"#utility.yul\":10070:10093   */\n      mload\n        /* \"#utility.yul\":10106:10185   */\n      tag_421\n        /* \"#utility.yul\":10179:10183   */\n      0x60\n        /* \"#utility.yul\":10174:10177   */\n      dup7\n        /* \"#utility.yul\":10170:10184   */\n      add\n        /* \"#utility.yul\":10156:10168   */\n      dup3\n        /* \"#utility.yul\":10106:10185   */\n      tag_266\n      jump\t// in\n    tag_421:\n        /* \"#utility.yul\":10010:10195   */\n      pop\n        /* \"#utility.yul\":10278:10282   */\n      0x80\n        /* \"#utility.yul\":10271:10276   */\n      dup4\n        /* \"#utility.yul\":10267:10283   */\n      add\n        /* \"#utility.yul\":10261:10284   */\n      mload\n        /* \"#utility.yul\":10297:10360   */\n      tag_422\n        /* \"#utility.yul\":10354:10358   */\n      0x80\n        /* \"#utility.yul\":10349:10352   */\n      dup7\n        /* \"#utility.yul\":10345:10359   */\n      add\n        /* \"#utility.yul\":10331:10343   */\n      dup3\n        /* \"#utility.yul\":10297:10360   */\n      tag_263\n      jump\t// in\n    tag_422:\n        /* \"#utility.yul\":10205:10370   */\n      pop\n        /* \"#utility.yul\":10451:10455   */\n      0xa0\n        /* \"#utility.yul\":10444:10449   */\n      dup4\n        /* \"#utility.yul\":10440:10456   */\n      add\n        /* \"#utility.yul\":10434:10457   */\n      mload\n        /* \"#utility.yul\":10470:10533   */\n      tag_423\n        /* \"#utility.yul\":10527:10531   */\n      0xa0\n        /* \"#utility.yul\":10522:10525   */\n      dup7\n        /* \"#utility.yul\":10518:10532   */\n      add\n        /* \"#utility.yul\":10504:10516   */\n      dup3\n        /* \"#utility.yul\":10470:10533   */\n      tag_263\n      jump\t// in\n    tag_423:\n        /* \"#utility.yul\":10380:10543   */\n      pop\n        /* \"#utility.yul\":10631:10635   */\n      0xc0\n        /* \"#utility.yul\":10624:10629   */\n      dup4\n        /* \"#utility.yul\":10620:10636   */\n      add\n        /* \"#utility.yul\":10614:10637   */\n      mload\n        /* \"#utility.yul\":10650:10707   */\n      tag_424\n        /* \"#utility.yul\":10701:10705   */\n      0xc0\n        /* \"#utility.yul\":10696:10699   */\n      dup7\n        /* \"#utility.yul\":10692:10706   */\n      add\n        /* \"#utility.yul\":10678:10690   */\n      dup3\n        /* \"#utility.yul\":10650:10707   */\n      tag_267\n      jump\t// in\n    tag_424:\n        /* \"#utility.yul\":10553:10717   */\n      pop\n        /* \"#utility.yul\":10734:10738   */\n      dup1\n        /* \"#utility.yul\":10727:10738   */\n      swap2\n      pop\n        /* \"#utility.yul\":9364:10744   */\n      pop\n        /* \"#utility.yul\":9252:10744   */\n      swap3\n      swap2\n      pop\n      pop\n      jump\t// out\n        /* \"#utility.yul\":10750:11002   */\n    tag_269:\n        /* \"#utility.yul\":10867:10877   */\n      0x00\n        /* \"#utility.yul\":10902:10996   */\n      tag_426\n        /* \"#utility.yul\":10992:10995   */\n      dup4\n        /* \"#utility.yul\":10984:10990   */\n      dup4\n        /* \"#utility.yul\":10902:10996   */\n      tag_268\n      jump\t// in\n    tag_426:\n        /* \"#utility.yul\":10888:10996   */\n      swap1\n      pop\n        /* \"#utility.yul\":10750:11002   */\n      swap3\n      swap2\n      pop\n      pop\n      jump\t// out\n        /* \"#utility.yul\":11008:11145   */\n    tag_270:\n        /* \"#utility.yul\":11102:11106   */\n      0x00\n        /* \"#utility.yul\":11134:11138   */\n      0x20\n        /* \"#utility.yul\":11129:11132   */\n      dup3\n        /* \"#utility.yul\":11125:11139   */\n      add\n        /* \"#utility.yul\":11117:11139   */\n      swap1\n      pop\n        /* \"#utility.yul\":11008:11145   */\n      swap2\n      swap1\n      pop\n      jump\t// out\n        /* \"#utility.yul\":11207:12310   */\n    tag_271:\n        /* \"#utility.yul\":11374:11377   */\n      0x00\n        /* \"#utility.yul\":11403:11481   */\n      tag_429\n        /* \"#utility.yul\":11475:11480   */\n      dup3\n        /* \"#utility.yul\":11403:11481   */\n      tag_260\n      jump\t// in\n    tag_429:\n        /* \"#utility.yul\":11497:11607   */\n      tag_430\n        /* \"#utility.yul\":11600:11606   */\n      dup2\n        /* \"#utility.yul\":11595:11598   */\n      dup6\n        /* \"#utility.yul\":11497:11607   */\n      tag_261\n      jump\t// in\n    tag_430:\n        /* \"#utility.yul\":11490:11607   */\n      swap4\n      pop\n        /* \"#utility.yul\":11633:11636   */\n      dup4\n        /* \"#utility.yul\":11678:11682   */\n      0x20\n        /* \"#utility.yul\":11670:11676   */\n      dup3\n        /* \"#utility.yul\":11666:11683   */\n      mul\n        /* \"#utility.yul\":11661:11664   */\n      dup6\n        /* \"#utility.yul\":11657:11684   */\n      add\n        /* \"#utility.yul\":11708:11788   */\n      tag_431\n        /* \"#utility.yul\":11782:11787   */\n      dup6\n        /* \"#utility.yul\":11708:11788   */\n      tag_262\n      jump\t// in\n    tag_431:\n        /* \"#utility.yul\":11811:11818   */\n      dup1\n        /* \"#utility.yul\":11842:11843   */\n      0x00\n        /* \"#utility.yul\":11827:12265   */\n    tag_432:\n        /* \"#utility.yul\":11852:11858   */\n      dup6\n        /* \"#utility.yul\":11849:11850   */\n      dup2\n        /* \"#utility.yul\":11846:11859   */\n      lt\n        /* \"#utility.yul\":11827:12265   */\n      iszero\n      tag_434\n      jumpi\n        /* \"#utility.yul\":11923:11932   */\n      dup5\n        /* \"#utility.yul\":11917:11921   */\n      dup5\n        /* \"#utility.yul\":11913:11933   */\n      sub\n        /* \"#utility.yul\":11908:11911   */\n      dup10\n        /* \"#utility.yul\":11901:11934   */\n      mstore\n        /* \"#utility.yul\":11974:11980   */\n      dup2\n        /* \"#utility.yul\":11968:11981   */\n      mload\n        /* \"#utility.yul\":12002:12114   */\n      tag_435\n        /* \"#utility.yul\":12109:12113   */\n      dup6\n        /* \"#utility.yul\":12094:12107   */\n      dup3\n        /* \"#utility.yul\":12002:12114   */\n      tag_269\n      jump\t// in\n    tag_435:\n        /* \"#utility.yul\":11994:12114   */\n      swap5\n      pop\n        /* \"#utility.yul\":12137:12221   */\n      tag_436\n        /* \"#utility.yul\":12214:12220   */\n      dup4\n        /* \"#utility.yul\":12137:12221   */\n      tag_270\n      jump\t// in\n    tag_436:\n        /* \"#utility.yul\":12127:12221   */\n      swap3\n      pop\n        /* \"#utility.yul\":12250:12254   */\n      0x20\n        /* \"#utility.yul\":12245:12248   */\n      dup11\n        /* \"#utility.yul\":12241:12255   */\n      add\n        /* \"#utility.yul\":12234:12255   */\n      swap10\n      pop\n        /* \"#utility.yul\":11887:12265   */\n      pop\n        /* \"#utility.yul\":11874:11875   */\n      0x01\n        /* \"#utility.yul\":11871:11872   */\n      dup2\n        /* \"#utility.yul\":11867:11876   */\n      add\n        /* \"#utility.yul\":11862:11876   */\n      swap1\n      pop\n        /* \"#utility.yul\":11827:12265   */\n      jump(tag_432)\n    tag_434:\n        /* \"#utility.yul\":11831:11845   */\n      pop\n        /* \"#utility.yul\":12281:12285   */\n      dup3\n        /* \"#utility.yul\":12274:12285   */\n      swap8\n      pop\n        /* \"#utility.yul\":12301:12304   */\n      dup8\n        /* \"#utility.yul\":12294:12304   */\n      swap6\n      pop\n        /* \"#utility.yul\":11379:12310   */\n      pop\n      pop\n      pop\n      pop\n      pop\n        /* \"#utility.yul\":11207:12310   */\n      swap3\n      swap2\n      pop\n      pop\n      jump\t// out\n        /* \"#utility.yul\":12316:12785   */\n    tag_84:\n        /* \"#utility.yul\":12507:12511   */\n      0x00\n        /* \"#utility.yul\":12545:12547   */\n      0x20\n        /* \"#utility.yul\":12534:12543   */\n      dup3\n        /* \"#utility.yul\":12530:12548   */\n      add\n        /* \"#utility.yul\":12522:12548   */\n      swap1\n      pop\n        /* \"#utility.yul\":12594:12603   */\n      dup2\n        /* \"#utility.yul\":12588:12592   */\n      dup2\n        /* \"#utility.yul\":12584:12604   */\n      sub\n        /* \"#utility.yul\":12580:12581   */\n      0x00\n        /* \"#utility.yul\":12569:12578   */\n      dup4\n        /* \"#utility.yul\":12565:12582   */\n      add\n        /* \"#utility.yul\":12558:12605   */\n      mstore\n        /* \"#utility.yul\":12622:12778   */\n      tag_438\n        /* \"#utility.yul\":12773:12777   */\n      dup2\n        /* \"#utility.yul\":12764:12770   */\n      dup5\n        /* \"#utility.yul\":12622:12778   */\n      tag_271\n      jump\t// in\n    tag_438:\n        /* \"#utility.yul\":12614:12778   */\n      swap1\n      pop\n        /* \"#utility.yul\":12316:12785   */\n      swap3\n      swap2\n      pop\n      pop\n      jump\t// out\n        /* \"#utility.yul\":12791:13265   */\n    tag_92:\n        /* \"#utility.yul\":12859:12865   */\n      0x00\n        /* \"#utility.yul\":12867:12873   */\n      dup1\n        /* \"#utility.yul\":12916:12918   */\n      0x40\n        /* \"#utility.yul\":12904:12913   */\n      dup4\n        /* \"#utility.yul\":12895:12902   */\n      dup6\n        /* \"#utility.yul\":12891:12914   */\n      sub\n        /* \"#utility.yul\":12887:12919   */\n      slt\n        /* \"#utility.yul\":12884:13003   */\n      iszero\n      tag_440\n      jumpi\n        /* \"#utility.yul\":12922:13001   */\n      tag_441\n      tag_234\n      jump\t// in\n    tag_441:\n        /* \"#utility.yul\":12884:13003   */\n    tag_440:\n        /* \"#utility.yul\":13042:13043   */\n      0x00\n        /* \"#utility.yul\":13067:13120   */\n      tag_442\n        /* \"#utility.yul\":13112:13119   */\n      dup6\n        /* \"#utility.yul\":13103:13109   */\n      dup3\n        /* \"#utility.yul\":13092:13101   */\n      dup7\n        /* \"#utility.yul\":13088:13110   */\n      add\n        /* \"#utility.yul\":13067:13120   */\n      tag_252\n      jump\t// in\n    tag_442:\n        /* \"#utility.yul\":13057:13120   */\n      swap3\n      pop\n        /* \"#utility.yul\":13013:13130   */\n      pop\n        /* \"#utility.yul\":13169:13171   */\n      0x20\n        /* \"#utility.yul\":13195:13248   */\n      tag_443\n        /* \"#utility.yul\":13240:13247   */\n      dup6\n        /* \"#utility.yul\":13231:13237   */\n      dup3\n        /* \"#utility.yul\":13220:13229   */\n      dup7\n        /* \"#utility.yul\":13216:13238   */\n      add\n        /* \"#utility.yul\":13195:13248   */\n      tag_252\n      jump\t// in\n    tag_443:\n        /* \"#utility.yul\":13185:13248   */\n      swap2\n      pop\n        /* \"#utility.yul\":13140:13258   */\n      pop\n        /* \"#utility.yul\":12791:13265   */\n      swap3\n      pop\n      swap3\n      swap1\n      pop\n      jump\t// out\n        /* \"#utility.yul\":13271:13481   */\n    tag_95:\n        /* \"#utility.yul\":13358:13362   */\n      0x00\n        /* \"#utility.yul\":13396:13398   */\n      0x20\n        /* \"#utility.yul\":13385:13394   */\n      dup3\n        /* \"#utility.yul\":13381:13399   */\n      add\n        /* \"#utility.yul\":13373:13399   */\n      swap1\n      pop\n        /* \"#utility.yul\":13409:13474   */\n      tag_445\n        /* \"#utility.yul\":13471:13472   */\n      0x00\n        /* \"#utility.yul\":13460:13469   */\n      dup4\n        /* \"#utility.yul\":13456:13473   */\n      add\n        /* \"#utility.yul\":13447:13453   */\n      dup5\n        /* \"#utility.yul\":13409:13474   */\n      tag_249\n      jump\t// in\n    tag_445:\n        /* \"#utility.yul\":13271:13481   */\n      swap3\n      swap2\n      pop\n      pop\n      jump\t// out\n        /* \"#utility.yul\":13487:13961   */\n    tag_103:\n        /* \"#utility.yul\":13555:13561   */\n      0x00\n        /* \"#utility.yul\":13563:13569   */\n      dup1\n        /* \"#utility.yul\":13612:13614   */\n      0x40\n        /* \"#utility.yul\":13600:13609   */\n      dup4\n        /* \"#utility.yul\":13591:13598   */\n      dup6\n        /* \"#utility.yul\":13587:13610   */\n      sub\n        /* \"#utility.yul\":13583:13615   */\n      slt\n        /* \"#utility.yul\":13580:13699   */\n      iszero\n      tag_447\n      jumpi\n        /* \"#utility.yul\":13618:13697   */\n      tag_448\n      tag_234\n      jump\t// in\n    tag_448:\n        /* \"#utility.yul\":13580:13699   */\n    tag_447:\n        /* \"#utility.yul\":13738:13739   */\n      0x00\n        /* \"#utility.yul\":13763:13816   */\n      tag_449\n        /* \"#utility.yul\":13808:13815   */\n      dup6\n        /* \"#utility.yul\":13799:13805   */\n      dup3\n        /* \"#utility.yul\":13788:13797   */\n      dup7\n        /* \"#utility.yul\":13784:13806   */\n      add\n        /* \"#utility.yul\":13763:13816   */\n      tag_252\n      jump\t// in\n    tag_449:\n        /* \"#utility.yul\":13753:13816   */\n      swap3\n      pop\n        /* \"#utility.yul\":13709:13826   */\n      pop\n        /* \"#utility.yul\":13865:13867   */\n      0x20\n        /* \"#utility.yul\":13891:13944   */\n      tag_450\n        /* \"#utility.yul\":13936:13943   */\n      dup6\n        /* \"#utility.yul\":13927:13933   */\n      dup3\n        /* \"#utility.yul\":13916:13925   */\n      dup7\n        /* \"#utility.yul\":13912:13934   */\n      add\n        /* \"#utility.yul\":13891:13944   */\n      tag_238\n      jump\t// in\n    tag_450:\n        /* \"#utility.yul\":13881:13944   */\n      swap2\n      pop\n        /* \"#utility.yul\":13836:13954   */\n      pop\n        /* \"#utility.yul\":13487:13961   */\n      swap3\n      pop\n      swap3\n      swap1\n      pop\n      jump\t// out\n        /* \"#utility.yul\":13967:14296   */\n    tag_117:\n        /* \"#utility.yul\":14026:14032   */\n      0x00\n        /* \"#utility.yul\":14075:14077   */\n      0x20\n        /* \"#utility.yul\":14063:14072   */\n      dup3\n        /* \"#utility.yul\":14054:14061   */\n      dup5\n        /* \"#utility.yul\":14050:14073   */\n      sub\n        /* \"#utility.yul\":14046:14078   */\n      slt\n        /* \"#utility.yul\":14043:14162   */\n      iszero\n      tag_452\n      jumpi\n        /* \"#utility.yul\":14081:14160   */\n      tag_453\n      tag_234\n      jump\t// in\n    tag_453:\n        /* \"#utility.yul\":14043:14162   */\n    tag_452:\n        /* \"#utility.yul\":14201:14202   */\n      0x00\n        /* \"#utility.yul\":14226:14279   */\n      tag_454\n        /* \"#utility.yul\":14271:14278   */\n      dup5\n        /* \"#utility.yul\":14262:14268   */\n      dup3\n        /* \"#utility.yul\":14251:14260   */\n      dup6\n        /* \"#utility.yul\":14247:14269   */\n      add\n        /* \"#utility.yul\":14226:14279   */\n      tag_252\n      jump\t// in\n    tag_454:\n        /* \"#utility.yul\":14216:14279   */\n      swap2\n      pop\n        /* \"#utility.yul\":14172:14289   */\n      pop\n        /* \"#utility.yul\":13967:14296   */\n      swap3\n      swap2\n      pop\n      pop\n      jump\t// out\n        /* \"#utility.yul\":14302:14482   */\n    tag_272:\n        /* \"#utility.yul\":14350:14427   */\n      0x4e487b7100000000000000000000000000000000000000000000000000000000\n        /* \"#utility.yul\":14347:14348   */\n      0x00\n        /* \"#utility.yul\":14340:14428   */\n      mstore\n        /* \"#utility.yul\":14447:14451   */\n      0x22\n        /* \"#utility.yul\":14444:14445   */\n      0x04\n        /* \"#utility.yul\":14437:14452   */\n      mstore\n        /* \"#utility.yul\":14471:14475   */\n      0x24\n        /* \"#utility.yul\":14468:14469   */\n      0x00\n        /* \"#utility.yul\":14461:14476   */\n      revert\n        /* \"#utility.yul\":14488:14808   */\n    tag_121:\n        /* \"#utility.yul\":14532:14538   */\n      0x00\n        /* \"#utility.yul\":14569:14570   */\n      0x02\n        /* \"#utility.yul\":14563:14567   */\n      dup3\n        /* \"#utility.yul\":14559:14571   */\n      div\n        /* \"#utility.yul\":14549:14571   */\n      swap1\n      pop\n        /* \"#utility.yul\":14616:14617   */\n      0x01\n        /* \"#utility.yul\":14610:14614   */\n      dup3\n        /* \"#utility.yul\":14606:14618   */\n      and\n        /* \"#utility.yul\":14637:14655   */\n      dup1\n        /* \"#utility.yul\":14627:14708   */\n      tag_457\n      jumpi\n        /* \"#utility.yul\":14693:14697   */\n      0x7f\n        /* \"#utility.yul\":14685:14691   */\n      dup3\n        /* \"#utility.yul\":14681:14698   */\n      and\n        /* \"#utility.yul\":14671:14698   */\n      swap2\n      pop\n        /* \"#utility.yul\":14627:14708   */\n    tag_457:\n        /* \"#utility.yul\":14755:14757   */\n      0x20\n        /* \"#utility.yul\":14747:14753   */\n      dup3\n        /* \"#utility.yul\":14744:14758   */\n      lt\n        /* \"#utility.yul\":14724:14742   */\n      dup2\n        /* \"#utility.yul\":14721:14759   */\n      sub\n        /* \"#utility.yul\":14718:14802   */\n      tag_458\n      jumpi\n        /* \"#utility.yul\":14774:14792   */\n      tag_459\n      tag_272\n      jump\t// in\n    tag_459:\n        /* \"#utility.yul\":14718:14802   */\n    tag_458:\n        /* \"#utility.yul\":14539:14808   */\n      pop\n        /* \"#utility.yul\":14488:14808   */\n      swap2\n      swap1\n      pop\n      jump\t// out\n        /* \"#utility.yul\":14814:14987   */\n    tag_273:\n        /* \"#utility.yul\":14954:14979   */\n      0x596f7520617265206e6f7420616e20696e766573746f72000000000000000000\n        /* \"#utility.yul\":14950:14951   */\n      0x00\n        /* \"#utility.yul\":14942:14948   */\n      dup3\n        /* \"#utility.yul\":14938:14952   */\n      add\n        /* \"#utility.yul\":14931:14980   */\n      mstore\n        /* \"#utility.yul\":14814:14987   */\n      pop\n      jump\t// out\n        /* \"#utility.yul\":14993:15359   */\n    tag_274:\n        /* \"#utility.yul\":15135:15138   */\n      0x00\n        /* \"#utility.yul\":15156:15223   */\n      tag_462\n        /* \"#utility.yul\":15220:15222   */\n      0x17\n        /* \"#utility.yul\":15215:15218   */\n      dup4\n        /* \"#utility.yul\":15156:15223   */\n      tag_241\n      jump\t// in\n    tag_462:\n        /* \"#utility.yul\":15149:15223   */\n      swap2\n      pop\n        /* \"#utility.yul\":15232:15325   */\n      tag_463\n        /* \"#utility.yul\":15321:15324   */\n      dup3\n        /* \"#utility.yul\":15232:15325   */\n      tag_273\n      jump\t// in\n    tag_463:\n        /* \"#utility.yul\":15350:15352   */\n      0x20\n        /* \"#utility.yul\":15345:15348   */\n      dup3\n        /* \"#utility.yul\":15341:15353   */\n      add\n        /* \"#utility.yul\":15334:15353   */\n      swap1\n      pop\n        /* \"#utility.yul\":14993:15359   */\n      swap2\n      swap1\n      pop\n      jump\t// out\n        /* \"#utility.yul\":15365:15784   */\n    tag_129:\n        /* \"#utility.yul\":15531:15535   */\n      0x00\n        /* \"#utility.yul\":15569:15571   */\n      0x20\n        /* \"#utility.yul\":15558:15567   */\n      dup3\n        /* \"#utility.yul\":15554:15572   */\n      add\n        /* \"#utility.yul\":15546:15572   */\n      swap1\n      pop\n        /* \"#utility.yul\":15618:15627   */\n      dup2\n        /* \"#utility.yul\":15612:15616   */\n      dup2\n        /* \"#utility.yul\":15608:15628   */\n      sub\n        /* \"#utility.yul\":15604:15605   */\n      0x00\n        /* \"#utility.yul\":15593:15602   */\n      dup4\n        /* \"#utility.yul\":15589:15606   */\n      add\n        /* \"#utility.yul\":15582:15629   */\n      mstore\n        /* \"#utility.yul\":15646:15777   */\n      tag_465\n        /* \"#utility.yul\":15772:15776   */\n      dup2\n        /* \"#utility.yul\":15646:15777   */\n      tag_274\n      jump\t// in\n    tag_465:\n        /* \"#utility.yul\":15638:15777   */\n      swap1\n      pop\n        /* \"#utility.yul\":15365:15784   */\n      swap2\n      swap1\n      pop\n      jump\t// out\n        /* \"#utility.yul\":15790:15966   */\n    tag_275:\n        /* \"#utility.yul\":15930:15958   */\n      0x4e6f7420656e6f7567682066756e647320617661696c61626c65000000000000\n        /* \"#utility.yul\":15926:15927   */\n      0x00\n        /* \"#utility.yul\":15918:15924   */\n      dup3\n        /* \"#utility.yul\":15914:15928   */\n      add\n        /* \"#utility.yul\":15907:15959   */\n      mstore\n        /* \"#utility.yul\":15790:15966   */\n      pop\n      jump\t// out\n        /* \"#utility.yul\":15972:16338   */\n    tag_276:\n        /* \"#utility.yul\":16114:16117   */\n      0x00\n        /* \"#utility.yul\":16135:16202   */\n      tag_468\n        /* \"#utility.yul\":16199:16201   */\n      0x1a\n        /* \"#utility.yul\":16194:16197   */\n      dup4\n        /* \"#utility.yul\":16135:16202   */\n      tag_241\n      jump\t// in\n    tag_468:\n        /* \"#utility.yul\":16128:16202   */\n      swap2\n      pop\n        /* \"#utility.yul\":16211:16304   */\n      tag_469\n        /* \"#utility.yul\":16300:16303   */\n      dup3\n        /* \"#utility.yul\":16211:16304   */\n      tag_275\n      jump\t// in\n    tag_469:\n        /* \"#utility.yul\":16329:16331   */\n      0x20\n        /* \"#utility.yul\":16324:16327   */\n      dup3\n        /* \"#utility.yul\":16320:16332   */\n      add\n        /* \"#utility.yul\":16313:16332   */\n      swap1\n      pop\n        /* \"#utility.yul\":15972:16338   */\n      swap2\n      swap1\n      pop\n      jump\t// out\n        /* \"#utility.yul\":16344:16763   */\n    tag_133:\n        /* \"#utility.yul\":16510:16514   */\n      0x00\n        /* \"#utility.yul\":16548:16550   */\n      0x20\n        /* \"#utility.yul\":16537:16546   */\n      dup3\n        /* \"#utility.yul\":16533:16551   */\n      add\n        /* \"#utility.yul\":16525:16551   */\n      swap1\n      pop\n        /* \"#utility.yul\":16597:16606   */\n      dup2\n        /* \"#utility.yul\":16591:16595   */\n      dup2\n        /* \"#utility.yul\":16587:16607   */\n      sub\n        /* \"#utility.yul\":16583:16584   */\n      0x00\n        /* \"#utility.yul\":16572:16581   */\n      dup4\n        /* \"#utility.yul\":16568:16585   */\n      add\n        /* \"#utility.yul\":16561:16608   */\n      mstore\n        /* \"#utility.yul\":16625:16756   */\n      tag_471\n        /* \"#utility.yul\":16751:16755   */\n      dup2\n        /* \"#utility.yul\":16625:16756   */\n      tag_276\n      jump\t// in\n    tag_471:\n        /* \"#utility.yul\":16617:16756   */\n      swap1\n      pop\n        /* \"#utility.yul\":16344:16763   */\n      swap2\n      swap1\n      pop\n      jump\t// out\n        /* \"#utility.yul\":16769:16947   */\n    tag_277:\n        /* \"#utility.yul\":16909:16939   */\n      0x596f7520646f6e2774206861766520656e6f7567682073686172657300000000\n        /* \"#utility.yul\":16905:16906   */\n      0x00\n        /* \"#utility.yul\":16897:16903   */\n      dup3\n        /* \"#utility.yul\":16893:16907   */\n      add\n        /* \"#utility.yul\":16886:16940   */\n      mstore\n        /* \"#utility.yul\":16769:16947   */\n      pop\n      jump\t// out\n        /* \"#utility.yul\":16953:17319   */\n    tag_278:\n        /* \"#utility.yul\":17095:17098   */\n      0x00\n        /* \"#utility.yul\":17116:17183   */\n      tag_474\n        /* \"#utility.yul\":17180:17182   */\n      0x1c\n        /* \"#utility.yul\":17175:17178   */\n      dup4\n        /* \"#utility.yul\":17116:17183   */\n      tag_241\n      jump\t// in\n    tag_474:\n        /* \"#utility.yul\":17109:17183   */\n      swap2\n      pop\n        /* \"#utility.yul\":17192:17285   */\n      tag_475\n        /* \"#utility.yul\":17281:17284   */\n      dup3\n        /* \"#utility.yul\":17192:17285   */\n      tag_277\n      jump\t// in\n    tag_475:\n        /* \"#utility.yul\":17310:17312   */\n      0x20\n        /* \"#utility.yul\":17305:17308   */\n      dup3\n        /* \"#utility.yul\":17301:17313   */\n      add\n        /* \"#utility.yul\":17294:17313   */\n      swap1\n      pop\n        /* \"#utility.yul\":16953:17319   */\n      swap2\n      swap1\n      pop\n      jump\t// out\n        /* \"#utility.yul\":17325:17744   */\n    tag_136:\n        /* \"#utility.yul\":17491:17495   */\n      0x00\n        /* \"#utility.yul\":17529:17531   */\n      0x20\n        /* \"#utility.yul\":17518:17527   */\n      dup3\n        /* \"#utility.yul\":17514:17532   */\n      add\n        /* \"#utility.yul\":17506:17532   */\n      swap1\n      pop\n        /* \"#utility.yul\":17578:17587   */\n      dup2\n        /* \"#utility.yul\":17572:17576   */\n      dup2\n        /* \"#utility.yul\":17568:17588   */\n      sub\n        /* \"#utility.yul\":17564:17565   */\n      0x00\n        /* \"#utility.yul\":17553:17562   */\n      dup4\n        /* \"#utility.yul\":17549:17566   */\n      add\n        /* \"#utility.yul\":17542:17589   */\n      mstore\n        /* \"#utility.yul\":17606:17737   */\n      tag_477\n        /* \"#utility.yul\":17732:17736   */\n      dup2\n        /* \"#utility.yul\":17606:17737   */\n      tag_278\n      jump\t// in\n    tag_477:\n        /* \"#utility.yul\":17598:17737   */\n      swap1\n      pop\n        /* \"#utility.yul\":17325:17744   */\n      swap2\n      swap1\n      pop\n      jump\t// out\n        /* \"#utility.yul\":17750:17930   */\n    tag_279:\n        /* \"#utility.yul\":17798:17875   */\n      0x4e487b7100000000000000000000000000000000000000000000000000000000\n        /* \"#utility.yul\":17795:17796   */\n      0x00\n        /* \"#utility.yul\":17788:17876   */\n      mstore\n        /* \"#utility.yul\":17895:17899   */\n      0x11\n        /* \"#utility.yul\":17892:17893   */\n      0x04\n        /* \"#utility.yul\":17885:17900   */\n      mstore\n        /* \"#utility.yul\":17919:17923   */\n      0x24\n        /* \"#utility.yul\":17916:17917   */\n      0x00\n        /* \"#utility.yul\":17909:17924   */\n      revert\n        /* \"#utility.yul\":17936:18130   */\n    tag_138:\n        /* \"#utility.yul\":17976:17980   */\n      0x00\n        /* \"#utility.yul\":17996:18016   */\n      tag_480\n        /* \"#utility.yul\":18014:18015   */\n      dup3\n        /* \"#utility.yul\":17996:18016   */\n      tag_236\n      jump\t// in\n    tag_480:\n        /* \"#utility.yul\":17991:18016   */\n      swap2\n      pop\n        /* \"#utility.yul\":18030:18050   */\n      tag_481\n        /* \"#utility.yul\":18048:18049   */\n      dup4\n        /* \"#utility.yul\":18030:18050   */\n      tag_236\n      jump\t// in\n    tag_481:\n        /* \"#utility.yul\":18025:18050   */\n      swap3\n      pop\n        /* \"#utility.yul\":18074:18075   */\n      dup3\n        /* \"#utility.yul\":18071:18072   */\n      dup3\n        /* \"#utility.yul\":18067:18076   */\n      sub\n        /* \"#utility.yul\":18059:18076   */\n      swap1\n      pop\n        /* \"#utility.yul\":18098:18099   */\n      dup2\n        /* \"#utility.yul\":18092:18096   */\n      dup2\n        /* \"#utility.yul\":18089:18100   */\n      gt\n        /* \"#utility.yul\":18086:18123   */\n      iszero\n      tag_482\n      jumpi\n        /* \"#utility.yul\":18103:18121   */\n      tag_483\n      tag_279\n      jump\t// in\n    tag_483:\n        /* \"#utility.yul\":18086:18123   */\n    tag_482:\n        /* \"#utility.yul\":17936:18130   */\n      swap3\n      swap2\n      pop\n      pop\n      jump\t// out\n        /* \"#utility.yul\":18136:18327   */\n    tag_140:\n        /* \"#utility.yul\":18176:18179   */\n      0x00\n        /* \"#utility.yul\":18195:18215   */\n      tag_485\n        /* \"#utility.yul\":18213:18214   */\n      dup3\n        /* \"#utility.yul\":18195:18215   */\n      tag_236\n      jump\t// in\n    tag_485:\n        /* \"#utility.yul\":18190:18215   */\n      swap2\n      pop\n        /* \"#utility.yul\":18229:18249   */\n      tag_486\n        /* \"#utility.yul\":18247:18248   */\n      dup4\n        /* \"#utility.yul\":18229:18249   */\n      tag_236\n      jump\t// in\n    tag_486:\n        /* \"#utility.yul\":18224:18249   */\n      swap3\n      pop\n        /* \"#utility.yul\":18272:18273   */\n      dup3\n        /* \"#utility.yul\":18269:18270   */\n      dup3\n        /* \"#utility.yul\":18265:18274   */\n      add\n        /* \"#utility.yul\":18258:18274   */\n      swap1\n      pop\n        /* \"#utility.yul\":18293:18296   */\n      dup1\n        /* \"#utility.yul\":18290:18291   */\n      dup3\n        /* \"#utility.yul\":18287:18297   */\n      gt\n        /* \"#utility.yul\":18284:18320   */\n      iszero\n      tag_487\n      jumpi\n        /* \"#utility.yul\":18300:18318   */\n      tag_488\n      tag_279\n      jump\t// in\n    tag_488:\n        /* \"#utility.yul\":18284:18320   */\n    tag_487:\n        /* \"#utility.yul\":18136:18327   */\n      swap3\n      swap2\n      pop\n      pop\n      jump\t// out\n        /* \"#utility.yul\":18333:18504   */\n    tag_280:\n        /* \"#utility.yul\":18473:18496   */\n      0x596f7520617265206e6f742061206d616e616765720000000000000000000000\n        /* \"#utility.yul\":18469:18470   */\n      0x00\n        /* \"#utility.yul\":18461:18467   */\n      dup3\n        /* \"#utility.yul\":18457:18471   */\n      add\n        /* \"#utility.yul\":18450:18497   */\n      mstore\n        /* \"#utility.yul\":18333:18504   */\n      pop\n      jump\t// out\n        /* \"#utility.yul\":18510:18876   */\n    tag_281:\n        /* \"#utility.yul\":18652:18655   */\n      0x00\n        /* \"#utility.yul\":18673:18740   */\n      tag_491\n        /* \"#utility.yul\":18737:18739   */\n      0x15\n        /* \"#utility.yul\":18732:18735   */\n      dup4\n        /* \"#utility.yul\":18673:18740   */\n      tag_241\n      jump\t// in\n    tag_491:\n        /* \"#utility.yul\":18666:18740   */\n      swap2\n      pop\n        /* \"#utility.yul\":18749:18842   */\n      tag_492\n        /* \"#utility.yul\":18838:18841   */\n      dup3\n        /* \"#utility.yul\":18749:18842   */\n      tag_280\n      jump\t// in\n    tag_492:\n        /* \"#utility.yul\":18867:18869   */\n      0x20\n        /* \"#utility.yul\":18862:18865   */\n      dup3\n        /* \"#utility.yul\":18858:18870   */\n      add\n        /* \"#utility.yul\":18851:18870   */\n      swap1\n      pop\n        /* \"#utility.yul\":18510:18876   */\n      swap2\n      swap1\n      pop\n      jump\t// out\n        /* \"#utility.yul\":18882:19301   */\n    tag_146:\n        /* \"#utility.yul\":19048:19052   */\n      0x00\n        /* \"#utility.yul\":19086:19088   */\n      0x20\n        /* \"#utility.yul\":19075:19084   */\n      dup3\n        /* \"#utility.yul\":19071:19089   */\n      add\n        /* \"#utility.yul\":19063:19089   */\n      swap1\n      pop\n        /* \"#utility.yul\":19135:19144   */\n      dup2\n        /* \"#utility.yul\":19129:19133   */\n      dup2\n        /* \"#utility.yul\":19125:19145   */\n      sub\n        /* \"#utility.yul\":19121:19122   */\n      0x00\n        /* \"#utility.yul\":19110:19119   */\n      dup4\n        /* \"#utility.yul\":19106:19123   */\n      add\n        /* \"#utility.yul\":19099:19146   */\n      mstore\n        /* \"#utility.yul\":19163:19294   */\n      tag_494\n        /* \"#utility.yul\":19289:19293   */\n      dup2\n        /* \"#utility.yul\":19163:19294   */\n      tag_281\n      jump\t// in\n    tag_494:\n        /* \"#utility.yul\":19155:19294   */\n      swap1\n      pop\n        /* \"#utility.yul\":18882:19301   */\n      swap2\n      swap1\n      pop\n      jump\t// out\n        /* \"#utility.yul\":19307:19717   */\n    tag_149:\n        /* \"#utility.yul\":19347:19354   */\n      0x00\n        /* \"#utility.yul\":19370:19390   */\n      tag_496\n        /* \"#utility.yul\":19388:19389   */\n      dup3\n        /* \"#utility.yul\":19370:19390   */\n      tag_236\n      jump\t// in\n    tag_496:\n        /* \"#utility.yul\":19365:19390   */\n      swap2\n      pop\n        /* \"#utility.yul\":19404:19424   */\n      tag_497\n        /* \"#utility.yul\":19422:19423   */\n      dup4\n        /* \"#utility.yul\":19404:19424   */\n      tag_236\n      jump\t// in\n    tag_497:\n        /* \"#utility.yul\":19399:19424   */\n      swap3\n      pop\n        /* \"#utility.yul\":19459:19460   */\n      dup3\n        /* \"#utility.yul\":19456:19457   */\n      dup3\n        /* \"#utility.yul\":19452:19461   */\n      mul\n        /* \"#utility.yul\":19481:19511   */\n      tag_498\n        /* \"#utility.yul\":19499:19510   */\n      dup2\n        /* \"#utility.yul\":19481:19511   */\n      tag_236\n      jump\t// in\n    tag_498:\n        /* \"#utility.yul\":19470:19511   */\n      swap2\n      pop\n        /* \"#utility.yul\":19660:19661   */\n      dup3\n        /* \"#utility.yul\":19651:19658   */\n      dup3\n        /* \"#utility.yul\":19647:19662   */\n      div\n        /* \"#utility.yul\":19644:19645   */\n      dup5\n        /* \"#utility.yul\":19641:19663   */\n      eq\n        /* \"#utility.yul\":19621:19622   */\n      dup4\n        /* \"#utility.yul\":19614:19623   */\n      iszero\n        /* \"#utility.yul\":19594:19677   */\n      or\n        /* \"#utility.yul\":19571:19710   */\n      tag_499\n      jumpi\n        /* \"#utility.yul\":19690:19708   */\n      tag_500\n      tag_279\n      jump\t// in\n    tag_500:\n        /* \"#utility.yul\":19571:19710   */\n    tag_499:\n        /* \"#utility.yul\":19355:19717   */\n      pop\n        /* \"#utility.yul\":19307:19717   */\n      swap3\n      swap2\n      pop\n      pop\n      jump\t// out\n        /* \"#utility.yul\":19723:19903   */\n    tag_282:\n        /* \"#utility.yul\":19771:19848   */\n      0x4e487b7100000000000000000000000000000000000000000000000000000000\n        /* \"#utility.yul\":19768:19769   */\n      0x00\n        /* \"#utility.yul\":19761:19849   */\n      mstore\n        /* \"#utility.yul\":19868:19872   */\n      0x12\n        /* \"#utility.yul\":19865:19866   */\n      0x04\n        /* \"#utility.yul\":19858:19873   */\n      mstore\n        /* \"#utility.yul\":19892:19896   */\n      0x24\n        /* \"#utility.yul\":19889:19890   */\n      0x00\n        /* \"#utility.yul\":19882:19897   */\n      revert\n        /* \"#utility.yul\":19909:20094   */\n    tag_151:\n        /* \"#utility.yul\":19949:19950   */\n      0x00\n        /* \"#utility.yul\":19966:19986   */\n      tag_503\n        /* \"#utility.yul\":19984:19985   */\n      dup3\n        /* \"#utility.yul\":19966:19986   */\n      tag_236\n      jump\t// in\n    tag_503:\n        /* \"#utility.yul\":19961:19986   */\n      swap2\n      pop\n        /* \"#utility.yul\":20000:20020   */\n      tag_504\n        /* \"#utility.yul\":20018:20019   */\n      dup4\n        /* \"#utility.yul\":20000:20020   */\n      tag_236\n      jump\t// in\n    tag_504:\n        /* \"#utility.yul\":19995:20020   */\n      swap3\n      pop\n        /* \"#utility.yul\":20039:20040   */\n      dup3\n        /* \"#utility.yul\":20029:20064   */\n      tag_505\n      jumpi\n        /* \"#utility.yul\":20044:20062   */\n      tag_506\n      tag_282\n      jump\t// in\n    tag_506:\n        /* \"#utility.yul\":20029:20064   */\n    tag_505:\n        /* \"#utility.yul\":20086:20087   */\n      dup3\n        /* \"#utility.yul\":20083:20084   */\n      dup3\n        /* \"#utility.yul\":20079:20088   */\n      div\n        /* \"#utility.yul\":20074:20088   */\n      swap1\n      pop\n        /* \"#utility.yul\":19909:20094   */\n      swap3\n      swap2\n      pop\n      pop\n      jump\t// out\n        /* \"#utility.yul\":20100:20275   */\n    tag_283:\n        /* \"#utility.yul\":20240:20267   */\n      0x4d616a6f7269747920646f6573206e6f7420737570706f727400000000000000\n        /* \"#utility.yul\":20236:20237   */\n      0x00\n        /* \"#utility.yul\":20228:20234   */\n      dup3\n        /* \"#utility.yul\":20224:20238   */\n      add\n        /* \"#utility.yul\":20217:20268   */\n      mstore\n        /* \"#utility.yul\":20100:20275   */\n      pop\n      jump\t// out\n        /* \"#utility.yul\":20281:20647   */\n    tag_284:\n        /* \"#utility.yul\":20423:20426   */\n      0x00\n        /* \"#utility.yul\":20444:20511   */\n      tag_509\n        /* \"#utility.yul\":20508:20510   */\n      0x19\n        /* \"#utility.yul\":20503:20506   */\n      dup4\n        /* \"#utility.yul\":20444:20511   */\n      tag_241\n      jump\t// in\n    tag_509:\n        /* \"#utility.yul\":20437:20511   */\n      swap2\n      pop\n        /* \"#utility.yul\":20520:20613   */\n      tag_510\n        /* \"#utility.yul\":20609:20612   */\n      dup3\n        /* \"#utility.yul\":20520:20613   */\n      tag_283\n      jump\t// in\n    tag_510:\n        /* \"#utility.yul\":20638:20640   */\n      0x20\n        /* \"#utility.yul\":20633:20636   */\n      dup3\n        /* \"#utility.yul\":20629:20641   */\n      add\n        /* \"#utility.yul\":20622:20641   */\n      swap1\n      pop\n        /* \"#utility.yul\":20281:20647   */\n      swap2\n      swap1\n      pop\n      jump\t// out\n        /* \"#utility.yul\":20653:21072   */\n    tag_154:\n        /* \"#utility.yul\":20819:20823   */\n      0x00\n        /* \"#utility.yul\":20857:20859   */\n      0x20\n        /* \"#utility.yul\":20846:20855   */\n      dup3\n        /* \"#utility.yul\":20842:20860   */\n      add\n        /* \"#utility.yul\":20834:20860   */\n      swap1\n      pop\n        /* \"#utility.yul\":20906:20915   */\n      dup2\n        /* \"#utility.yul\":20900:20904   */\n      dup2\n        /* \"#utility.yul\":20896:20916   */\n      sub\n        /* \"#utility.yul\":20892:20893   */\n      0x00\n        /* \"#utility.yul\":20881:20890   */\n      dup4\n        /* \"#utility.yul\":20877:20894   */\n      add\n        /* \"#utility.yul\":20870:20917   */\n      mstore\n        /* \"#utility.yul\":20934:21065   */\n      tag_512\n        /* \"#utility.yul\":21060:21064   */\n      dup2\n        /* \"#utility.yul\":20934:21065   */\n      tag_284\n      jump\t// in\n    tag_512:\n        /* \"#utility.yul\":20926:21065   */\n      swap1\n      pop\n        /* \"#utility.yul\":20653:21072   */\n      swap2\n      swap1\n      pop\n      jump\t// out\n        /* \"#utility.yul\":21078:21251   */\n    tag_285:\n        /* \"#utility.yul\":21218:21243   */\n      0x436f6e747269627574696f6e2074696d6520656e646564000000000000000000\n        /* \"#utility.yul\":21214:21215   */\n      0x00\n        /* \"#utility.yul\":21206:21212   */\n      dup3\n        /* \"#utility.yul\":21202:21216   */\n      add\n        /* \"#utility.yul\":21195:21244   */\n      mstore\n        /* \"#utility.yul\":21078:21251   */\n      pop\n      jump\t// out\n        /* \"#utility.yul\":21257:21623   */\n    tag_286:\n        /* \"#utility.yul\":21399:21402   */\n      0x00\n        /* \"#utility.yul\":21420:21487   */\n      tag_515\n        /* \"#utility.yul\":21484:21486   */\n      0x17\n        /* \"#utility.yul\":21479:21482   */\n      dup4\n        /* \"#utility.yul\":21420:21487   */\n      tag_241\n      jump\t// in\n    tag_515:\n        /* \"#utility.yul\":21413:21487   */\n      swap2\n      pop\n        /* \"#utility.yul\":21496:21589   */\n      tag_516\n        /* \"#utility.yul\":21585:21588   */\n      dup3\n        /* \"#utility.yul\":21496:21589   */\n      tag_285\n      jump\t// in\n    tag_516:\n        /* \"#utility.yul\":21614:21616   */\n      0x20\n        /* \"#utility.yul\":21609:21612   */\n      dup3\n        /* \"#utility.yul\":21605:21617   */\n      add\n        /* \"#utility.yul\":21598:21617   */\n      swap1\n      pop\n        /* \"#utility.yul\":21257:21623   */\n      swap2\n      swap1\n      pop\n      jump\t// out\n        /* \"#utility.yul\":21629:22048   */\n    tag_165:\n        /* \"#utility.yul\":21795:21799   */\n      0x00\n        /* \"#utility.yul\":21833:21835   */\n      0x20\n        /* \"#utility.yul\":21822:21831   */\n      dup3\n        /* \"#utility.yul\":21818:21836   */\n      add\n        /* \"#utility.yul\":21810:21836   */\n      swap1\n      pop\n        /* \"#utility.yul\":21882:21891   */\n      dup2\n        /* \"#utility.yul\":21876:21880   */\n      dup2\n        /* \"#utility.yul\":21872:21892   */\n      sub\n        /* \"#utility.yul\":21868:21869   */\n      0x00\n        /* \"#utility.yul\":21857:21866   */\n      dup4\n        /* \"#utility.yul\":21853:21870   */\n      add\n        /* \"#utility.yul\":21846:21893   */\n      mstore\n        /* \"#utility.yul\":21910:22041   */\n      tag_518\n        /* \"#utility.yul\":22036:22040   */\n      dup2\n        /* \"#utility.yul\":21910:22041   */\n      tag_286\n      jump\t// in\n    tag_518:\n        /* \"#utility.yul\":21902:22041   */\n      swap1\n      pop\n        /* \"#utility.yul\":21629:22048   */\n      swap2\n      swap1\n      pop\n      jump\t// out\n        /* \"#utility.yul\":22054:22227   */\n    tag_287:\n        /* \"#utility.yul\":22194:22219   */\n      0x53656e64206d6f7265207468616e203020206574686572000000000000000000\n        /* \"#utility.yul\":22190:22191   */\n      0x00\n        /* \"#utility.yul\":22182:22188   */\n      dup3\n        /* \"#utility.yul\":22178:22192   */\n      add\n        /* \"#utility.yul\":22171:22220   */\n      mstore\n        /* \"#utility.yul\":22054:22227   */\n      pop\n      jump\t// out\n        /* \"#utility.yul\":22233:22599   */\n    tag_288:\n        /* \"#utility.yul\":22375:22378   */\n      0x00\n        /* \"#utility.yul\":22396:22463   */\n      tag_521\n        /* \"#utility.yul\":22460:22462   */\n      0x17\n        /* \"#utility.yul\":22455:22458   */\n      dup4\n        /* \"#utility.yul\":22396:22463   */\n      tag_241\n      jump\t// in\n    tag_521:\n        /* \"#utility.yul\":22389:22463   */\n      swap2\n      pop\n        /* \"#utility.yul\":22472:22565   */\n      tag_522\n        /* \"#utility.yul\":22561:22564   */\n      dup3\n        /* \"#utility.yul\":22472:22565   */\n      tag_287\n      jump\t// in\n    tag_522:\n        /* \"#utility.yul\":22590:22592   */\n      0x20\n        /* \"#utility.yul\":22585:22588   */\n      dup3\n        /* \"#utility.yul\":22581:22593   */\n      add\n        /* \"#utility.yul\":22574:22593   */\n      swap1\n      pop\n        /* \"#utility.yul\":22233:22599   */\n      swap2\n      swap1\n      pop\n      jump\t// out\n        /* \"#utility.yul\":22605:23024   */\n    tag_168:\n        /* \"#utility.yul\":22771:22775   */\n      0x00\n        /* \"#utility.yul\":22809:22811   */\n      0x20\n        /* \"#utility.yul\":22798:22807   */\n      dup3\n        /* \"#utility.yul\":22794:22812   */\n      add\n        /* \"#utility.yul\":22786:22812   */\n      swap1\n      pop\n        /* \"#utility.yul\":22858:22867   */\n      dup2\n        /* \"#utility.yul\":22852:22856   */\n      dup2\n        /* \"#utility.yul\":22848:22868   */\n      sub\n        /* \"#utility.yul\":22844:22845   */\n      0x00\n        /* \"#utility.yul\":22833:22842   */\n      dup4\n        /* \"#utility.yul\":22829:22846   */\n      add\n        /* \"#utility.yul\":22822:22869   */\n      mstore\n        /* \"#utility.yul\":22886:23017   */\n      tag_524\n        /* \"#utility.yul\":23012:23016   */\n      dup2\n        /* \"#utility.yul\":22886:23017   */\n      tag_288\n      jump\t// in\n    tag_524:\n        /* \"#utility.yul\":22878:23017   */\n      swap1\n      pop\n        /* \"#utility.yul\":22605:23024   */\n      swap2\n      swap1\n      pop\n      jump\t// out\n        /* \"#utility.yul\":23030:23196   */\n    tag_289:\n        /* \"#utility.yul\":23170:23188   */\n      0x4e6f7420656e6f7567682066756e647300000000000000000000000000000000\n        /* \"#utility.yul\":23166:23167   */\n      0x00\n        /* \"#utility.yul\":23158:23164   */\n      dup3\n        /* \"#utility.yul\":23154:23168   */\n      add\n        /* \"#utility.yul\":23147:23189   */\n      mstore\n        /* \"#utility.yul\":23030:23196   */\n      pop\n      jump\t// out\n        /* \"#utility.yul\":23202:23568   */\n    tag_290:\n        /* \"#utility.yul\":23344:23347   */\n      0x00\n        /* \"#utility.yul\":23365:23432   */\n      tag_527\n        /* \"#utility.yul\":23429:23431   */\n      0x10\n        /* \"#utility.yul\":23424:23427   */\n      dup4\n        /* \"#utility.yul\":23365:23432   */\n      tag_241\n      jump\t// in\n    tag_527:\n        /* \"#utility.yul\":23358:23432   */\n      swap2\n      pop\n        /* \"#utility.yul\":23441:23534   */\n      tag_528\n        /* \"#utility.yul\":23530:23533   */\n      dup3\n        /* \"#utility.yul\":23441:23534   */\n      tag_289\n      jump\t// in\n    tag_528:\n        /* \"#utility.yul\":23559:23561   */\n      0x20\n        /* \"#utility.yul\":23554:23557   */\n      dup3\n        /* \"#utility.yul\":23550:23562   */\n      add\n        /* \"#utility.yul\":23543:23562   */\n      swap1\n      pop\n        /* \"#utility.yul\":23202:23568   */\n      swap2\n      swap1\n      pop\n      jump\t// out\n        /* \"#utility.yul\":23574:23993   */\n    tag_179:\n        /* \"#utility.yul\":23740:23744   */\n      0x00\n        /* \"#utility.yul\":23778:23780   */\n      0x20\n        /* \"#utility.yul\":23767:23776   */\n      dup3\n        /* \"#utility.yul\":23763:23781   */\n      add\n        /* \"#utility.yul\":23755:23781   */\n      swap1\n      pop\n        /* \"#utility.yul\":23827:23836   */\n      dup2\n        /* \"#utility.yul\":23821:23825   */\n      dup2\n        /* \"#utility.yul\":23817:23837   */\n      sub\n        /* \"#utility.yul\":23813:23814   */\n      0x00\n        /* \"#utility.yul\":23802:23811   */\n      dup4\n        /* \"#utility.yul\":23798:23815   */\n      add\n        /* \"#utility.yul\":23791:23838   */\n      mstore\n        /* \"#utility.yul\":23855:23986   */\n      tag_530\n        /* \"#utility.yul\":23981:23985   */\n      dup2\n        /* \"#utility.yul\":23855:23986   */\n      tag_290\n      jump\t// in\n    tag_530:\n        /* \"#utility.yul\":23847:23986   */\n      swap1\n      pop\n        /* \"#utility.yul\":23574:23993   */\n      swap2\n      swap1\n      pop\n      jump\t// out\n        /* \"#utility.yul\":23999:24179   */\n    tag_189:\n        /* \"#utility.yul\":24047:24124   */\n      0x4e487b7100000000000000000000000000000000000000000000000000000000\n        /* \"#utility.yul\":24044:24045   */\n      0x00\n        /* \"#utility.yul\":24037:24125   */\n      mstore\n        /* \"#utility.yul\":24144:24148   */\n      0x41\n        /* \"#utility.yul\":24141:24142   */\n      0x04\n        /* \"#utility.yul\":24134:24149   */\n      mstore\n        /* \"#utility.yul\":24168:24172   */\n      0x24\n        /* \"#utility.yul\":24165:24166   */\n      0x00\n        /* \"#utility.yul\":24158:24173   */\n      revert\n        /* \"#utility.yul\":24185:24326   */\n    tag_291:\n        /* \"#utility.yul\":24234:24238   */\n      0x00\n        /* \"#utility.yul\":24257:24260   */\n      dup2\n        /* \"#utility.yul\":24249:24260   */\n      swap1\n      pop\n        /* \"#utility.yul\":24280:24283   */\n      dup2\n        /* \"#utility.yul\":24277:24278   */\n      0x00\n        /* \"#utility.yul\":24270:24284   */\n      mstore\n        /* \"#utility.yul\":24314:24318   */\n      0x20\n        /* \"#utility.yul\":24311:24312   */\n      0x00\n        /* \"#utility.yul\":24301:24319   */\n      keccak256\n        /* \"#utility.yul\":24293:24319   */\n      swap1\n      pop\n        /* \"#utility.yul\":24185:24326   */\n      swap2\n      swap1\n      pop\n      jump\t// out\n        /* \"#utility.yul\":24332:24425   */\n    tag_292:\n        /* \"#utility.yul\":24369:24375   */\n      0x00\n        /* \"#utility.yul\":24416:24418   */\n      0x20\n        /* \"#utility.yul\":24411:24413   */\n      0x1f\n        /* \"#utility.yul\":24404:24409   */\n      dup4\n        /* \"#utility.yul\":24400:24414   */\n      add\n        /* \"#utility.yul\":24396:24419   */\n      div\n        /* \"#utility.yul\":24386:24419   */\n      swap1\n      pop\n        /* \"#utility.yul\":24332:24425   */\n      swap2\n      swap1\n      pop\n      jump\t// out\n        /* \"#utility.yul\":24431:24538   */\n    tag_293:\n        /* \"#utility.yul\":24475:24483   */\n      0x00\n        /* \"#utility.yul\":24525:24530   */\n      dup3\n        /* \"#utility.yul\":24519:24523   */\n      dup3\n        /* \"#utility.yul\":24515:24531   */\n      shl\n        /* \"#utility.yul\":24494:24531   */\n      swap1\n      pop\n        /* \"#utility.yul\":24431:24538   */\n      swap3\n      swap2\n      pop\n      pop\n      jump\t// out\n        /* \"#utility.yul\":24544:24937   */\n    tag_294:\n        /* \"#utility.yul\":24613:24619   */\n      0x00\n        /* \"#utility.yul\":24663:24664   */\n      0x08\n        /* \"#utility.yul\":24651:24661   */\n      dup4\n        /* \"#utility.yul\":24647:24665   */\n      mul\n        /* \"#utility.yul\":24686:24783   */\n      tag_536\n        /* \"#utility.yul\":24716:24782   */\n      0xffffffffffffffffffffffffffffffffffffffffffffffffffffffffffffffff\n        /* \"#utility.yul\":24705:24714   */\n      dup3\n        /* \"#utility.yul\":24686:24783   */\n      tag_293\n      jump\t// in\n    tag_536:\n        /* \"#utility.yul\":24804:24843   */\n      tag_537\n        /* \"#utility.yul\":24834:24842   */\n      dup7\n        /* \"#utility.yul\":24823:24832   */\n      dup4\n        /* \"#utility.yul\":24804:24843   */\n      tag_293\n      jump\t// in\n    tag_537:\n        /* \"#utility.yul\":24792:24843   */\n      swap6\n      pop\n        /* \"#utility.yul\":24876:24880   */\n      dup1\n        /* \"#utility.yul\":24872:24881   */\n      not\n        /* \"#utility.yul\":24865:24870   */\n      dup5\n        /* \"#utility.yul\":24861:24882   */\n      and\n        /* \"#utility.yul\":24852:24882   */\n      swap4\n      pop\n        /* \"#utility.yul\":24925:24929   */\n      dup1\n        /* \"#utility.yul\":24915:24923   */\n      dup7\n        /* \"#utility.yul\":24911:24930   */\n      and\n        /* \"#utility.yul\":24904:24909   */\n      dup5\n        /* \"#utility.yul\":24901:24931   */\n      or\n        /* \"#utility.yul\":24891:24931   */\n      swap3\n      pop\n        /* \"#utility.yul\":24620:24937   */\n      pop\n      pop\n        /* \"#utility.yul\":24544:24937   */\n      swap4\n      swap3\n      pop\n      pop\n      pop\n      jump\t// out\n        /* \"#utility.yul\":24943:25003   */\n    tag_295:\n        /* \"#utility.yul\":24971:24974   */\n      0x00\n        /* \"#utility.yul\":24992:24997   */\n      dup2\n        /* \"#utility.yul\":24985:24997   */\n      swap1\n      pop\n        /* \"#utility.yul\":24943:25003   */\n      swap2\n      swap1\n      pop\n      jump\t// out\n        /* \"#utility.yul\":25009:25151   */\n    tag_296:\n        /* \"#utility.yul\":25059:25068   */\n      0x00\n        /* \"#utility.yul\":25092:25145   */\n      tag_540\n        /* \"#utility.yul\":25110:25144   */\n      tag_541\n        /* \"#utility.yul\":25119:25143   */\n      tag_542\n        /* \"#utility.yul\":25137:25142   */\n      dup5\n        /* \"#utility.yul\":25119:25143   */\n      tag_236\n      jump\t// in\n    tag_542:\n        /* \"#utility.yul\":25110:25144   */\n      tag_295\n      jump\t// in\n    tag_541:\n        /* \"#utility.yul\":25092:25145   */\n      tag_236\n      jump\t// in\n    tag_540:\n        /* \"#utility.yul\":25079:25145   */\n      swap1\n      pop\n        /* \"#utility.yul\":25009:25151   */\n      swap2\n      swap1\n      pop\n      jump\t// out\n        /* \"#utility.yul\":25157:25232   */\n    tag_297:\n        /* \"#utility.yul\":25200:25203   */\n      0x00\n        /* \"#utility.yul\":25221:25226   */\n      dup2\n        /* \"#utility.yul\":25214:25226   */\n      swap1\n      pop\n        /* \"#utility.yul\":25157:25232   */\n      swap2\n      swap1\n      pop\n      jump\t// out\n        /* \"#utility.yul\":25238:25507   */\n    tag_298:\n        /* \"#utility.yul\":25348:25387   */\n      tag_545\n        /* \"#utility.yul\":25379:25386   */\n      dup4\n        /* \"#utility.yul\":25348:25387   */\n      tag_296\n      jump\t// in\n    tag_545:\n        /* \"#utility.yul\":25409:25500   */\n      tag_546\n        /* \"#utility.yul\":25458:25499   */\n      tag_547\n        /* \"#utility.yul\":25482:25498   */\n      dup3\n        /* \"#utility.yul\":25458:25499   */\n      tag_297\n      jump\t// in\n    tag_547:\n        /* \"#utility.yul\":25450:25456   */\n      dup5\n        /* \"#utility.yul\":25443:25447   */\n      dup5\n        /* \"#utility.yul\":25437:25448   */\n      sload\n        /* \"#utility.yul\":25409:25500   */\n      tag_294\n      jump\t// in\n    tag_546:\n        /* \"#utility.yul\":25403:25407   */\n      dup3\n        /* \"#utility.yul\":25396:25501   */\n      sstore\n        /* \"#utility.yul\":25314:25507   */\n      pop\n        /* \"#utility.yul\":25238:25507   */\n      pop\n      pop\n      pop\n      jump\t// out\n        /* \"#utility.yul\":25513:25586   */\n    tag_299:\n        /* \"#utility.yul\":25558:25561   */\n      0x00\n        /* \"#utility.yul\":25513:25586   */\n      swap1\n      jump\t// out\n        /* \"#utility.yul\":25592:25781   */\n    tag_300:\n        /* \"#utility.yul\":25669:25701   */\n      tag_550\n      tag_299\n      jump\t// in\n    tag_550:\n        /* \"#utility.yul\":25710:25775   */\n      tag_551\n        /* \"#utility.yul\":25768:25774   */\n      dup2\n        /* \"#utility.yul\":25760:25766   */\n      dup5\n        /* \"#utility.yul\":25754:25758   */\n      dup5\n        /* \"#utility.yul\":25710:25775   */\n      tag_298\n      jump\t// in\n    tag_551:\n        /* \"#utility.yul\":25645:25781   */\n      pop\n        /* \"#utility.yul\":25592:25781   */\n      pop\n      pop\n      jump\t// out\n        /* \"#utility.yul\":25787:25973   */\n    tag_301:\n        /* \"#utility.yul\":25847:25967   */\n    tag_553:\n        /* \"#utility.yul\":25864:25867   */\n      dup2\n        /* \"#utility.yul\":25857:25862   */\n      dup2\n        /* \"#utility.yul\":25854:25868   */\n      lt\n        /* \"#utility.yul\":25847:25967   */\n      iszero\n      tag_555\n      jumpi\n        /* \"#utility.yul\":25918:25957   */\n      tag_556\n        /* \"#utility.yul\":25955:25956   */\n      0x00\n        /* \"#utility.yul\":25948:25953   */\n      dup3\n        /* \"#utility.yul\":25918:25957   */\n      tag_300\n      jump\t// in\n    tag_556:\n        /* \"#utility.yul\":25891:25892   */\n      0x01\n        /* \"#utility.yul\":25884:25889   */\n      dup2\n        /* \"#utility.yul\":25880:25893   */\n      add\n        /* \"#utility.yul\":25871:25893   */\n      swap1\n      pop\n        /* \"#utility.yul\":25847:25967   */\n      jump(tag_553)\n    tag_555:\n        /* \"#utility.yul\":25787:25973   */\n      pop\n      pop\n      jump\t// out\n        /* \"#utility.yul\":25979:26522   */\n    tag_302:\n        /* \"#utility.yul\":26080:26082   */\n      0x1f\n        /* \"#utility.yul\":26075:26078   */\n      dup3\n        /* \"#utility.yul\":26072:26083   */\n      gt\n        /* \"#utility.yul\":26069:26515   */\n      iszero\n      tag_558\n      jumpi\n        /* \"#utility.yul\":26114:26152   */\n      tag_559\n        /* \"#utility.yul\":26146:26151   */\n      dup2\n        /* \"#utility.yul\":26114:26152   */\n      tag_291\n      jump\t// in\n    tag_559:\n        /* \"#utility.yul\":26198:26227   */\n      tag_560\n        /* \"#utility.yul\":26216:26226   */\n      dup5\n        /* \"#utility.yul\":26198:26227   */\n      tag_292\n      jump\t// in\n    tag_560:\n        /* \"#utility.yul\":26188:26196   */\n      dup2\n        /* \"#utility.yul\":26184:26228   */\n      add\n        /* \"#utility.yul\":26381:26383   */\n      0x20\n        /* \"#utility.yul\":26369:26379   */\n      dup6\n        /* \"#utility.yul\":26366:26384   */\n      lt\n        /* \"#utility.yul\":26363:26412   */\n      iszero\n      tag_561\n      jumpi\n        /* \"#utility.yul\":26402:26410   */\n      dup2\n        /* \"#utility.yul\":26387:26410   */\n      swap1\n      pop\n        /* \"#utility.yul\":26363:26412   */\n    tag_561:\n        /* \"#utility.yul\":26425:26505   */\n      tag_562\n        /* \"#utility.yul\":26481:26503   */\n      tag_563\n        /* \"#utility.yul\":26499:26502   */\n      dup6\n        /* \"#utility.yul\":26481:26503   */\n      tag_292\n      jump\t// in\n    tag_563:\n        /* \"#utility.yul\":26471:26479   */\n      dup4\n        /* \"#utility.yul\":26467:26504   */\n      add\n        /* \"#utility.yul\":26454:26465   */\n      dup3\n        /* \"#utility.yul\":26425:26505   */\n      tag_301\n      jump\t// in\n    tag_562:\n        /* \"#utility.yul\":26084:26515   */\n      pop\n      pop\n        /* \"#utility.yul\":26069:26515   */\n    tag_558:\n        /* \"#utility.yul\":25979:26522   */\n      pop\n      pop\n      pop\n      jump\t// out\n        /* \"#utility.yul\":26528:26645   */\n    tag_303:\n        /* \"#utility.yul\":26582:26590   */\n      0x00\n        /* \"#utility.yul\":26632:26637   */\n      dup3\n        /* \"#utility.yul\":26626:26630   */\n      dup3\n        /* \"#utility.yul\":26622:26638   */\n      shr\n        /* \"#utility.yul\":26601:26638   */\n      swap1\n      pop\n        /* \"#utility.yul\":26528:26645   */\n      swap3\n      swap2\n      pop\n      pop\n      jump\t// out\n        /* \"#utility.yul\":26651:26820   */\n    tag_304:\n        /* \"#utility.yul\":26695:26701   */\n      0x00\n        /* \"#utility.yul\":26728:26779   */\n      tag_566\n        /* \"#utility.yul\":26776:26777   */\n      0x00\n        /* \"#utility.yul\":26772:26778   */\n      not\n        /* \"#utility.yul\":26764:26769   */\n      dup5\n        /* \"#utility.yul\":26761:26762   */\n      0x08\n        /* \"#utility.yul\":26757:26770   */\n      mul\n        /* \"#utility.yul\":26728:26779   */\n      tag_303\n      jump\t// in\n    tag_566:\n        /* \"#utility.yul\":26724:26780   */\n      not\n        /* \"#utility.yul\":26809:26813   */\n      dup1\n        /* \"#utility.yul\":26803:26807   */\n      dup4\n        /* \"#utility.yul\":26799:26814   */\n      and\n        /* \"#utility.yul\":26789:26814   */\n      swap2\n      pop\n        /* \"#utility.yul\":26702:26820   */\n      pop\n        /* \"#utility.yul\":26651:26820   */\n      swap3\n      swap2\n      pop\n      pop\n      jump\t// out\n        /* \"#utility.yul\":26825:27120   */\n    tag_305:\n        /* \"#utility.yul\":26901:26905   */\n      0x00\n        /* \"#utility.yul\":27047:27076   */\n      tag_568\n        /* \"#utility.yul\":27072:27075   */\n      dup4\n        /* \"#utility.yul\":27066:27070   */\n      dup4\n        /* \"#utility.yul\":27047:27076   */\n      tag_304\n      jump\t// in\n    tag_568:\n        /* \"#utility.yul\":27039:27076   */\n      swap2\n      pop\n        /* \"#utility.yul\":27109:27112   */\n      dup3\n        /* \"#utility.yul\":27106:27107   */\n      0x02\n        /* \"#utility.yul\":27102:27113   */\n      mul\n        /* \"#utility.yul\":27096:27100   */\n      dup3\n        /* \"#utility.yul\":27093:27114   */\n      or\n        /* \"#utility.yul\":27085:27114   */\n      swap1\n      pop\n        /* \"#utility.yul\":26825:27120   */\n      swap3\n      swap2\n      pop\n      pop\n      jump\t// out\n        /* \"#utility.yul\":27125:28520   */\n    tag_182:\n        /* \"#utility.yul\":27242:27279   */\n      tag_570\n        /* \"#utility.yul\":27275:27278   */\n      dup3\n        /* \"#utility.yul\":27242:27279   */\n      tag_240\n      jump\t// in\n    tag_570:\n        /* \"#utility.yul\":27344:27362   */\n      0xffffffffffffffff\n        /* \"#utility.yul\":27336:27342   */\n      dup2\n        /* \"#utility.yul\":27333:27363   */\n      gt\n        /* \"#utility.yul\":27330:27386   */\n      iszero\n      tag_571\n      jumpi\n        /* \"#utility.yul\":27366:27384   */\n      tag_572\n      tag_189\n      jump\t// in\n    tag_572:\n        /* \"#utility.yul\":27330:27386   */\n    tag_571:\n        /* \"#utility.yul\":27410:27448   */\n      tag_573\n        /* \"#utility.yul\":27442:27446   */\n      dup3\n        /* \"#utility.yul\":27436:27447   */\n      sload\n        /* \"#utility.yul\":27410:27448   */\n      tag_121\n      jump\t// in\n    tag_573:\n        /* \"#utility.yul\":27495:27562   */\n      tag_574\n        /* \"#utility.yul\":27555:27561   */\n      dup3\n        /* \"#utility.yul\":27547:27553   */\n      dup3\n        /* \"#utility.yul\":27541:27545   */\n      dup6\n        /* \"#utility.yul\":27495:27562   */\n      tag_302\n      jump\t// in\n    tag_574:\n        /* \"#utility.yul\":27589:27590   */\n      0x00\n        /* \"#utility.yul\":27613:27617   */\n      0x20\n        /* \"#utility.yul\":27600:27617   */\n      swap1\n      pop\n        /* \"#utility.yul\":27645:27647   */\n      0x1f\n        /* \"#utility.yul\":27637:27643   */\n      dup4\n        /* \"#utility.yul\":27634:27648   */\n      gt\n        /* \"#utility.yul\":27662:27663   */\n      0x01\n        /* \"#utility.yul\":27657:28275   */\n      dup2\n      eq\n      tag_576\n      jumpi\n        /* \"#utility.yul\":28319:28320   */\n      0x00\n        /* \"#utility.yul\":28336:28342   */\n      dup5\n        /* \"#utility.yul\":28333:28410   */\n      iszero\n      tag_577\n      jumpi\n        /* \"#utility.yul\":28385:28394   */\n      dup3\n        /* \"#utility.yul\":28380:28383   */\n      dup8\n        /* \"#utility.yul\":28376:28395   */\n      add\n        /* \"#utility.yul\":28370:28396   */\n      mload\n        /* \"#utility.yul\":28361:28396   */\n      swap1\n      pop\n        /* \"#utility.yul\":28333:28410   */\n    tag_577:\n        /* \"#utility.yul\":28436:28503   */\n      tag_578\n        /* \"#utility.yul\":28496:28502   */\n      dup6\n        /* \"#utility.yul\":28489:28494   */\n      dup3\n        /* \"#utility.yul\":28436:28503   */\n      tag_305\n      jump\t// in\n    tag_578:\n        /* \"#utility.yul\":28430:28434   */\n      dup7\n        /* \"#utility.yul\":28423:28504   */\n      sstore\n        /* \"#utility.yul\":28292:28514   */\n      pop\n        /* \"#utility.yul\":27627:28514   */\n      jump(tag_575)\n        /* \"#utility.yul\":27657:28275   */\n    tag_576:\n        /* \"#utility.yul\":27709:27713   */\n      0x1f\n        /* \"#utility.yul\":27705:27714   */\n      not\n        /* \"#utility.yul\":27697:27703   */\n      dup5\n        /* \"#utility.yul\":27693:27715   */\n      and\n        /* \"#utility.yul\":27743:27780   */\n      tag_579\n        /* \"#utility.yul\":27775:27779   */\n      dup7\n        /* \"#utility.yul\":27743:27780   */\n      tag_291\n      jump\t// in\n    tag_579:\n        /* \"#utility.yul\":27802:27803   */\n      0x00\n        /* \"#utility.yul\":27816:28024   */\n    tag_580:\n        /* \"#utility.yul\":27830:27837   */\n      dup3\n        /* \"#utility.yul\":27827:27828   */\n      dup2\n        /* \"#utility.yul\":27824:27838   */\n      lt\n        /* \"#utility.yul\":27816:28024   */\n      iszero\n      tag_582\n      jumpi\n        /* \"#utility.yul\":27909:27918   */\n      dup5\n        /* \"#utility.yul\":27904:27907   */\n      dup10\n        /* \"#utility.yul\":27900:27919   */\n      add\n        /* \"#utility.yul\":27894:27920   */\n      mload\n        /* \"#utility.yul\":27886:27892   */\n      dup3\n        /* \"#utility.yul\":27879:27921   */\n      sstore\n        /* \"#utility.yul\":27960:27961   */\n      0x01\n        /* \"#utility.yul\":27952:27958   */\n      dup3\n        /* \"#utility.yul\":27948:27962   */\n      add\n        /* \"#utility.yul\":27938:27962   */\n      swap2\n      pop\n        /* \"#utility.yul\":28007:28009   */\n      0x20\n        /* \"#utility.yul\":27996:28005   */\n      dup6\n        /* \"#utility.yul\":27992:28010   */\n      add\n        /* \"#utility.yul\":27979:28010   */\n      swap5\n      pop\n        /* \"#utility.yul\":27853:27857   */\n      0x20\n        /* \"#utility.yul\":27850:27851   */\n      dup2\n        /* \"#utility.yul\":27846:27858   */\n      add\n        /* \"#utility.yul\":27841:27858   */\n      swap1\n      pop\n        /* \"#utility.yul\":27816:28024   */\n      jump(tag_580)\n    tag_582:\n        /* \"#utility.yul\":28052:28058   */\n      dup7\n        /* \"#utility.yul\":28043:28050   */\n      dup4\n        /* \"#utility.yul\":28040:28059   */\n      lt\n        /* \"#utility.yul\":28037:28216   */\n      iszero\n      tag_583\n      jumpi\n        /* \"#utility.yul\":28110:28119   */\n      dup5\n        /* \"#utility.yul\":28105:28108   */\n      dup10\n        /* \"#utility.yul\":28101:28120   */\n      add\n        /* \"#utility.yul\":28095:28121   */\n      mload\n        /* \"#utility.yul\":28153:28201   */\n      tag_584\n        /* \"#utility.yul\":28195:28199   */\n      0x1f\n        /* \"#utility.yul\":28187:28193   */\n      dup10\n        /* \"#utility.yul\":28183:28200   */\n      and\n        /* \"#utility.yul\":28172:28181   */\n      dup3\n        /* \"#utility.yul\":28153:28201   */\n      tag_304\n      jump\t// in\n    tag_584:\n        /* \"#utility.yul\":28145:28151   */\n      dup4\n        /* \"#utility.yul\":28138:28202   */\n      sstore\n        /* \"#utility.yul\":28060:28216   */\n      pop\n        /* \"#utility.yul\":28037:28216   */\n    tag_583:\n        /* \"#utility.yul\":28262:28263   */\n      0x01\n        /* \"#utility.yul\":28258:28259   */\n      0x02\n        /* \"#utility.yul\":28250:28256   */\n      dup9\n        /* \"#utility.yul\":28246:28260   */\n      mul\n        /* \"#utility.yul\":28242:28264   */\n      add\n        /* \"#utility.yul\":28236:28240   */\n      dup9\n        /* \"#utility.yul\":28229:28265   */\n      sstore\n        /* \"#utility.yul\":27664:28275   */\n      pop\n      pop\n      pop\n        /* \"#utility.yul\":27627:28514   */\n    tag_575:\n      pop\n        /* \"#utility.yul\":27217:28520   */\n      pop\n      pop\n      pop\n        /* \"#utility.yul\":27125:28520   */\n      pop\n      pop\n      jump\t// out\n        /* \"#utility.yul\":28526:28759   */\n    tag_184:\n        /* \"#utility.yul\":28565:28568   */\n      0x00\n        /* \"#utility.yul\":28588:28612   */\n      tag_586\n        /* \"#utility.yul\":28606:28611   */\n      dup3\n        /* \"#utility.yul\":28588:28612   */\n      tag_236\n      jump\t// in\n    tag_586:\n        /* \"#utility.yul\":28579:28612   */\n      swap2\n      pop\n        /* \"#utility.yul\":28634:28700   */\n      0xffffffffffffffffffffffffffffffffffffffffffffffffffffffffffffffff\n        /* \"#utility.yul\":28627:28632   */\n      dup3\n        /* \"#utility.yul\":28624:28701   */\n      sub\n        /* \"#utility.yul\":28621:28724   */\n      tag_587\n      jumpi\n        /* \"#utility.yul\":28704:28722   */\n      tag_588\n      tag_279\n      jump\t// in\n    tag_588:\n        /* \"#utility.yul\":28621:28724   */\n    tag_587:\n        /* \"#utility.yul\":28751:28752   */\n      0x01\n        /* \"#utility.yul\":28744:28749   */\n      dup3\n        /* \"#utility.yul\":28740:28753   */\n      add\n        /* \"#utility.yul\":28733:28753   */\n      swap1\n      pop\n        /* \"#utility.yul\":28526:28759   */\n      swap2\n      swap1\n      pop\n      jump\t// out\n        /* \"#utility.yul\":28765:28945   */\n    tag_204:\n        /* \"#utility.yul\":28813:28890   */\n      0x4e487b7100000000000000000000000000000000000000000000000000000000\n        /* \"#utility.yul\":28810:28811   */\n      0x00\n        /* \"#utility.yul\":28803:28891   */\n      mstore\n        /* \"#utility.yul\":28910:28914   */\n      0x32\n        /* \"#utility.yul\":28907:28908   */\n      0x04\n        /* \"#utility.yul\":28900:28915   */\n      mstore\n        /* \"#utility.yul\":28934:28938   */\n      0x24\n        /* \"#utility.yul\":28931:28932   */\n      0x00\n        /* \"#utility.yul\":28924:28939   */\n      revert\n        /* \"#utility.yul\":28951:29178   */\n    tag_306:\n        /* \"#utility.yul\":29091:29125   */\n      0x596f75206861766520616c726561647920766f74656420666f72207468697320\n        /* \"#utility.yul\":29087:29088   */\n      0x00\n        /* \"#utility.yul\":29079:29085   */\n      dup3\n        /* \"#utility.yul\":29075:29089   */\n      add\n        /* \"#utility.yul\":29068:29126   */\n      mstore\n        /* \"#utility.yul\":29160:29170   */\n      0x70726f706f73616c000000000000000000000000000000000000000000000000\n        /* \"#utility.yul\":29155:29157   */\n      0x20\n        /* \"#utility.yul\":29147:29153   */\n      dup3\n        /* \"#utility.yul\":29143:29158   */\n      add\n        /* \"#utility.yul\":29136:29171   */\n      mstore\n        /* \"#utility.yul\":28951:29178   */\n      pop\n      jump\t// out\n        /* \"#utility.yul\":29184:29550   */\n    tag_307:\n        /* \"#utility.yul\":29326:29329   */\n      0x00\n        /* \"#utility.yul\":29347:29414   */\n      tag_592\n        /* \"#utility.yul\":29411:29413   */\n      0x28\n        /* \"#utility.yul\":29406:29409   */\n      dup4\n        /* \"#utility.yul\":29347:29414   */\n      tag_241\n      jump\t// in\n    tag_592:\n        /* \"#utility.yul\":29340:29414   */\n      swap2\n      pop\n        /* \"#utility.yul\":29423:29516   */\n      tag_593\n        /* \"#utility.yul\":29512:29515   */\n      dup3\n        /* \"#utility.yul\":29423:29516   */\n      tag_306\n      jump\t// in\n    tag_593:\n        /* \"#utility.yul\":29541:29543   */\n      0x40\n        /* \"#utility.yul\":29536:29539   */\n      dup3\n        /* \"#utility.yul\":29532:29544   */\n      add\n        /* \"#utility.yul\":29525:29544   */\n      swap1\n      pop\n        /* \"#utility.yul\":29184:29550   */\n      swap2\n      swap1\n      pop\n      jump\t// out\n        /* \"#utility.yul\":29556:29975   */\n    tag_212:\n        /* \"#utility.yul\":29722:29726   */\n      0x00\n        /* \"#utility.yul\":29760:29762   */\n      0x20\n        /* \"#utility.yul\":29749:29758   */\n      dup3\n        /* \"#utility.yul\":29745:29763   */\n      add\n        /* \"#utility.yul\":29737:29763   */\n      swap1\n      pop\n        /* \"#utility.yul\":29809:29818   */\n      dup2\n        /* \"#utility.yul\":29803:29807   */\n      dup2\n        /* \"#utility.yul\":29799:29819   */\n      sub\n        /* \"#utility.yul\":29795:29796   */\n      0x00\n        /* \"#utility.yul\":29784:29793   */\n      dup4\n        /* \"#utility.yul\":29780:29797   */\n      add\n        /* \"#utility.yul\":29773:29820   */\n      mstore\n        /* \"#utility.yul\":29837:29968   */\n      tag_595\n        /* \"#utility.yul\":29963:29967   */\n      dup2\n        /* \"#utility.yul\":29837:29968   */\n      tag_307\n      jump\t// in\n    tag_595:\n        /* \"#utility.yul\":29829:29968   */\n      swap1\n      pop\n        /* \"#utility.yul\":29556:29975   */\n      swap2\n      swap1\n      pop\n      jump\t// out\n        /* \"#utility.yul\":29981:30148   */\n    tag_308:\n        /* \"#utility.yul\":30121:30140   */\n      0x566f74696e672074696d6520656e646564000000000000000000000000000000\n        /* \"#utility.yul\":30117:30118   */\n      0x00\n        /* \"#utility.yul\":30109:30115   */\n      dup3\n        /* \"#utility.yul\":30105:30119   */\n      add\n        /* \"#utility.yul\":30098:30141   */\n      mstore\n        /* \"#utility.yul\":29981:30148   */\n      pop\n      jump\t// out\n        /* \"#utility.yul\":30154:30520   */\n    tag_309:\n        /* \"#utility.yul\":30296:30299   */\n      0x00\n        /* \"#utility.yul\":30317:30384   */\n      tag_598\n        /* \"#utility.yul\":30381:30383   */\n      0x11\n        /* \"#utility.yul\":30376:30379   */\n      dup4\n        /* \"#utility.yul\":30317:30384   */\n      tag_241\n      jump\t// in\n    tag_598:\n        /* \"#utility.yul\":30310:30384   */\n      swap2\n      pop\n        /* \"#utility.yul\":30393:30486   */\n      tag_599\n        /* \"#utility.yul\":30482:30485   */\n      dup3\n        /* \"#utility.yul\":30393:30486   */\n      tag_308\n      jump\t// in\n    tag_599:\n        /* \"#utility.yul\":30511:30513   */\n      0x20\n        /* \"#utility.yul\":30506:30509   */\n      dup3\n        /* \"#utility.yul\":30502:30514   */\n      add\n        /* \"#utility.yul\":30495:30514   */\n      swap1\n      pop\n        /* \"#utility.yul\":30154:30520   */\n      swap2\n      swap1\n      pop\n      jump\t// out\n        /* \"#utility.yul\":30526:30945   */\n    tag_215:\n        /* \"#utility.yul\":30692:30696   */\n      0x00\n        /* \"#utility.yul\":30730:30732   */\n      0x20\n        /* \"#utility.yul\":30719:30728   */\n      dup3\n        /* \"#utility.yul\":30715:30733   */\n      add\n        /* \"#utility.yul\":30707:30733   */\n      swap1\n      pop\n        /* \"#utility.yul\":30779:30788   */\n      dup2\n        /* \"#utility.yul\":30773:30777   */\n      dup2\n        /* \"#utility.yul\":30769:30789   */\n      sub\n        /* \"#utility.yul\":30765:30766   */\n      0x00\n        /* \"#utility.yul\":30754:30763   */\n      dup4\n        /* \"#utility.yul\":30750:30767   */\n      add\n        /* \"#utility.yul\":30743:30790   */\n      mstore\n        /* \"#utility.yul\":30807:30938   */\n      tag_601\n        /* \"#utility.yul\":30933:30937   */\n      dup2\n        /* \"#utility.yul\":30807:30938   */\n      tag_309\n      jump\t// in\n    tag_601:\n        /* \"#utility.yul\":30799:30938   */\n      swap1\n      pop\n        /* \"#utility.yul\":30526:30945   */\n      swap2\n      swap1\n      pop\n      jump\t// out\n        /* \"#utility.yul\":30951:31123   */\n    tag_310:\n        /* \"#utility.yul\":31091:31115   */\n      0x497420697320616c726561647920657865637574656400000000000000000000\n        /* \"#utility.yul\":31087:31088   */\n      0x00\n        /* \"#utility.yul\":31079:31085   */\n      dup3\n        /* \"#utility.yul\":31075:31089   */\n      add\n        /* \"#utility.yul\":31068:31116   */\n      mstore\n        /* \"#utility.yul\":30951:31123   */\n      pop\n      jump\t// out\n        /* \"#utility.yul\":31129:31495   */\n    tag_311:\n        /* \"#utility.yul\":31271:31274   */\n      0x00\n        /* \"#utility.yul\":31292:31359   */\n      tag_604\n        /* \"#utility.yul\":31356:31358   */\n      0x16\n        /* \"#utility.yul\":31351:31354   */\n      dup4\n        /* \"#utility.yul\":31292:31359   */\n      tag_241\n      jump\t// in\n    tag_604:\n        /* \"#utility.yul\":31285:31359   */\n      swap2\n      pop\n        /* \"#utility.yul\":31368:31461   */\n      tag_605\n        /* \"#utility.yul\":31457:31460   */\n      dup3\n        /* \"#utility.yul\":31368:31461   */\n      tag_310\n      jump\t// in\n    tag_605:\n        /* \"#utility.yul\":31486:31488   */\n      0x20\n        /* \"#utility.yul\":31481:31484   */\n      dup3\n        /* \"#utility.yul\":31477:31489   */\n      add\n        /* \"#utility.yul\":31470:31489   */\n      swap1\n      pop\n        /* \"#utility.yul\":31129:31495   */\n      swap2\n      swap1\n      pop\n      jump\t// out\n        /* \"#utility.yul\":31501:31920   */\n    tag_218:\n        /* \"#utility.yul\":31667:31671   */\n      0x00\n        /* \"#utility.yul\":31705:31707   */\n      0x20\n        /* \"#utility.yul\":31694:31703   */\n      dup3\n        /* \"#utility.yul\":31690:31708   */\n      add\n        /* \"#utility.yul\":31682:31708   */\n      swap1\n      pop\n        /* \"#utility.yul\":31754:31763   */\n      dup2\n        /* \"#utility.yul\":31748:31752   */\n      dup2\n        /* \"#utility.yul\":31744:31764   */\n      sub\n        /* \"#utility.yul\":31740:31741   */\n      0x00\n        /* \"#utility.yul\":31729:31738   */\n      dup4\n        /* \"#utility.yul\":31725:31742   */\n      add\n        /* \"#utility.yul\":31718:31765   */\n      mstore\n        /* \"#utility.yul\":31782:31913   */\n      tag_607\n        /* \"#utility.yul\":31908:31912   */\n      dup2\n        /* \"#utility.yul\":31782:31913   */\n      tag_311\n      jump\t// in\n    tag_607:\n        /* \"#utility.yul\":31774:31913   */\n      swap1\n      pop\n        /* \"#utility.yul\":31501:31920   */\n      swap2\n      swap1\n      pop\n      jump\t// out\n\n    auxdata: 0xa26469706673582212201ff85fef6dbd7ebe99d27af4abc4f5aa56eb45de64092cd56254aa1ab6d014dc64736f6c63430008120033\n}\n",
				"bytecode": {
					"linkReferences": {},
					"object": "60806040523480156200001157600080fd5b5060405162002ac438038062002ac4833981810160405281019062000037919062000136565b600081118015620000485750606481105b6200008a576040517f08c379a00000000000000000000000000000000000000000000000000000000081526004016200008190620001f3565b60405180910390fd5b824262000098919062000244565b60088190555081600a8190555080600b8190555033600c60006101000a81548173ffffffffffffffffffffffffffffffffffffffff021916908373ffffffffffffffffffffffffffffffffffffffff1602179055505050506200027f565b600080fd5b6000819050919050565b6200011081620000fb565b81146200011c57600080fd5b50565b600081519050620001308162000105565b92915050565b600080600060608486031215620001525762000151620000f6565b5b600062000162868287016200011f565b935050602062000175868287016200011f565b925050604062000188868287016200011f565b9150509250925092565b600082825260208201905092915050565b7f4e6f742076616c69642076616c75657300000000000000000000000000000000600082015250565b6000620001db60108362000192565b9150620001e882620001a3565b602082019050919050565b600060208201905081810360008301526200020e81620001cc565b9050919050565b7f4e487b7100000000000000000000000000000000000000000000000000000000600052601160045260246000fd5b60006200025182620000fb565b91506200025e83620000fb565b925082820190508082111562000279576200027862000215565b5b92915050565b612835806200028f6000396000f3fe60806040526004361061011f5760003560e01c806350520b1f116100a0578063868643df11610064578063868643df146103ba5780638ee36f05146103e3578063afc8275b14610420578063bcf93dd61461044b578063e65da429146104765761011f565b806350520b1f146102f65780636ac1e01f146103005780636dfc109914610329578063807896d51461035457806383f9f20e1461037d5761011f565b80631942c3ce116100e75780631942c3ce146102215780632ab09d141461024a5780633a98ef391461027557806346fcff4c146102a0578063481c6a75146102cb5761011f565b8063013cf08b14610124578063039383e6146101675780630d61b5191461019057806312f9b48e146101b95780631703a018146101f6575b600080fd5b34801561013057600080fd5b5061014b60048036038101906101469190611813565b6104b3565b60405161015e979695949392919061193b565b60405180910390f35b34801561017357600080fd5b5061018e600480360381019061018991906119ef565b6105aa565b005b34801561019c57600080fd5b506101b760048036038101906101b29190611813565b61090c565b005b3480156101c557600080fd5b506101e060048036038101906101db9190611813565b610a85565b6040516101ed9190611a3e565b60405180910390f35b34801561020257600080fd5b5061020b610ac4565b6040516102189190611a59565b60405180910390f35b34801561022d57600080fd5b5061024860048036038101906102439190611aa0565b610aca565b005b34801561025657600080fd5b5061025f610b15565b60405161026c9190611a59565b60405180910390f35b34801561028157600080fd5b5061028a610b1b565b6040516102979190611a59565b60405180910390f35b3480156102ac57600080fd5b506102b5610b21565b6040516102c29190611a59565b60405180910390f35b3480156102d757600080fd5b506102e0610b27565b6040516102ed9190611a3e565b60405180910390f35b6102fe610b4d565b005b34801561030c57600080fd5b5061032760048036038101906103229190611b45565b610d51565b005b34801561033557600080fd5b5061033e610fa1565b60405161034b9190611d8e565b60405180910390f35b34801561036057600080fd5b5061037b60048036038101906103769190611813565b611198565b005b34801561038957600080fd5b506103a4600480360381019061039f9190611db0565b61144b565b6040516103b19190611df0565b60405180910390f35b3480156103c657600080fd5b506103e160048036038101906103dc9190611813565b61147a565b005b3480156103ef57600080fd5b5061040a60048036038101906104059190611e0b565b61172b565b6040516104179190611df0565b60405180910390f35b34801561042c57600080fd5b5061043561175a565b6040516104429190611a59565b60405180910390f35b34801561045757600080fd5b50610460611760565b60405161046d9190611a59565b60405180910390f35b34801561048257600080fd5b5061049d60048036038101906104989190611e4b565b611766565b6040516104aa9190611a59565b60405180910390f35b60056020528060005260406000206000915090508060000154908060010180546104dc90611ea7565b80601f016020809104026020016040519081016040528092919081815260200182805461050890611ea7565b80156105555780601f1061052a57610100808354040283529160200191610555565b820191906000526020600020905b81548152906001019060200180831161053857829003601f168201915b5050505050908060020154908060030160009054906101000a900473ffffffffffffffffffffffffffffffffffffffff16908060040154908060050154908060060160009054906101000a900460ff16905087565b600115156000803373ffffffffffffffffffffffffffffffffffffffff1673ffffffffffffffffffffffffffffffffffffffff16815260200190815260200160002060009054906101000a900460ff1615151461063c576040517f08c379a000000000000000000000000000000000000000000000000000000000815260040161063390611f24565b60405180910390fd5b816007541015610681576040517f08c379a000000000000000000000000000000000000000000000000000000000815260040161067890611f90565b60405180910390fd5b81600160003373ffffffffffffffffffffffffffffffffffffffff1673ffffffffffffffffffffffffffffffffffffffff168152602001908152602001600020541015610703576040517f08c379a00000000000000000000000000000000000000000000000000000000081526004016106fa90611ffc565b60405180910390fd5b81600160003373ffffffffffffffffffffffffffffffffffffffff1673ffffffffffffffffffffffffffffffffffffffff1681526020019081526020016000206000828254610752919061204b565b9250508190555081600160008373ffffffffffffffffffffffffffffffffffffffff1673ffffffffffffffffffffffffffffffffffffffff16815260200190815260200160002060008282546107a8919061207f565b925050819055506000600160003373ffffffffffffffffffffffffffffffffffffffff1673ffffffffffffffffffffffffffffffffffffffff168152602001908152602001600020540361084e5760008060003373ffffffffffffffffffffffffffffffffffffffff1673ffffffffffffffffffffffffffffffffffffffff16815260200190815260200160002060006101000a81548160ff0219169083151502179055505b60016000808373ffffffffffffffffffffffffffffffffffffffff1673ffffffffffffffffffffffffffffffffffffffff16815260200190815260200160002060006101000a81548160ff0219169083151502179055506004819080600181540180825580915050600190039060005260206000200160009091909190916101000a81548173ffffffffffffffffffffffffffffffffffffffff021916908373ffffffffffffffffffffffffffffffffffffffff1602179055505050565b3373ffffffffffffffffffffffffffffffffffffffff16600c60009054906101000a900473ffffffffffffffffffffffffffffffffffffffff1673ffffffffffffffffffffffffffffffffffffffff161461099c576040517f08c379a0000000000000000000000000000000000000000000000000000000008152600401610993906120ff565b60405180910390fd5b6000600560008381526020019081526020016000209050600b54600654606483600401546109ca919061211f565b6109d49190612190565b1015610a15576040517f08c379a0000000000000000000000000000000000000000000000000000000008152600401610a0c9061220d565b60405180910390fd5b60018160060160006101000a81548160ff021916908315150217905550806002015460076000828254610a48919061204b565b92505081905550610a8181600201548260030160009054906101000a900473ffffffffffffffffffffffffffffffffffffffff16610aca565b5050565b60048181548110610a9557600080fd5b906000526020600020016000915054906101000a900473ffffffffffffffffffffffffffffffffffffffff1681565b600b5481565b8073ffffffffffffffffffffffffffffffffffffffff166108fc839081150290604051600060405180830381858888f19350505050158015610b10573d6000803e3d6000fd5b505050565b60095481565b60065481565b60075481565b600c60009054906101000a900473ffffffffffffffffffffffffffffffffffffffff1681565b426008541015610b92576040517f08c379a0000000000000000000000000000000000000000000000000000000008152600401610b8990612279565b60405180910390fd5b60003411610bd5576040517f08c379a0000000000000000000000000000000000000000000000000000000008152600401610bcc906122e5565b60405180910390fd5b60016000803373ffffffffffffffffffffffffffffffffffffffff1673ffffffffffffffffffffffffffffffffffffffff16815260200190815260200160002060006101000a81548160ff02191690831515021790555034600160003373ffffffffffffffffffffffffffffffffffffffff1673ffffffffffffffffffffffffffffffffffffffff16815260200190815260200160002054610c77919061207f565b600160003373ffffffffffffffffffffffffffffffffffffffff1673ffffffffffffffffffffffffffffffffffffffff168152602001908152602001600020819055503460066000828254610ccc919061207f565b925050819055503460076000828254610ce5919061207f565b925050819055506004339080600181540180825580915050600190039060005260206000200160009091909190916101000a81548173ffffffffffffffffffffffffffffffffffffffff021916908373ffffffffffffffffffffffffffffffffffffffff160217905550565b3373ffffffffffffffffffffffffffffffffffffffff16600c60009054906101000a900473ffffffffffffffffffffffffffffffffffffffff1673ffffffffffffffffffffffffffffffffffffffff1614610de1576040517f08c379a0000000000000000000000000000000000000000000000000000000008152600401610dd8906120ff565b60405180910390fd5b816007541015610e26576040517f08c379a0000000000000000000000000000000000000000000000000000000008152600401610e1d90612351565b60405180910390fd5b6040518060e00160405280600954815260200185858080601f016020809104026020016040519081016040528093929190818152602001838380828437600081840152601f19601f8201169050808301925050505050505081526020018381526020018273ffffffffffffffffffffffffffffffffffffffff16815260200160008152602001600a5442610eba919061207f565b815260200160001515815250600560006009548152602001908152602001600020600082015181600001556020820151816001019081610efa919061254c565b506040820151816002015560608201518160030160006101000a81548173ffffffffffffffffffffffffffffffffffffffff021916908373ffffffffffffffffffffffffffffffffffffffff1602179055506080820151816004015560a0820151816005015560c08201518160060160006101000a81548160ff02191690831515021790555090505060096000815480929190610f969061261e565b919050555050505050565b606060006001600954610fb4919061204b565b67ffffffffffffffff811115610fcd57610fcc612371565b5b60405190808252806020026020018201604052801561100657816020015b610ff361177e565b815260200190600190039081610feb5790505b50905060005b60095481101561119057600560008281526020019081526020016000206040518060e00160405290816000820154815260200160018201805461104e90611ea7565b80601f016020809104026020016040519081016040528092919081815260200182805461107a90611ea7565b80156110c75780601f1061109c576101008083540402835291602001916110c7565b820191906000526020600020905b8154815290600101906020018083116110aa57829003601f168201915b50505050508152602001600282015481526020016003820160009054906101000a900473ffffffffffffffffffffffffffffffffffffffff1673ffffffffffffffffffffffffffffffffffffffff1673ffffffffffffffffffffffffffffffffffffffff16815260200160048201548152602001600582015481526020016006820160009054906101000a900460ff16151515158152505082828151811061117257611171612666565b5b602002602001018190525080806111889061261e565b91505061100c565b508091505090565b600115156000803373ffffffffffffffffffffffffffffffffffffffff1673ffffffffffffffffffffffffffffffffffffffff16815260200190815260200160002060009054906101000a900460ff1615151461122a576040517f08c379a000000000000000000000000000000000000000000000000000000000815260040161122190611f24565b60405180910390fd5b600060056000838152602001908152602001600020905060001515600260003373ffffffffffffffffffffffffffffffffffffffff1673ffffffffffffffffffffffffffffffffffffffff168152602001908152602001600020600084815260200190815260200160002060009054906101000a900460ff161515146112e5576040517f08c379a00000000000000000000000000000000000000000000000000000000081526004016112dc90612707565b60405180910390fd5b428160050154101561132c576040517f08c379a000000000000000000000000000000000000000000000000000000000815260040161132390612773565b60405180910390fd5b600015158160060160009054906101000a900460ff16151514611384576040517f08c379a000000000000000000000000000000000000000000000000000000000815260040161137b906127df565b60405180910390fd5b6001600260003373ffffffffffffffffffffffffffffffffffffffff1673ffffffffffffffffffffffffffffffffffffffff168152602001908152602001600020600084815260200190815260200160002060006101000a81548160ff021916908315150217905550600160003373ffffffffffffffffffffffffffffffffffffffff1673ffffffffffffffffffffffffffffffffffffffff16815260200190815260200160002054816004016000828254611440919061207f565b925050819055505050565b60036020528160005260406000206020528060005260406000206000915091509054906101000a900460ff1681565b600115156000803373ffffffffffffffffffffffffffffffffffffffff1673ffffffffffffffffffffffffffffffffffffffff16815260200190815260200160002060009054906101000a900460ff1615151461150c576040517f08c379a000000000000000000000000000000000000000000000000000000000815260040161150390611f24565b60405180910390fd5b80600160003373ffffffffffffffffffffffffffffffffffffffff1673ffffffffffffffffffffffffffffffffffffffff16815260200190815260200160002054101561158e576040517f08c379a000000000000000000000000000000000000000000000000000000000815260040161158590611ffc565b60405180910390fd5b8060075410156115d3576040517f08c379a00000000000000000000000000000000000000000000000000000000081526004016115ca90612351565b60405180910390fd5b80600160003373ffffffffffffffffffffffffffffffffffffffff1673ffffffffffffffffffffffffffffffffffffffff1681526020019081526020016000206000828254611622919061204b565b925050819055506000600160003373ffffffffffffffffffffffffffffffffffffffff1673ffffffffffffffffffffffffffffffffffffffff16815260200190815260200160002054036116c85760008060003373ffffffffffffffffffffffffffffffffffffffff1673ffffffffffffffffffffffffffffffffffffffff16815260200190815260200160002060006101000a81548160ff0219169083151502179055505b80600760008282546116da919061204b565b925050819055503373ffffffffffffffffffffffffffffffffffffffff166108fc829081150290604051600060405180830381858888f19350505050158015611727573d6000803e3d6000fd5b5050565b60026020528160005260406000206020528060005260406000206000915091509054906101000a900460ff1681565b60085481565b600a5481565b60016020528060005260406000206000915090505481565b6040518060e00160405280600081526020016060815260200160008152602001600073ffffffffffffffffffffffffffffffffffffffff16815260200160008152602001600081526020016000151581525090565b600080fd5b600080fd5b6000819050919050565b6117f0816117dd565b81146117fb57600080fd5b50565b60008135905061180d816117e7565b92915050565b600060208284031215611829576118286117d3565b5b6000611837848285016117fe565b91505092915050565b611849816117dd565b82525050565b600081519050919050565b600082825260208201905092915050565b60005b8381101561188957808201518184015260208101905061186e565b60008484015250505050565b6000601f19601f8301169050919050565b60006118b18261184f565b6118bb818561185a565b93506118cb81856020860161186b565b6118d481611895565b840191505092915050565b600073ffffffffffffffffffffffffffffffffffffffff82169050919050565b600061190a826118df565b9050919050565b61191a816118ff565b82525050565b60008115159050919050565b61193581611920565b82525050565b600060e082019050611950600083018a611840565b818103602083015261196281896118a6565b90506119716040830188611840565b61197e6060830187611911565b61198b6080830186611840565b61199860a0830185611840565b6119a560c083018461192c565b98975050505050505050565b60006119bc826118df565b9050919050565b6119cc816119b1565b81146119d757600080fd5b50565b6000813590506119e9816119c3565b92915050565b60008060408385031215611a0657611a056117d3565b5b6000611a14858286016117fe565b9250506020611a25858286016119da565b9150509250929050565b611a38816119b1565b82525050565b6000602082019050611a536000830184611a2f565b92915050565b6000602082019050611a6e6000830184611840565b92915050565b611a7d816118ff565b8114611a8857600080fd5b50565b600081359050611a9a81611a74565b92915050565b60008060408385031215611ab757611ab66117d3565b5b6000611ac5858286016117fe565b9250506020611ad685828601611a8b565b9150509250929050565b600080fd5b600080fd5b600080fd5b60008083601f840112611b0557611b04611ae0565b5b8235905067ffffffffffffffff811115611b2257611b21611ae5565b5b602083019150836001820283011115611b3e57611b3d611aea565b5b9250929050565b60008060008060608587031215611b5f57611b5e6117d3565b5b600085013567ffffffffffffffff811115611b7d57611b7c6117d8565b5b611b8987828801611aef565b94509450506020611b9c878288016117fe565b9250506040611bad87828801611a8b565b91505092959194509250565b600081519050919050565b600082825260208201905092915050565b6000819050602082019050919050565b611bee816117dd565b82525050565b600082825260208201905092915050565b6000611c108261184f565b611c1a8185611bf4565b9350611c2a81856020860161186b565b611c3381611895565b840191505092915050565b611c47816118ff565b82525050565b611c5681611920565b82525050565b600060e083016000830151611c746000860182611be5565b5060208301518482036020860152611c8c8282611c05565b9150506040830151611ca16040860182611be5565b506060830151611cb46060860182611c3e565b506080830151611cc76080860182611be5565b5060a0830151611cda60a0860182611be5565b5060c0830151611ced60c0860182611c4d565b508091505092915050565b6000611d048383611c5c565b905092915050565b6000602082019050919050565b6000611d2482611bb9565b611d2e8185611bc4565b935083602082028501611d4085611bd5565b8060005b85811015611d7c5784840389528151611d5d8582611cf8565b9450611d6883611d0c565b925060208a01995050600181019050611d44565b50829750879550505050505092915050565b60006020820190508181036000830152611da88184611d19565b905092915050565b60008060408385031215611dc757611dc66117d3565b5b6000611dd5858286016119da565b9250506020611de6858286016119da565b9150509250929050565b6000602082019050611e05600083018461192c565b92915050565b60008060408385031215611e2257611e216117d3565b5b6000611e30858286016119da565b9250506020611e41858286016117fe565b9150509250929050565b600060208284031215611e6157611e606117d3565b5b6000611e6f848285016119da565b91505092915050565b7f4e487b7100000000000000000000000000000000000000000000000000000000600052602260045260246000fd5b60006002820490506001821680611ebf57607f821691505b602082108103611ed257611ed1611e78565b5b50919050565b7f596f7520617265206e6f7420616e20696e766573746f72000000000000000000600082015250565b6000611f0e60178361185a565b9150611f1982611ed8565b602082019050919050565b60006020820190508181036000830152611f3d81611f01565b9050919050565b7f4e6f7420656e6f7567682066756e647320617661696c61626c65000000000000600082015250565b6000611f7a601a8361185a565b9150611f8582611f44565b602082019050919050565b60006020820190508181036000830152611fa981611f6d565b9050919050565b7f596f7520646f6e2774206861766520656e6f7567682073686172657300000000600082015250565b6000611fe6601c8361185a565b9150611ff182611fb0565b602082019050919050565b6000602082019050818103600083015261201581611fd9565b9050919050565b7f4e487b7100000000000000000000000000000000000000000000000000000000600052601160045260246000fd5b6000612056826117dd565b9150612061836117dd565b92508282039050818111156120795761207861201c565b5b92915050565b600061208a826117dd565b9150612095836117dd565b92508282019050808211156120ad576120ac61201c565b5b92915050565b7f596f7520617265206e6f742061206d616e616765720000000000000000000000600082015250565b60006120e960158361185a565b91506120f4826120b3565b602082019050919050565b60006020820190508181036000830152612118816120dc565b9050919050565b600061212a826117dd565b9150612135836117dd565b9250828202612143816117dd565b9150828204841483151761215a5761215961201c565b5b5092915050565b7f4e487b7100000000000000000000000000000000000000000000000000000000600052601260045260246000fd5b600061219b826117dd565b91506121a6836117dd565b9250826121b6576121b5612161565b5b828204905092915050565b7f4d616a6f7269747920646f6573206e6f7420737570706f727400000000000000600082015250565b60006121f760198361185a565b9150612202826121c1565b602082019050919050565b60006020820190508181036000830152612226816121ea565b9050919050565b7f436f6e747269627574696f6e2074696d6520656e646564000000000000000000600082015250565b600061226360178361185a565b915061226e8261222d565b602082019050919050565b6000602082019050818103600083015261229281612256565b9050919050565b7f53656e64206d6f7265207468616e203020206574686572000000000000000000600082015250565b60006122cf60178361185a565b91506122da82612299565b602082019050919050565b600060208201905081810360008301526122fe816122c2565b9050919050565b7f4e6f7420656e6f7567682066756e647300000000000000000000000000000000600082015250565b600061233b60108361185a565b915061234682612305565b602082019050919050565b6000602082019050818103600083015261236a8161232e565b9050919050565b7f4e487b7100000000000000000000000000000000000000000000000000000000600052604160045260246000fd5b60008190508160005260206000209050919050565b60006020601f8301049050919050565b600082821b905092915050565b6000600883026124027fffffffffffffffffffffffffffffffffffffffffffffffffffffffffffffffff826123c5565b61240c86836123c5565b95508019841693508086168417925050509392505050565b6000819050919050565b600061244961244461243f846117dd565b612424565b6117dd565b9050919050565b6000819050919050565b6124638361242e565b61247761246f82612450565b8484546123d2565b825550505050565b600090565b61248c61247f565b61249781848461245a565b505050565b5b818110156124bb576124b0600082612484565b60018101905061249d565b5050565b601f821115612500576124d1816123a0565b6124da846123b5565b810160208510156124e9578190505b6124fd6124f5856123b5565b83018261249c565b50505b505050565b600082821c905092915050565b600061252360001984600802612505565b1980831691505092915050565b600061253c8383612512565b9150826002028217905092915050565b6125558261184f565b67ffffffffffffffff81111561256e5761256d612371565b5b6125788254611ea7565b6125838282856124bf565b600060209050601f8311600181146125b657600084156125a4578287015190505b6125ae8582612530565b865550612616565b601f1984166125c4866123a0565b60005b828110156125ec578489015182556001820191506020850194506020810190506125c7565b868310156126095784890151612605601f891682612512565b8355505b6001600288020188555050505b505050505050565b6000612629826117dd565b91507fffffffffffffffffffffffffffffffffffffffffffffffffffffffffffffffff820361265b5761265a61201c565b5b600182019050919050565b7f4e487b7100000000000000000000000000000000000000000000000000000000600052603260045260246000fd5b7f596f75206861766520616c726561647920766f74656420666f7220746869732060008201527f70726f706f73616c000000000000000000000000000000000000000000000000602082015250565b60006126f160288361185a565b91506126fc82612695565b604082019050919050565b60006020820190508181036000830152612720816126e4565b9050919050565b7f566f74696e672074696d6520656e646564000000000000000000000000000000600082015250565b600061275d60118361185a565b915061276882612727565b602082019050919050565b6000602082019050818103600083015261278c81612750565b9050919050565b7f497420697320616c726561647920657865637574656400000000000000000000600082015250565b60006127c960168361185a565b91506127d482612793565b602082019050919050565b600060208201905081810360008301526127f8816127bc565b905091905056fea26469706673582212201ff85fef6dbd7ebe99d27af4abc4f5aa56eb45de64092cd56254aa1ab6d014dc64736f6c63430008120033",
					"opcodes": "PUSH1 0x80 PUSH1 0x40 MSTORE CALLVALUE DUP1 ISZERO PUSH3 0x11 JUMPI PUSH1 0x0 DUP1 REVERT JUMPDEST POP PUSH1 0x40 MLOAD PUSH3 0x2AC4 CODESIZE SUB DUP1 PUSH3 0x2AC4 DUP4 CODECOPY DUP2 DUP2 ADD PUSH1 0x40 MSTORE DUP2 ADD SWAP1 PUSH3 0x37 SWAP2 SWAP1 PUSH3 0x136 JUMP JUMPDEST PUSH1 0x0 DUP2 GT DUP1 ISZERO PUSH3 0x48 JUMPI POP PUSH1 0x64 DUP2 LT JUMPDEST PUSH3 0x8A JUMPI PUSH1 0x40 MLOAD PUSH32 0x8C379A000000000000000000000000000000000000000000000000000000000 DUP2 MSTORE PUSH1 0x4 ADD PUSH3 0x81 SWAP1 PUSH3 0x1F3 JUMP JUMPDEST PUSH1 0x40 MLOAD DUP1 SWAP2 SUB SWAP1 REVERT JUMPDEST DUP3 TIMESTAMP PUSH3 0x98 SWAP2 SWAP1 PUSH3 0x244 JUMP JUMPDEST PUSH1 0x8 DUP2 SWAP1 SSTORE POP DUP2 PUSH1 0xA DUP2 SWAP1 SSTORE POP DUP1 PUSH1 0xB DUP2 SWAP1 SSTORE POP CALLER PUSH1 0xC PUSH1 0x0 PUSH2 0x100 EXP DUP2 SLOAD DUP2 PUSH20 0xFFFFFFFFFFFFFFFFFFFFFFFFFFFFFFFFFFFFFFFF MUL NOT AND SWAP1 DUP4 PUSH20 0xFFFFFFFFFFFFFFFFFFFFFFFFFFFFFFFFFFFFFFFF AND MUL OR SWAP1 SSTORE POP POP POP POP PUSH3 0x27F JUMP JUMPDEST PUSH1 0x0 DUP1 REVERT JUMPDEST PUSH1 0x0 DUP2 SWAP1 POP SWAP2 SWAP1 POP JUMP JUMPDEST PUSH3 0x110 DUP2 PUSH3 0xFB JUMP JUMPDEST DUP2 EQ PUSH3 0x11C JUMPI PUSH1 0x0 DUP1 REVERT JUMPDEST POP JUMP JUMPDEST PUSH1 0x0 DUP2 MLOAD SWAP1 POP PUSH3 0x130 DUP2 PUSH3 0x105 JUMP JUMPDEST SWAP3 SWAP2 POP POP JUMP JUMPDEST PUSH1 0x0 DUP1 PUSH1 0x0 PUSH1 0x60 DUP5 DUP7 SUB SLT ISZERO PUSH3 0x152 JUMPI PUSH3 0x151 PUSH3 0xF6 JUMP JUMPDEST JUMPDEST PUSH1 0x0 PUSH3 0x162 DUP7 DUP3 DUP8 ADD PUSH3 0x11F JUMP JUMPDEST SWAP4 POP POP PUSH1 0x20 PUSH3 0x175 DUP7 DUP3 DUP8 ADD PUSH3 0x11F JUMP JUMPDEST SWAP3 POP POP PUSH1 0x40 PUSH3 0x188 DUP7 DUP3 DUP8 ADD PUSH3 0x11F JUMP JUMPDEST SWAP2 POP POP SWAP3 POP SWAP3 POP SWAP3 JUMP JUMPDEST PUSH1 0x0 DUP3 DUP3 MSTORE PUSH1 0x20 DUP3 ADD SWAP1 POP SWAP3 SWAP2 POP POP JUMP JUMPDEST PUSH32 0x4E6F742076616C69642076616C75657300000000000000000000000000000000 PUSH1 0x0 DUP3 ADD MSTORE POP JUMP JUMPDEST PUSH1 0x0 PUSH3 0x1DB PUSH1 0x10 DUP4 PUSH3 0x192 JUMP JUMPDEST SWAP2 POP PUSH3 0x1E8 DUP3 PUSH3 0x1A3 JUMP JUMPDEST PUSH1 0x20 DUP3 ADD SWAP1 POP SWAP2 SWAP1 POP JUMP JUMPDEST PUSH1 0x0 PUSH1 0x20 DUP3 ADD SWAP1 POP DUP2 DUP2 SUB PUSH1 0x0 DUP4 ADD MSTORE PUSH3 0x20E DUP2 PUSH3 0x1CC JUMP JUMPDEST SWAP1 POP SWAP2 SWAP1 POP JUMP JUMPDEST PUSH32 0x4E487B7100000000000000000000000000000000000000000000000000000000 PUSH1 0x0 MSTORE PUSH1 0x11 PUSH1 0x4 MSTORE PUSH1 0x24 PUSH1 0x0 REVERT JUMPDEST PUSH1 0x0 PUSH3 0x251 DUP3 PUSH3 0xFB JUMP JUMPDEST SWAP2 POP PUSH3 0x25E DUP4 PUSH3 0xFB JUMP JUMPDEST SWAP3 POP DUP3 DUP3 ADD SWAP1 POP DUP1 DUP3 GT ISZERO PUSH3 0x279 JUMPI PUSH3 0x278 PUSH3 0x215 JUMP JUMPDEST JUMPDEST SWAP3 SWAP2 POP POP JUMP JUMPDEST PUSH2 0x2835 DUP1 PUSH3 0x28F PUSH1 0x0 CODECOPY PUSH1 0x0 RETURN INVALID PUSH1 0x80 PUSH1 0x40 MSTORE PUSH1 0x4 CALLDATASIZE LT PUSH2 0x11F JUMPI PUSH1 0x0 CALLDATALOAD PUSH1 0xE0 SHR DUP1 PUSH4 0x50520B1F GT PUSH2 0xA0 JUMPI DUP1 PUSH4 0x868643DF GT PUSH2 0x64 JUMPI DUP1 PUSH4 0x868643DF EQ PUSH2 0x3BA JUMPI DUP1 PUSH4 0x8EE36F05 EQ PUSH2 0x3E3 JUMPI DUP1 PUSH4 0xAFC8275B EQ PUSH2 0x420 JUMPI DUP1 PUSH4 0xBCF93DD6 EQ PUSH2 0x44B JUMPI DUP1 PUSH4 0xE65DA429 EQ PUSH2 0x476 JUMPI PUSH2 0x11F JUMP JUMPDEST DUP1 PUSH4 0x50520B1F EQ PUSH2 0x2F6 JUMPI DUP1 PUSH4 0x6AC1E01F EQ PUSH2 0x300 JUMPI DUP1 PUSH4 0x6DFC1099 EQ PUSH2 0x329 JUMPI DUP1 PUSH4 0x807896D5 EQ PUSH2 0x354 JUMPI DUP1 PUSH4 0x83F9F20E EQ PUSH2 0x37D JUMPI PUSH2 0x11F JUMP JUMPDEST DUP1 PUSH4 0x1942C3CE GT PUSH2 0xE7 JUMPI DUP1 PUSH4 0x1942C3CE EQ PUSH2 0x221 JUMPI DUP1 PUSH4 0x2AB09D14 EQ PUSH2 0x24A JUMPI DUP1 PUSH4 0x3A98EF39 EQ PUSH2 0x275 JUMPI DUP1 PUSH4 0x46FCFF4C EQ PUSH2 0x2A0 JUMPI DUP1 PUSH4 0x481C6A75 EQ PUSH2 0x2CB JUMPI PUSH2 0x11F JUMP JUMPDEST DUP1 PUSH4 0x13CF08B EQ PUSH2 0x124 JUMPI DUP1 PUSH4 0x39383E6 EQ PUSH2 0x167 JUMPI DUP1 PUSH4 0xD61B519 EQ PUSH2 0x190 JUMPI DUP1 PUSH4 0x12F9B48E EQ PUSH2 0x1B9 JUMPI DUP1 PUSH4 0x1703A018 EQ PUSH2 0x1F6 JUMPI JUMPDEST PUSH1 0x0 DUP1 REVERT JUMPDEST CALLVALUE DUP1 ISZERO PUSH2 0x130 JUMPI PUSH1 0x0 DUP1 REVERT JUMPDEST POP PUSH2 0x14B PUSH1 0x4 DUP1 CALLDATASIZE SUB DUP2 ADD SWAP1 PUSH2 0x146 SWAP2 SWAP1 PUSH2 0x1813 JUMP JUMPDEST PUSH2 0x4B3 JUMP JUMPDEST PUSH1 0x40 MLOAD PUSH2 0x15E SWAP8 SWAP7 SWAP6 SWAP5 SWAP4 SWAP3 SWAP2 SWAP1 PUSH2 0x193B JUMP JUMPDEST PUSH1 0x40 MLOAD DUP1 SWAP2 SUB SWAP1 RETURN JUMPDEST CALLVALUE DUP1 ISZERO PUSH2 0x173 JUMPI PUSH1 0x0 DUP1 REVERT JUMPDEST POP PUSH2 0x18E PUSH1 0x4 DUP1 CALLDATASIZE SUB DUP2 ADD SWAP1 PUSH2 0x189 SWAP2 SWAP1 PUSH2 0x19EF JUMP JUMPDEST PUSH2 0x5AA JUMP JUMPDEST STOP JUMPDEST CALLVALUE DUP1 ISZERO PUSH2 0x19C JUMPI PUSH1 0x0 DUP1 REVERT JUMPDEST POP PUSH2 0x1B7 PUSH1 0x4 DUP1 CALLDATASIZE SUB DUP2 ADD SWAP1 PUSH2 0x1B2 SWAP2 SWAP1 PUSH2 0x1813 JUMP JUMPDEST PUSH2 0x90C JUMP JUMPDEST STOP JUMPDEST CALLVALUE DUP1 ISZERO PUSH2 0x1C5 JUMPI PUSH1 0x0 DUP1 REVERT JUMPDEST POP PUSH2 0x1E0 PUSH1 0x4 DUP1 CALLDATASIZE SUB DUP2 ADD SWAP1 PUSH2 0x1DB SWAP2 SWAP1 PUSH2 0x1813 JUMP JUMPDEST PUSH2 0xA85 JUMP JUMPDEST PUSH1 0x40 MLOAD PUSH2 0x1ED SWAP2 SWAP1 PUSH2 0x1A3E JUMP JUMPDEST PUSH1 0x40 MLOAD DUP1 SWAP2 SUB SWAP1 RETURN JUMPDEST CALLVALUE DUP1 ISZERO PUSH2 0x202 JUMPI PUSH1 0x0 DUP1 REVERT JUMPDEST POP PUSH2 0x20B PUSH2 0xAC4 JUMP JUMPDEST PUSH1 0x40 MLOAD PUSH2 0x218 SWAP2 SWAP1 PUSH2 0x1A59 JUMP JUMPDEST PUSH1 0x40 MLOAD DUP1 SWAP2 SUB SWAP1 RETURN JUMPDEST CALLVALUE DUP1 ISZERO PUSH2 0x22D JUMPI PUSH1 0x0 DUP1 REVERT JUMPDEST POP PUSH2 0x248 PUSH1 0x4 DUP1 CALLDATASIZE SUB DUP2 ADD SWAP1 PUSH2 0x243 SWAP2 SWAP1 PUSH2 0x1AA0 JUMP JUMPDEST PUSH2 0xACA JUMP JUMPDEST STOP JUMPDEST CALLVALUE DUP1 ISZERO PUSH2 0x256 JUMPI PUSH1 0x0 DUP1 REVERT JUMPDEST POP PUSH2 0x25F PUSH2 0xB15 JUMP JUMPDEST PUSH1 0x40 MLOAD PUSH2 0x26C SWAP2 SWAP1 PUSH2 0x1A59 JUMP JUMPDEST PUSH1 0x40 MLOAD DUP1 SWAP2 SUB SWAP1 RETURN JUMPDEST CALLVALUE DUP1 ISZERO PUSH2 0x281 JUMPI PUSH1 0x0 DUP1 REVERT JUMPDEST POP PUSH2 0x28A PUSH2 0xB1B JUMP JUMPDEST PUSH1 0x40 MLOAD PUSH2 0x297 SWAP2 SWAP1 PUSH2 0x1A59 JUMP JUMPDEST PUSH1 0x40 MLOAD DUP1 SWAP2 SUB SWAP1 RETURN JUMPDEST CALLVALUE DUP1 ISZERO PUSH2 0x2AC JUMPI PUSH1 0x0 DUP1 REVERT JUMPDEST POP PUSH2 0x2B5 PUSH2 0xB21 JUMP JUMPDEST PUSH1 0x40 MLOAD PUSH2 0x2C2 SWAP2 SWAP1 PUSH2 0x1A59 JUMP JUMPDEST PUSH1 0x40 MLOAD DUP1 SWAP2 SUB SWAP1 RETURN JUMPDEST CALLVALUE DUP1 ISZERO PUSH2 0x2D7 JUMPI PUSH1 0x0 DUP1 REVERT JUMPDEST POP PUSH2 0x2E0 PUSH2 0xB27 JUMP JUMPDEST PUSH1 0x40 MLOAD PUSH2 0x2ED SWAP2 SWAP1 PUSH2 0x1A3E JUMP JUMPDEST PUSH1 0x40 MLOAD DUP1 SWAP2 SUB SWAP1 RETURN JUMPDEST PUSH2 0x2FE PUSH2 0xB4D JUMP JUMPDEST STOP JUMPDEST CALLVALUE DUP1 ISZERO PUSH2 0x30C JUMPI PUSH1 0x0 DUP1 REVERT JUMPDEST POP PUSH2 0x327 PUSH1 0x4 DUP1 CALLDATASIZE SUB DUP2 ADD SWAP1 PUSH2 0x322 SWAP2 SWAP1 PUSH2 0x1B45 JUMP JUMPDEST PUSH2 0xD51 JUMP JUMPDEST STOP JUMPDEST CALLVALUE DUP1 ISZERO PUSH2 0x335 JUMPI PUSH1 0x0 DUP1 REVERT JUMPDEST POP PUSH2 0x33E PUSH2 0xFA1 JUMP JUMPDEST PUSH1 0x40 MLOAD PUSH2 0x34B SWAP2 SWAP1 PUSH2 0x1D8E JUMP JUMPDEST PUSH1 0x40 MLOAD DUP1 SWAP2 SUB SWAP1 RETURN JUMPDEST CALLVALUE DUP1 ISZERO PUSH2 0x360 JUMPI PUSH1 0x0 DUP1 REVERT JUMPDEST POP PUSH2 0x37B PUSH1 0x4 DUP1 CALLDATASIZE SUB DUP2 ADD SWAP1 PUSH2 0x376 SWAP2 SWAP1 PUSH2 0x1813 JUMP JUMPDEST PUSH2 0x1198 JUMP JUMPDEST STOP JUMPDEST CALLVALUE DUP1 ISZERO PUSH2 0x389 JUMPI PUSH1 0x0 DUP1 REVERT JUMPDEST POP PUSH2 0x3A4 PUSH1 0x4 DUP1 CALLDATASIZE SUB DUP2 ADD SWAP1 PUSH2 0x39F SWAP2 SWAP1 PUSH2 0x1DB0 JUMP JUMPDEST PUSH2 0x144B JUMP JUMPDEST PUSH1 0x40 MLOAD PUSH2 0x3B1 SWAP2 SWAP1 PUSH2 0x1DF0 JUMP JUMPDEST PUSH1 0x40 MLOAD DUP1 SWAP2 SUB SWAP1 RETURN JUMPDEST CALLVALUE DUP1 ISZERO PUSH2 0x3C6 JUMPI PUSH1 0x0 DUP1 REVERT JUMPDEST POP PUSH2 0x3E1 PUSH1 0x4 DUP1 CALLDATASIZE SUB DUP2 ADD SWAP1 PUSH2 0x3DC SWAP2 SWAP1 PUSH2 0x1813 JUMP JUMPDEST PUSH2 0x147A JUMP JUMPDEST STOP JUMPDEST CALLVALUE DUP1 ISZERO PUSH2 0x3EF JUMPI PUSH1 0x0 DUP1 REVERT JUMPDEST POP PUSH2 0x40A PUSH1 0x4 DUP1 CALLDATASIZE SUB DUP2 ADD SWAP1 PUSH2 0x405 SWAP2 SWAP1 PUSH2 0x1E0B JUMP JUMPDEST PUSH2 0x172B JUMP JUMPDEST PUSH1 0x40 MLOAD PUSH2 0x417 SWAP2 SWAP1 PUSH2 0x1DF0 JUMP JUMPDEST PUSH1 0x40 MLOAD DUP1 SWAP2 SUB SWAP1 RETURN JUMPDEST CALLVALUE DUP1 ISZERO PUSH2 0x42C JUMPI PUSH1 0x0 DUP1 REVERT JUMPDEST POP PUSH2 0x435 PUSH2 0x175A JUMP JUMPDEST PUSH1 0x40 MLOAD PUSH2 0x442 SWAP2 SWAP1 PUSH2 0x1A59 JUMP JUMPDEST PUSH1 0x40 MLOAD DUP1 SWAP2 SUB SWAP1 RETURN JUMPDEST CALLVALUE DUP1 ISZERO PUSH2 0x457 JUMPI PUSH1 0x0 DUP1 REVERT JUMPDEST POP PUSH2 0x460 PUSH2 0x1760 JUMP JUMPDEST PUSH1 0x40 MLOAD PUSH2 0x46D SWAP2 SWAP1 PUSH2 0x1A59 JUMP JUMPDEST PUSH1 0x40 MLOAD DUP1 SWAP2 SUB SWAP1 RETURN JUMPDEST CALLVALUE DUP1 ISZERO PUSH2 0x482 JUMPI PUSH1 0x0 DUP1 REVERT JUMPDEST POP PUSH2 0x49D PUSH1 0x4 DUP1 CALLDATASIZE SUB DUP2 ADD SWAP1 PUSH2 0x498 SWAP2 SWAP1 PUSH2 0x1E4B JUMP JUMPDEST PUSH2 0x1766 JUMP JUMPDEST PUSH1 0x40 MLOAD PUSH2 0x4AA SWAP2 SWAP1 PUSH2 0x1A59 JUMP JUMPDEST PUSH1 0x40 MLOAD DUP1 SWAP2 SUB SWAP1 RETURN JUMPDEST PUSH1 0x5 PUSH1 0x20 MSTORE DUP1 PUSH1 0x0 MSTORE PUSH1 0x40 PUSH1 0x0 KECCAK256 PUSH1 0x0 SWAP2 POP SWAP1 POP DUP1 PUSH1 0x0 ADD SLOAD SWAP1 DUP1 PUSH1 0x1 ADD DUP1 SLOAD PUSH2 0x4DC SWAP1 PUSH2 0x1EA7 JUMP JUMPDEST DUP1 PUSH1 0x1F ADD PUSH1 0x20 DUP1 SWAP2 DIV MUL PUSH1 0x20 ADD PUSH1 0x40 MLOAD SWAP1 DUP2 ADD PUSH1 0x40 MSTORE DUP1 SWAP3 SWAP2 SWAP1 DUP2 DUP2 MSTORE PUSH1 0x20 ADD DUP3 DUP1 SLOAD PUSH2 0x508 SWAP1 PUSH2 0x1EA7 JUMP JUMPDEST DUP1 ISZERO PUSH2 0x555 JUMPI DUP1 PUSH1 0x1F LT PUSH2 0x52A JUMPI PUSH2 0x100 DUP1 DUP4 SLOAD DIV MUL DUP4 MSTORE SWAP2 PUSH1 0x20 ADD SWAP2 PUSH2 0x555 JUMP JUMPDEST DUP3 ADD SWAP2 SWAP1 PUSH1 0x0 MSTORE PUSH1 0x20 PUSH1 0x0 KECCAK256 SWAP1 JUMPDEST DUP2 SLOAD DUP2 MSTORE SWAP1 PUSH1 0x1 ADD SWAP1 PUSH1 0x20 ADD DUP1 DUP4 GT PUSH2 0x538 JUMPI DUP3 SWAP1 SUB PUSH1 0x1F AND DUP3 ADD SWAP2 JUMPDEST POP POP POP POP POP SWAP1 DUP1 PUSH1 0x2 ADD SLOAD SWAP1 DUP1 PUSH1 0x3 ADD PUSH1 0x0 SWAP1 SLOAD SWAP1 PUSH2 0x100 EXP SWAP1 DIV PUSH20 0xFFFFFFFFFFFFFFFFFFFFFFFFFFFFFFFFFFFFFFFF AND SWAP1 DUP1 PUSH1 0x4 ADD SLOAD SWAP1 DUP1 PUSH1 0x5 ADD SLOAD SWAP1 DUP1 PUSH1 0x6 ADD PUSH1 0x0 SWAP1 SLOAD SWAP1 PUSH2 0x100 EXP SWAP1 DIV PUSH1 0xFF AND SWAP1 POP DUP8 JUMP JUMPDEST PUSH1 0x1 ISZERO ISZERO PUSH1 0x0 DUP1 CALLER PUSH20 0xFFFFFFFFFFFFFFFFFFFFFFFFFFFFFFFFFFFFFFFF AND PUSH20 0xFFFFFFFFFFFFFFFFFFFFFFFFFFFFFFFFFFFFFFFF AND DUP2 MSTORE PUSH1 0x20 ADD SWAP1 DUP2 MSTORE PUSH1 0x20 ADD PUSH1 0x0 KECCAK256 PUSH1 0x0 SWAP1 SLOAD SWAP1 PUSH2 0x100 EXP SWAP1 DIV PUSH1 0xFF AND ISZERO ISZERO EQ PUSH2 0x63C JUMPI PUSH1 0x40 MLOAD PUSH32 0x8C379A000000000000000000000000000000000000000000000000000000000 DUP2 MSTORE PUSH1 0x4 ADD PUSH2 0x633 SWAP1 PUSH2 0x1F24 JUMP JUMPDEST PUSH1 0x40 MLOAD DUP1 SWAP2 SUB SWAP1 REVERT JUMPDEST DUP2 PUSH1 0x7 SLOAD LT ISZERO PUSH2 0x681 JUMPI PUSH1 0x40 MLOAD PUSH32 0x8C379A000000000000000000000000000000000000000000000000000000000 DUP2 MSTORE PUSH1 0x4 ADD PUSH2 0x678 SWAP1 PUSH2 0x1F90 JUMP JUMPDEST PUSH1 0x40 MLOAD DUP1 SWAP2 SUB SWAP1 REVERT JUMPDEST DUP2 PUSH1 0x1 PUSH1 0x0 CALLER PUSH20 0xFFFFFFFFFFFFFFFFFFFFFFFFFFFFFFFFFFFFFFFF AND PUSH20 0xFFFFFFFFFFFFFFFFFFFFFFFFFFFFFFFFFFFFFFFF AND DUP2 MSTORE PUSH1 0x20 ADD SWAP1 DUP2 MSTORE PUSH1 0x20 ADD PUSH1 0x0 KECCAK256 SLOAD LT ISZERO PUSH2 0x703 JUMPI PUSH1 0x40 MLOAD PUSH32 0x8C379A000000000000000000000000000000000000000000000000000000000 DUP2 MSTORE PUSH1 0x4 ADD PUSH2 0x6FA SWAP1 PUSH2 0x1FFC JUMP JUMPDEST PUSH1 0x40 MLOAD DUP1 SWAP2 SUB SWAP1 REVERT JUMPDEST DUP2 PUSH1 0x1 PUSH1 0x0 CALLER PUSH20 0xFFFFFFFFFFFFFFFFFFFFFFFFFFFFFFFFFFFFFFFF AND PUSH20 0xFFFFFFFFFFFFFFFFFFFFFFFFFFFFFFFFFFFFFFFF AND DUP2 MSTORE PUSH1 0x20 ADD SWAP1 DUP2 MSTORE PUSH1 0x20 ADD PUSH1 0x0 KECCAK256 PUSH1 0x0 DUP3 DUP3 SLOAD PUSH2 0x752 SWAP2 SWAP1 PUSH2 0x204B JUMP JUMPDEST SWAP3 POP POP DUP2 SWAP1 SSTORE POP DUP2 PUSH1 0x1 PUSH1 0x0 DUP4 PUSH20 0xFFFFFFFFFFFFFFFFFFFFFFFFFFFFFFFFFFFFFFFF AND PUSH20 0xFFFFFFFFFFFFFFFFFFFFFFFFFFFFFFFFFFFFFFFF AND DUP2 MSTORE PUSH1 0x20 ADD SWAP1 DUP2 MSTORE PUSH1 0x20 ADD PUSH1 0x0 KECCAK256 PUSH1 0x0 DUP3 DUP3 SLOAD PUSH2 0x7A8 SWAP2 SWAP1 PUSH2 0x207F JUMP JUMPDEST SWAP3 POP POP DUP2 SWAP1 SSTORE POP PUSH1 0x0 PUSH1 0x1 PUSH1 0x0 CALLER PUSH20 0xFFFFFFFFFFFFFFFFFFFFFFFFFFFFFFFFFFFFFFFF AND PUSH20 0xFFFFFFFFFFFFFFFFFFFFFFFFFFFFFFFFFFFFFFFF AND DUP2 MSTORE PUSH1 0x20 ADD SWAP1 DUP2 MSTORE PUSH1 0x20 ADD PUSH1 0x0 KECCAK256 SLOAD SUB PUSH2 0x84E JUMPI PUSH1 0x0 DUP1 PUSH1 0x0 CALLER PUSH20 0xFFFFFFFFFFFFFFFFFFFFFFFFFFFFFFFFFFFFFFFF AND PUSH20 0xFFFFFFFFFFFFFFFFFFFFFFFFFFFFFFFFFFFFFFFF AND DUP2 MSTORE PUSH1 0x20 ADD SWAP1 DUP2 MSTORE PUSH1 0x20 ADD PUSH1 0x0 KECCAK256 PUSH1 0x0 PUSH2 0x100 EXP DUP2 SLOAD DUP2 PUSH1 0xFF MUL NOT AND SWAP1 DUP4 ISZERO ISZERO MUL OR SWAP1 SSTORE POP JUMPDEST PUSH1 0x1 PUSH1 0x0 DUP1 DUP4 PUSH20 0xFFFFFFFFFFFFFFFFFFFFFFFFFFFFFFFFFFFFFFFF AND PUSH20 0xFFFFFFFFFFFFFFFFFFFFFFFFFFFFFFFFFFFFFFFF AND DUP2 MSTORE PUSH1 0x20 ADD SWAP1 DUP2 MSTORE PUSH1 0x20 ADD PUSH1 0x0 KECCAK256 PUSH1 0x0 PUSH2 0x100 EXP DUP2 SLOAD DUP2 PUSH1 0xFF MUL NOT AND SWAP1 DUP4 ISZERO ISZERO MUL OR SWAP1 SSTORE POP PUSH1 0x4 DUP2 SWAP1 DUP1 PUSH1 0x1 DUP2 SLOAD ADD DUP1 DUP3 SSTORE DUP1 SWAP2 POP POP PUSH1 0x1 SWAP1 SUB SWAP1 PUSH1 0x0 MSTORE PUSH1 0x20 PUSH1 0x0 KECCAK256 ADD PUSH1 0x0 SWAP1 SWAP2 SWAP1 SWAP2 SWAP1 SWAP2 PUSH2 0x100 EXP DUP2 SLOAD DUP2 PUSH20 0xFFFFFFFFFFFFFFFFFFFFFFFFFFFFFFFFFFFFFFFF MUL NOT AND SWAP1 DUP4 PUSH20 0xFFFFFFFFFFFFFFFFFFFFFFFFFFFFFFFFFFFFFFFF AND MUL OR SWAP1 SSTORE POP POP POP JUMP JUMPDEST CALLER PUSH20 0xFFFFFFFFFFFFFFFFFFFFFFFFFFFFFFFFFFFFFFFF AND PUSH1 0xC PUSH1 0x0 SWAP1 SLOAD SWAP1 PUSH2 0x100 EXP SWAP1 DIV PUSH20 0xFFFFFFFFFFFFFFFFFFFFFFFFFFFFFFFFFFFFFFFF AND PUSH20 0xFFFFFFFFFFFFFFFFFFFFFFFFFFFFFFFFFFFFFFFF AND EQ PUSH2 0x99C JUMPI PUSH1 0x40 MLOAD PUSH32 0x8C379A000000000000000000000000000000000000000000000000000000000 DUP2 MSTORE PUSH1 0x4 ADD PUSH2 0x993 SWAP1 PUSH2 0x20FF JUMP JUMPDEST PUSH1 0x40 MLOAD DUP1 SWAP2 SUB SWAP1 REVERT JUMPDEST PUSH1 0x0 PUSH1 0x5 PUSH1 0x0 DUP4 DUP2 MSTORE PUSH1 0x20 ADD SWAP1 DUP2 MSTORE PUSH1 0x20 ADD PUSH1 0x0 KECCAK256 SWAP1 POP PUSH1 0xB SLOAD PUSH1 0x6 SLOAD PUSH1 0x64 DUP4 PUSH1 0x4 ADD SLOAD PUSH2 0x9CA SWAP2 SWAP1 PUSH2 0x211F JUMP JUMPDEST PUSH2 0x9D4 SWAP2 SWAP1 PUSH2 0x2190 JUMP JUMPDEST LT ISZERO PUSH2 0xA15 JUMPI PUSH1 0x40 MLOAD PUSH32 0x8C379A000000000000000000000000000000000000000000000000000000000 DUP2 MSTORE PUSH1 0x4 ADD PUSH2 0xA0C SWAP1 PUSH2 0x220D JUMP JUMPDEST PUSH1 0x40 MLOAD DUP1 SWAP2 SUB SWAP1 REVERT JUMPDEST PUSH1 0x1 DUP2 PUSH1 0x6 ADD PUSH1 0x0 PUSH2 0x100 EXP DUP2 SLOAD DUP2 PUSH1 0xFF MUL NOT AND SWAP1 DUP4 ISZERO ISZERO MUL OR SWAP1 SSTORE POP DUP1 PUSH1 0x2 ADD SLOAD PUSH1 0x7 PUSH1 0x0 DUP3 DUP3 SLOAD PUSH2 0xA48 SWAP2 SWAP1 PUSH2 0x204B JUMP JUMPDEST SWAP3 POP POP DUP2 SWAP1 SSTORE POP PUSH2 0xA81 DUP2 PUSH1 0x2 ADD SLOAD DUP3 PUSH1 0x3 ADD PUSH1 0x0 SWAP1 SLOAD SWAP1 PUSH2 0x100 EXP SWAP1 DIV PUSH20 0xFFFFFFFFFFFFFFFFFFFFFFFFFFFFFFFFFFFFFFFF AND PUSH2 0xACA JUMP JUMPDEST POP POP JUMP JUMPDEST PUSH1 0x4 DUP2 DUP2 SLOAD DUP2 LT PUSH2 0xA95 JUMPI PUSH1 0x0 DUP1 REVERT JUMPDEST SWAP1 PUSH1 0x0 MSTORE PUSH1 0x20 PUSH1 0x0 KECCAK256 ADD PUSH1 0x0 SWAP2 POP SLOAD SWAP1 PUSH2 0x100 EXP SWAP1 DIV PUSH20 0xFFFFFFFFFFFFFFFFFFFFFFFFFFFFFFFFFFFFFFFF AND DUP2 JUMP JUMPDEST PUSH1 0xB SLOAD DUP2 JUMP JUMPDEST DUP1 PUSH20 0xFFFFFFFFFFFFFFFFFFFFFFFFFFFFFFFFFFFFFFFF AND PUSH2 0x8FC DUP4 SWAP1 DUP2 ISZERO MUL SWAP1 PUSH1 0x40 MLOAD PUSH1 0x0 PUSH1 0x40 MLOAD DUP1 DUP4 SUB DUP2 DUP6 DUP9 DUP9 CALL SWAP4 POP POP POP POP ISZERO DUP1 ISZERO PUSH2 0xB10 JUMPI RETURNDATASIZE PUSH1 0x0 DUP1 RETURNDATACOPY RETURNDATASIZE PUSH1 0x0 REVERT JUMPDEST POP POP POP JUMP JUMPDEST PUSH1 0x9 SLOAD DUP2 JUMP JUMPDEST PUSH1 0x6 SLOAD DUP2 JUMP JUMPDEST PUSH1 0x7 SLOAD DUP2 JUMP JUMPDEST PUSH1 0xC PUSH1 0x0 SWAP1 SLOAD SWAP1 PUSH2 0x100 EXP SWAP1 DIV PUSH20 0xFFFFFFFFFFFFFFFFFFFFFFFFFFFFFFFFFFFFFFFF AND DUP2 JUMP JUMPDEST TIMESTAMP PUSH1 0x8 SLOAD LT ISZERO PUSH2 0xB92 JUMPI PUSH1 0x40 MLOAD PUSH32 0x8C379A000000000000000000000000000000000000000000000000000000000 DUP2 MSTORE PUSH1 0x4 ADD PUSH2 0xB89 SWAP1 PUSH2 0x2279 JUMP JUMPDEST PUSH1 0x40 MLOAD DUP1 SWAP2 SUB SWAP1 REVERT JUMPDEST PUSH1 0x0 CALLVALUE GT PUSH2 0xBD5 JUMPI PUSH1 0x40 MLOAD PUSH32 0x8C379A000000000000000000000000000000000000000000000000000000000 DUP2 MSTORE PUSH1 0x4 ADD PUSH2 0xBCC SWAP1 PUSH2 0x22E5 JUMP JUMPDEST PUSH1 0x40 MLOAD DUP1 SWAP2 SUB SWAP1 REVERT JUMPDEST PUSH1 0x1 PUSH1 0x0 DUP1 CALLER PUSH20 0xFFFFFFFFFFFFFFFFFFFFFFFFFFFFFFFFFFFFFFFF AND PUSH20 0xFFFFFFFFFFFFFFFFFFFFFFFFFFFFFFFFFFFFFFFF AND DUP2 MSTORE PUSH1 0x20 ADD SWAP1 DUP2 MSTORE PUSH1 0x20 ADD PUSH1 0x0 KECCAK256 PUSH1 0x0 PUSH2 0x100 EXP DUP2 SLOAD DUP2 PUSH1 0xFF MUL NOT AND SWAP1 DUP4 ISZERO ISZERO MUL OR SWAP1 SSTORE POP CALLVALUE PUSH1 0x1 PUSH1 0x0 CALLER PUSH20 0xFFFFFFFFFFFFFFFFFFFFFFFFFFFFFFFFFFFFFFFF AND PUSH20 0xFFFFFFFFFFFFFFFFFFFFFFFFFFFFFFFFFFFFFFFF AND DUP2 MSTORE PUSH1 0x20 ADD SWAP1 DUP2 MSTORE PUSH1 0x20 ADD PUSH1 0x0 KECCAK256 SLOAD PUSH2 0xC77 SWAP2 SWAP1 PUSH2 0x207F JUMP JUMPDEST PUSH1 0x1 PUSH1 0x0 CALLER PUSH20 0xFFFFFFFFFFFFFFFFFFFFFFFFFFFFFFFFFFFFFFFF AND PUSH20 0xFFFFFFFFFFFFFFFFFFFFFFFFFFFFFFFFFFFFFFFF AND DUP2 MSTORE PUSH1 0x20 ADD SWAP1 DUP2 MSTORE PUSH1 0x20 ADD PUSH1 0x0 KECCAK256 DUP2 SWAP1 SSTORE POP CALLVALUE PUSH1 0x6 PUSH1 0x0 DUP3 DUP3 SLOAD PUSH2 0xCCC SWAP2 SWAP1 PUSH2 0x207F JUMP JUMPDEST SWAP3 POP POP DUP2 SWAP1 SSTORE POP CALLVALUE PUSH1 0x7 PUSH1 0x0 DUP3 DUP3 SLOAD PUSH2 0xCE5 SWAP2 SWAP1 PUSH2 0x207F JUMP JUMPDEST SWAP3 POP POP DUP2 SWAP1 SSTORE POP PUSH1 0x4 CALLER SWAP1 DUP1 PUSH1 0x1 DUP2 SLOAD ADD DUP1 DUP3 SSTORE DUP1 SWAP2 POP POP PUSH1 0x1 SWAP1 SUB SWAP1 PUSH1 0x0 MSTORE PUSH1 0x20 PUSH1 0x0 KECCAK256 ADD PUSH1 0x0 SWAP1 SWAP2 SWAP1 SWAP2 SWAP1 SWAP2 PUSH2 0x100 EXP DUP2 SLOAD DUP2 PUSH20 0xFFFFFFFFFFFFFFFFFFFFFFFFFFFFFFFFFFFFFFFF MUL NOT AND SWAP1 DUP4 PUSH20 0xFFFFFFFFFFFFFFFFFFFFFFFFFFFFFFFFFFFFFFFF AND MUL OR SWAP1 SSTORE POP JUMP JUMPDEST CALLER PUSH20 0xFFFFFFFFFFFFFFFFFFFFFFFFFFFFFFFFFFFFFFFF AND PUSH1 0xC PUSH1 0x0 SWAP1 SLOAD SWAP1 PUSH2 0x100 EXP SWAP1 DIV PUSH20 0xFFFFFFFFFFFFFFFFFFFFFFFFFFFFFFFFFFFFFFFF AND PUSH20 0xFFFFFFFFFFFFFFFFFFFFFFFFFFFFFFFFFFFFFFFF AND EQ PUSH2 0xDE1 JUMPI PUSH1 0x40 MLOAD PUSH32 0x8C379A000000000000000000000000000000000000000000000000000000000 DUP2 MSTORE PUSH1 0x4 ADD PUSH2 0xDD8 SWAP1 PUSH2 0x20FF JUMP JUMPDEST PUSH1 0x40 MLOAD DUP1 SWAP2 SUB SWAP1 REVERT JUMPDEST DUP2 PUSH1 0x7 SLOAD LT ISZERO PUSH2 0xE26 JUMPI PUSH1 0x40 MLOAD PUSH32 0x8C379A000000000000000000000000000000000000000000000000000000000 DUP2 MSTORE PUSH1 0x4 ADD PUSH2 0xE1D SWAP1 PUSH2 0x2351 JUMP JUMPDEST PUSH1 0x40 MLOAD DUP1 SWAP2 SUB SWAP1 REVERT JUMPDEST PUSH1 0x40 MLOAD DUP1 PUSH1 0xE0 ADD PUSH1 0x40 MSTORE DUP1 PUSH1 0x9 SLOAD DUP2 MSTORE PUSH1 0x20 ADD DUP6 DUP6 DUP1 DUP1 PUSH1 0x1F ADD PUSH1 0x20 DUP1 SWAP2 DIV MUL PUSH1 0x20 ADD PUSH1 0x40 MLOAD SWAP1 DUP2 ADD PUSH1 0x40 MSTORE DUP1 SWAP4 SWAP3 SWAP2 SWAP1 DUP2 DUP2 MSTORE PUSH1 0x20 ADD DUP4 DUP4 DUP1 DUP3 DUP5 CALLDATACOPY PUSH1 0x0 DUP2 DUP5 ADD MSTORE PUSH1 0x1F NOT PUSH1 0x1F DUP3 ADD AND SWAP1 POP DUP1 DUP4 ADD SWAP3 POP POP POP POP POP POP POP DUP2 MSTORE PUSH1 0x20 ADD DUP4 DUP2 MSTORE PUSH1 0x20 ADD DUP3 PUSH20 0xFFFFFFFFFFFFFFFFFFFFFFFFFFFFFFFFFFFFFFFF AND DUP2 MSTORE PUSH1 0x20 ADD PUSH1 0x0 DUP2 MSTORE PUSH1 0x20 ADD PUSH1 0xA SLOAD TIMESTAMP PUSH2 0xEBA SWAP2 SWAP1 PUSH2 0x207F JUMP JUMPDEST DUP2 MSTORE PUSH1 0x20 ADD PUSH1 0x0 ISZERO ISZERO DUP2 MSTORE POP PUSH1 0x5 PUSH1 0x0 PUSH1 0x9 SLOAD DUP2 MSTORE PUSH1 0x20 ADD SWAP1 DUP2 MSTORE PUSH1 0x20 ADD PUSH1 0x0 KECCAK256 PUSH1 0x0 DUP3 ADD MLOAD DUP2 PUSH1 0x0 ADD SSTORE PUSH1 0x20 DUP3 ADD MLOAD DUP2 PUSH1 0x1 ADD SWAP1 DUP2 PUSH2 0xEFA SWAP2 SWAP1 PUSH2 0x254C JUMP JUMPDEST POP PUSH1 0x40 DUP3 ADD MLOAD DUP2 PUSH1 0x2 ADD SSTORE PUSH1 0x60 DUP3 ADD MLOAD DUP2 PUSH1 0x3 ADD PUSH1 0x0 PUSH2 0x100 EXP DUP2 SLOAD DUP2 PUSH20 0xFFFFFFFFFFFFFFFFFFFFFFFFFFFFFFFFFFFFFFFF MUL NOT AND SWAP1 DUP4 PUSH20 0xFFFFFFFFFFFFFFFFFFFFFFFFFFFFFFFFFFFFFFFF AND MUL OR SWAP1 SSTORE POP PUSH1 0x80 DUP3 ADD MLOAD DUP2 PUSH1 0x4 ADD SSTORE PUSH1 0xA0 DUP3 ADD MLOAD DUP2 PUSH1 0x5 ADD SSTORE PUSH1 0xC0 DUP3 ADD MLOAD DUP2 PUSH1 0x6 ADD PUSH1 0x0 PUSH2 0x100 EXP DUP2 SLOAD DUP2 PUSH1 0xFF MUL NOT AND SWAP1 DUP4 ISZERO ISZERO MUL OR SWAP1 SSTORE POP SWAP1 POP POP PUSH1 0x9 PUSH1 0x0 DUP2 SLOAD DUP1 SWAP3 SWAP2 SWAP1 PUSH2 0xF96 SWAP1 PUSH2 0x261E JUMP JUMPDEST SWAP2 SWAP1 POP SSTORE POP POP POP POP POP JUMP JUMPDEST PUSH1 0x60 PUSH1 0x0 PUSH1 0x1 PUSH1 0x9 SLOAD PUSH2 0xFB4 SWAP2 SWAP1 PUSH2 0x204B JUMP JUMPDEST PUSH8 0xFFFFFFFFFFFFFFFF DUP2 GT ISZERO PUSH2 0xFCD JUMPI PUSH2 0xFCC PUSH2 0x2371 JUMP JUMPDEST JUMPDEST PUSH1 0x40 MLOAD SWAP1 DUP1 DUP3 MSTORE DUP1 PUSH1 0x20 MUL PUSH1 0x20 ADD DUP3 ADD PUSH1 0x40 MSTORE DUP1 ISZERO PUSH2 0x1006 JUMPI DUP2 PUSH1 0x20 ADD JUMPDEST PUSH2 0xFF3 PUSH2 0x177E JUMP JUMPDEST DUP2 MSTORE PUSH1 0x20 ADD SWAP1 PUSH1 0x1 SWAP1 SUB SWAP1 DUP2 PUSH2 0xFEB JUMPI SWAP1 POP JUMPDEST POP SWAP1 POP PUSH1 0x0 JUMPDEST PUSH1 0x9 SLOAD DUP2 LT ISZERO PUSH2 0x1190 JUMPI PUSH1 0x5 PUSH1 0x0 DUP3 DUP2 MSTORE PUSH1 0x20 ADD SWAP1 DUP2 MSTORE PUSH1 0x20 ADD PUSH1 0x0 KECCAK256 PUSH1 0x40 MLOAD DUP1 PUSH1 0xE0 ADD PUSH1 0x40 MSTORE SWAP1 DUP2 PUSH1 0x0 DUP3 ADD SLOAD DUP2 MSTORE PUSH1 0x20 ADD PUSH1 0x1 DUP3 ADD DUP1 SLOAD PUSH2 0x104E SWAP1 PUSH2 0x1EA7 JUMP JUMPDEST DUP1 PUSH1 0x1F ADD PUSH1 0x20 DUP1 SWAP2 DIV MUL PUSH1 0x20 ADD PUSH1 0x40 MLOAD SWAP1 DUP2 ADD PUSH1 0x40 MSTORE DUP1 SWAP3 SWAP2 SWAP1 DUP2 DUP2 MSTORE PUSH1 0x20 ADD DUP3 DUP1 SLOAD PUSH2 0x107A SWAP1 PUSH2 0x1EA7 JUMP JUMPDEST DUP1 ISZERO PUSH2 0x10C7 JUMPI DUP1 PUSH1 0x1F LT PUSH2 0x109C JUMPI PUSH2 0x100 DUP1 DUP4 SLOAD DIV MUL DUP4 MSTORE SWAP2 PUSH1 0x20 ADD SWAP2 PUSH2 0x10C7 JUMP JUMPDEST DUP3 ADD SWAP2 SWAP1 PUSH1 0x0 MSTORE PUSH1 0x20 PUSH1 0x0 KECCAK256 SWAP1 JUMPDEST DUP2 SLOAD DUP2 MSTORE SWAP1 PUSH1 0x1 ADD SWAP1 PUSH1 0x20 ADD DUP1 DUP4 GT PUSH2 0x10AA JUMPI DUP3 SWAP1 SUB PUSH1 0x1F AND DUP3 ADD SWAP2 JUMPDEST POP POP POP POP POP DUP2 MSTORE PUSH1 0x20 ADD PUSH1 0x2 DUP3 ADD SLOAD DUP2 MSTORE PUSH1 0x20 ADD PUSH1 0x3 DUP3 ADD PUSH1 0x0 SWAP1 SLOAD SWAP1 PUSH2 0x100 EXP SWAP1 DIV PUSH20 0xFFFFFFFFFFFFFFFFFFFFFFFFFFFFFFFFFFFFFFFF AND PUSH20 0xFFFFFFFFFFFFFFFFFFFFFFFFFFFFFFFFFFFFFFFF AND PUSH20 0xFFFFFFFFFFFFFFFFFFFFFFFFFFFFFFFFFFFFFFFF AND DUP2 MSTORE PUSH1 0x20 ADD PUSH1 0x4 DUP3 ADD SLOAD DUP2 MSTORE PUSH1 0x20 ADD PUSH1 0x5 DUP3 ADD SLOAD DUP2 MSTORE PUSH1 0x20 ADD PUSH1 0x6 DUP3 ADD PUSH1 0x0 SWAP1 SLOAD SWAP1 PUSH2 0x100 EXP SWAP1 DIV PUSH1 0xFF AND ISZERO ISZERO ISZERO ISZERO DUP2 MSTORE POP POP DUP3 DUP3 DUP2 MLOAD DUP2 LT PUSH2 0x1172 JUMPI PUSH2 0x1171 PUSH2 0x2666 JUMP JUMPDEST JUMPDEST PUSH1 0x20 MUL PUSH1 0x20 ADD ADD DUP2 SWAP1 MSTORE POP DUP1 DUP1 PUSH2 0x1188 SWAP1 PUSH2 0x261E JUMP JUMPDEST SWAP2 POP POP PUSH2 0x100C JUMP JUMPDEST POP DUP1 SWAP2 POP POP SWAP1 JUMP JUMPDEST PUSH1 0x1 ISZERO ISZERO PUSH1 0x0 DUP1 CALLER PUSH20 0xFFFFFFFFFFFFFFFFFFFFFFFFFFFFFFFFFFFFFFFF AND PUSH20 0xFFFFFFFFFFFFFFFFFFFFFFFFFFFFFFFFFFFFFFFF AND DUP2 MSTORE PUSH1 0x20 ADD SWAP1 DUP2 MSTORE PUSH1 0x20 ADD PUSH1 0x0 KECCAK256 PUSH1 0x0 SWAP1 SLOAD SWAP1 PUSH2 0x100 EXP SWAP1 DIV PUSH1 0xFF AND ISZERO ISZERO EQ PUSH2 0x122A JUMPI PUSH1 0x40 MLOAD PUSH32 0x8C379A000000000000000000000000000000000000000000000000000000000 DUP2 MSTORE PUSH1 0x4 ADD PUSH2 0x1221 SWAP1 PUSH2 0x1F24 JUMP JUMPDEST PUSH1 0x40 MLOAD DUP1 SWAP2 SUB SWAP1 REVERT JUMPDEST PUSH1 0x0 PUSH1 0x5 PUSH1 0x0 DUP4 DUP2 MSTORE PUSH1 0x20 ADD SWAP1 DUP2 MSTORE PUSH1 0x20 ADD PUSH1 0x0 KECCAK256 SWAP1 POP PUSH1 0x0 ISZERO ISZERO PUSH1 0x2 PUSH1 0x0 CALLER PUSH20 0xFFFFFFFFFFFFFFFFFFFFFFFFFFFFFFFFFFFFFFFF AND PUSH20 0xFFFFFFFFFFFFFFFFFFFFFFFFFFFFFFFFFFFFFFFF AND DUP2 MSTORE PUSH1 0x20 ADD SWAP1 DUP2 MSTORE PUSH1 0x20 ADD PUSH1 0x0 KECCAK256 PUSH1 0x0 DUP5 DUP2 MSTORE PUSH1 0x20 ADD SWAP1 DUP2 MSTORE PUSH1 0x20 ADD PUSH1 0x0 KECCAK256 PUSH1 0x0 SWAP1 SLOAD SWAP1 PUSH2 0x100 EXP SWAP1 DIV PUSH1 0xFF AND ISZERO ISZERO EQ PUSH2 0x12E5 JUMPI PUSH1 0x40 MLOAD PUSH32 0x8C379A000000000000000000000000000000000000000000000000000000000 DUP2 MSTORE PUSH1 0x4 ADD PUSH2 0x12DC SWAP1 PUSH2 0x2707 JUMP JUMPDEST PUSH1 0x40 MLOAD DUP1 SWAP2 SUB SWAP1 REVERT JUMPDEST TIMESTAMP DUP2 PUSH1 0x5 ADD SLOAD LT ISZERO PUSH2 0x132C JUMPI PUSH1 0x40 MLOAD PUSH32 0x8C379A000000000000000000000000000000000000000000000000000000000 DUP2 MSTORE PUSH1 0x4 ADD PUSH2 0x1323 SWAP1 PUSH2 0x2773 JUMP JUMPDEST PUSH1 0x40 MLOAD DUP1 SWAP2 SUB SWAP1 REVERT JUMPDEST PUSH1 0x0 ISZERO ISZERO DUP2 PUSH1 0x6 ADD PUSH1 0x0 SWAP1 SLOAD SWAP1 PUSH2 0x100 EXP SWAP1 DIV PUSH1 0xFF AND ISZERO ISZERO EQ PUSH2 0x1384 JUMPI PUSH1 0x40 MLOAD PUSH32 0x8C379A000000000000000000000000000000000000000000000000000000000 DUP2 MSTORE PUSH1 0x4 ADD PUSH2 0x137B SWAP1 PUSH2 0x27DF JUMP JUMPDEST PUSH1 0x40 MLOAD DUP1 SWAP2 SUB SWAP1 REVERT JUMPDEST PUSH1 0x1 PUSH1 0x2 PUSH1 0x0 CALLER PUSH20 0xFFFFFFFFFFFFFFFFFFFFFFFFFFFFFFFFFFFFFFFF AND PUSH20 0xFFFFFFFFFFFFFFFFFFFFFFFFFFFFFFFFFFFFFFFF AND DUP2 MSTORE PUSH1 0x20 ADD SWAP1 DUP2 MSTORE PUSH1 0x20 ADD PUSH1 0x0 KECCAK256 PUSH1 0x0 DUP5 DUP2 MSTORE PUSH1 0x20 ADD SWAP1 DUP2 MSTORE PUSH1 0x20 ADD PUSH1 0x0 KECCAK256 PUSH1 0x0 PUSH2 0x100 EXP DUP2 SLOAD DUP2 PUSH1 0xFF MUL NOT AND SWAP1 DUP4 ISZERO ISZERO MUL OR SWAP1 SSTORE POP PUSH1 0x1 PUSH1 0x0 CALLER PUSH20 0xFFFFFFFFFFFFFFFFFFFFFFFFFFFFFFFFFFFFFFFF AND PUSH20 0xFFFFFFFFFFFFFFFFFFFFFFFFFFFFFFFFFFFFFFFF AND DUP2 MSTORE PUSH1 0x20 ADD SWAP1 DUP2 MSTORE PUSH1 0x20 ADD PUSH1 0x0 KECCAK256 SLOAD DUP2 PUSH1 0x4 ADD PUSH1 0x0 DUP3 DUP3 SLOAD PUSH2 0x1440 SWAP2 SWAP1 PUSH2 0x207F JUMP JUMPDEST SWAP3 POP POP DUP2 SWAP1 SSTORE POP POP POP JUMP JUMPDEST PUSH1 0x3 PUSH1 0x20 MSTORE DUP2 PUSH1 0x0 MSTORE PUSH1 0x40 PUSH1 0x0 KECCAK256 PUSH1 0x20 MSTORE DUP1 PUSH1 0x0 MSTORE PUSH1 0x40 PUSH1 0x0 KECCAK256 PUSH1 0x0 SWAP2 POP SWAP2 POP SWAP1 SLOAD SWAP1 PUSH2 0x100 EXP SWAP1 DIV PUSH1 0xFF AND DUP2 JUMP JUMPDEST PUSH1 0x1 ISZERO ISZERO PUSH1 0x0 DUP1 CALLER PUSH20 0xFFFFFFFFFFFFFFFFFFFFFFFFFFFFFFFFFFFFFFFF AND PUSH20 0xFFFFFFFFFFFFFFFFFFFFFFFFFFFFFFFFFFFFFFFF AND DUP2 MSTORE PUSH1 0x20 ADD SWAP1 DUP2 MSTORE PUSH1 0x20 ADD PUSH1 0x0 KECCAK256 PUSH1 0x0 SWAP1 SLOAD SWAP1 PUSH2 0x100 EXP SWAP1 DIV PUSH1 0xFF AND ISZERO ISZERO EQ PUSH2 0x150C JUMPI PUSH1 0x40 MLOAD PUSH32 0x8C379A000000000000000000000000000000000000000000000000000000000 DUP2 MSTORE PUSH1 0x4 ADD PUSH2 0x1503 SWAP1 PUSH2 0x1F24 JUMP JUMPDEST PUSH1 0x40 MLOAD DUP1 SWAP2 SUB SWAP1 REVERT JUMPDEST DUP1 PUSH1 0x1 PUSH1 0x0 CALLER PUSH20 0xFFFFFFFFFFFFFFFFFFFFFFFFFFFFFFFFFFFFFFFF AND PUSH20 0xFFFFFFFFFFFFFFFFFFFFFFFFFFFFFFFFFFFFFFFF AND DUP2 MSTORE PUSH1 0x20 ADD SWAP1 DUP2 MSTORE PUSH1 0x20 ADD PUSH1 0x0 KECCAK256 SLOAD LT ISZERO PUSH2 0x158E JUMPI PUSH1 0x40 MLOAD PUSH32 0x8C379A000000000000000000000000000000000000000000000000000000000 DUP2 MSTORE PUSH1 0x4 ADD PUSH2 0x1585 SWAP1 PUSH2 0x1FFC JUMP JUMPDEST PUSH1 0x40 MLOAD DUP1 SWAP2 SUB SWAP1 REVERT JUMPDEST DUP1 PUSH1 0x7 SLOAD LT ISZERO PUSH2 0x15D3 JUMPI PUSH1 0x40 MLOAD PUSH32 0x8C379A000000000000000000000000000000000000000000000000000000000 DUP2 MSTORE PUSH1 0x4 ADD PUSH2 0x15CA SWAP1 PUSH2 0x2351 JUMP JUMPDEST PUSH1 0x40 MLOAD DUP1 SWAP2 SUB SWAP1 REVERT JUMPDEST DUP1 PUSH1 0x1 PUSH1 0x0 CALLER PUSH20 0xFFFFFFFFFFFFFFFFFFFFFFFFFFFFFFFFFFFFFFFF AND PUSH20 0xFFFFFFFFFFFFFFFFFFFFFFFFFFFFFFFFFFFFFFFF AND DUP2 MSTORE PUSH1 0x20 ADD SWAP1 DUP2 MSTORE PUSH1 0x20 ADD PUSH1 0x0 KECCAK256 PUSH1 0x0 DUP3 DUP3 SLOAD PUSH2 0x1622 SWAP2 SWAP1 PUSH2 0x204B JUMP JUMPDEST SWAP3 POP POP DUP2 SWAP1 SSTORE POP PUSH1 0x0 PUSH1 0x1 PUSH1 0x0 CALLER PUSH20 0xFFFFFFFFFFFFFFFFFFFFFFFFFFFFFFFFFFFFFFFF AND PUSH20 0xFFFFFFFFFFFFFFFFFFFFFFFFFFFFFFFFFFFFFFFF AND DUP2 MSTORE PUSH1 0x20 ADD SWAP1 DUP2 MSTORE PUSH1 0x20 ADD PUSH1 0x0 KECCAK256 SLOAD SUB PUSH2 0x16C8 JUMPI PUSH1 0x0 DUP1 PUSH1 0x0 CALLER PUSH20 0xFFFFFFFFFFFFFFFFFFFFFFFFFFFFFFFFFFFFFFFF AND PUSH20 0xFFFFFFFFFFFFFFFFFFFFFFFFFFFFFFFFFFFFFFFF AND DUP2 MSTORE PUSH1 0x20 ADD SWAP1 DUP2 MSTORE PUSH1 0x20 ADD PUSH1 0x0 KECCAK256 PUSH1 0x0 PUSH2 0x100 EXP DUP2 SLOAD DUP2 PUSH1 0xFF MUL NOT AND SWAP1 DUP4 ISZERO ISZERO MUL OR SWAP1 SSTORE POP JUMPDEST DUP1 PUSH1 0x7 PUSH1 0x0 DUP3 DUP3 SLOAD PUSH2 0x16DA SWAP2 SWAP1 PUSH2 0x204B JUMP JUMPDEST SWAP3 POP POP DUP2 SWAP1 SSTORE POP CALLER PUSH20 0xFFFFFFFFFFFFFFFFFFFFFFFFFFFFFFFFFFFFFFFF AND PUSH2 0x8FC DUP3 SWAP1 DUP2 ISZERO MUL SWAP1 PUSH1 0x40 MLOAD PUSH1 0x0 PUSH1 0x40 MLOAD DUP1 DUP4 SUB DUP2 DUP6 DUP9 DUP9 CALL SWAP4 POP POP POP POP ISZERO DUP1 ISZERO PUSH2 0x1727 JUMPI RETURNDATASIZE PUSH1 0x0 DUP1 RETURNDATACOPY RETURNDATASIZE PUSH1 0x0 REVERT JUMPDEST POP POP JUMP JUMPDEST PUSH1 0x2 PUSH1 0x20 MSTORE DUP2 PUSH1 0x0 MSTORE PUSH1 0x40 PUSH1 0x0 KECCAK256 PUSH1 0x20 MSTORE DUP1 PUSH1 0x0 MSTORE PUSH1 0x40 PUSH1 0x0 KECCAK256 PUSH1 0x0 SWAP2 POP SWAP2 POP SWAP1 SLOAD SWAP1 PUSH2 0x100 EXP SWAP1 DIV PUSH1 0xFF AND DUP2 JUMP JUMPDEST PUSH1 0x8 SLOAD DUP2 JUMP JUMPDEST PUSH1 0xA SLOAD DUP2 JUMP JUMPDEST PUSH1 0x1 PUSH1 0x20 MSTORE DUP1 PUSH1 0x0 MSTORE PUSH1 0x40 PUSH1 0x0 KECCAK256 PUSH1 0x0 SWAP2 POP SWAP1 POP SLOAD DUP2 JUMP JUMPDEST PUSH1 0x40 MLOAD DUP1 PUSH1 0xE0 ADD PUSH1 0x40 MSTORE DUP1 PUSH1 0x0 DUP2 MSTORE PUSH1 0x20 ADD PUSH1 0x60 DUP2 MSTORE PUSH1 0x20 ADD PUSH1 0x0 DUP2 MSTORE PUSH1 0x20 ADD PUSH1 0x0 PUSH20 0xFFFFFFFFFFFFFFFFFFFFFFFFFFFFFFFFFFFFFFFF AND DUP2 MSTORE PUSH1 0x20 ADD PUSH1 0x0 DUP2 MSTORE PUSH1 0x20 ADD PUSH1 0x0 DUP2 MSTORE PUSH1 0x20 ADD PUSH1 0x0 ISZERO ISZERO DUP2 MSTORE POP SWAP1 JUMP JUMPDEST PUSH1 0x0 DUP1 REVERT JUMPDEST PUSH1 0x0 DUP1 REVERT JUMPDEST PUSH1 0x0 DUP2 SWAP1 POP SWAP2 SWAP1 POP JUMP JUMPDEST PUSH2 0x17F0 DUP2 PUSH2 0x17DD JUMP JUMPDEST DUP2 EQ PUSH2 0x17FB JUMPI PUSH1 0x0 DUP1 REVERT JUMPDEST POP JUMP JUMPDEST PUSH1 0x0 DUP2 CALLDATALOAD SWAP1 POP PUSH2 0x180D DUP2 PUSH2 0x17E7 JUMP JUMPDEST SWAP3 SWAP2 POP POP JUMP JUMPDEST PUSH1 0x0 PUSH1 0x20 DUP3 DUP5 SUB SLT ISZERO PUSH2 0x1829 JUMPI PUSH2 0x1828 PUSH2 0x17D3 JUMP JUMPDEST JUMPDEST PUSH1 0x0 PUSH2 0x1837 DUP5 DUP3 DUP6 ADD PUSH2 0x17FE JUMP JUMPDEST SWAP2 POP POP SWAP3 SWAP2 POP POP JUMP JUMPDEST PUSH2 0x1849 DUP2 PUSH2 0x17DD JUMP JUMPDEST DUP3 MSTORE POP POP JUMP JUMPDEST PUSH1 0x0 DUP2 MLOAD SWAP1 POP SWAP2 SWAP1 POP JUMP JUMPDEST PUSH1 0x0 DUP3 DUP3 MSTORE PUSH1 0x20 DUP3 ADD SWAP1 POP SWAP3 SWAP2 POP POP JUMP JUMPDEST PUSH1 0x0 JUMPDEST DUP4 DUP2 LT ISZERO PUSH2 0x1889 JUMPI DUP1 DUP3 ADD MLOAD DUP2 DUP5 ADD MSTORE PUSH1 0x20 DUP2 ADD SWAP1 POP PUSH2 0x186E JUMP JUMPDEST PUSH1 0x0 DUP5 DUP5 ADD MSTORE POP POP POP POP JUMP JUMPDEST PUSH1 0x0 PUSH1 0x1F NOT PUSH1 0x1F DUP4 ADD AND SWAP1 POP SWAP2 SWAP1 POP JUMP JUMPDEST PUSH1 0x0 PUSH2 0x18B1 DUP3 PUSH2 0x184F JUMP JUMPDEST PUSH2 0x18BB DUP2 DUP6 PUSH2 0x185A JUMP JUMPDEST SWAP4 POP PUSH2 0x18CB DUP2 DUP6 PUSH1 0x20 DUP7 ADD PUSH2 0x186B JUMP JUMPDEST PUSH2 0x18D4 DUP2 PUSH2 0x1895 JUMP JUMPDEST DUP5 ADD SWAP2 POP POP SWAP3 SWAP2 POP POP JUMP JUMPDEST PUSH1 0x0 PUSH20 0xFFFFFFFFFFFFFFFFFFFFFFFFFFFFFFFFFFFFFFFF DUP3 AND SWAP1 POP SWAP2 SWAP1 POP JUMP JUMPDEST PUSH1 0x0 PUSH2 0x190A DUP3 PUSH2 0x18DF JUMP JUMPDEST SWAP1 POP SWAP2 SWAP1 POP JUMP JUMPDEST PUSH2 0x191A DUP2 PUSH2 0x18FF JUMP JUMPDEST DUP3 MSTORE POP POP JUMP JUMPDEST PUSH1 0x0 DUP2 ISZERO ISZERO SWAP1 POP SWAP2 SWAP1 POP JUMP JUMPDEST PUSH2 0x1935 DUP2 PUSH2 0x1920 JUMP JUMPDEST DUP3 MSTORE POP POP JUMP JUMPDEST PUSH1 0x0 PUSH1 0xE0 DUP3 ADD SWAP1 POP PUSH2 0x1950 PUSH1 0x0 DUP4 ADD DUP11 PUSH2 0x1840 JUMP JUMPDEST DUP2 DUP2 SUB PUSH1 0x20 DUP4 ADD MSTORE PUSH2 0x1962 DUP2 DUP10 PUSH2 0x18A6 JUMP JUMPDEST SWAP1 POP PUSH2 0x1971 PUSH1 0x40 DUP4 ADD DUP9 PUSH2 0x1840 JUMP JUMPDEST PUSH2 0x197E PUSH1 0x60 DUP4 ADD DUP8 PUSH2 0x1911 JUMP JUMPDEST PUSH2 0x198B PUSH1 0x80 DUP4 ADD DUP7 PUSH2 0x1840 JUMP JUMPDEST PUSH2 0x1998 PUSH1 0xA0 DUP4 ADD DUP6 PUSH2 0x1840 JUMP JUMPDEST PUSH2 0x19A5 PUSH1 0xC0 DUP4 ADD DUP5 PUSH2 0x192C JUMP JUMPDEST SWAP9 SWAP8 POP POP POP POP POP POP POP POP JUMP JUMPDEST PUSH1 0x0 PUSH2 0x19BC DUP3 PUSH2 0x18DF JUMP JUMPDEST SWAP1 POP SWAP2 SWAP1 POP JUMP JUMPDEST PUSH2 0x19CC DUP2 PUSH2 0x19B1 JUMP JUMPDEST DUP2 EQ PUSH2 0x19D7 JUMPI PUSH1 0x0 DUP1 REVERT JUMPDEST POP JUMP JUMPDEST PUSH1 0x0 DUP2 CALLDATALOAD SWAP1 POP PUSH2 0x19E9 DUP2 PUSH2 0x19C3 JUMP JUMPDEST SWAP3 SWAP2 POP POP JUMP JUMPDEST PUSH1 0x0 DUP1 PUSH1 0x40 DUP4 DUP6 SUB SLT ISZERO PUSH2 0x1A06 JUMPI PUSH2 0x1A05 PUSH2 0x17D3 JUMP JUMPDEST JUMPDEST PUSH1 0x0 PUSH2 0x1A14 DUP6 DUP3 DUP7 ADD PUSH2 0x17FE JUMP JUMPDEST SWAP3 POP POP PUSH1 0x20 PUSH2 0x1A25 DUP6 DUP3 DUP7 ADD PUSH2 0x19DA JUMP JUMPDEST SWAP2 POP POP SWAP3 POP SWAP3 SWAP1 POP JUMP JUMPDEST PUSH2 0x1A38 DUP2 PUSH2 0x19B1 JUMP JUMPDEST DUP3 MSTORE POP POP JUMP JUMPDEST PUSH1 0x0 PUSH1 0x20 DUP3 ADD SWAP1 POP PUSH2 0x1A53 PUSH1 0x0 DUP4 ADD DUP5 PUSH2 0x1A2F JUMP JUMPDEST SWAP3 SWAP2 POP POP JUMP JUMPDEST PUSH1 0x0 PUSH1 0x20 DUP3 ADD SWAP1 POP PUSH2 0x1A6E PUSH1 0x0 DUP4 ADD DUP5 PUSH2 0x1840 JUMP JUMPDEST SWAP3 SWAP2 POP POP JUMP JUMPDEST PUSH2 0x1A7D DUP2 PUSH2 0x18FF JUMP JUMPDEST DUP2 EQ PUSH2 0x1A88 JUMPI PUSH1 0x0 DUP1 REVERT JUMPDEST POP JUMP JUMPDEST PUSH1 0x0 DUP2 CALLDATALOAD SWAP1 POP PUSH2 0x1A9A DUP2 PUSH2 0x1A74 JUMP JUMPDEST SWAP3 SWAP2 POP POP JUMP JUMPDEST PUSH1 0x0 DUP1 PUSH1 0x40 DUP4 DUP6 SUB SLT ISZERO PUSH2 0x1AB7 JUMPI PUSH2 0x1AB6 PUSH2 0x17D3 JUMP JUMPDEST JUMPDEST PUSH1 0x0 PUSH2 0x1AC5 DUP6 DUP3 DUP7 ADD PUSH2 0x17FE JUMP JUMPDEST SWAP3 POP POP PUSH1 0x20 PUSH2 0x1AD6 DUP6 DUP3 DUP7 ADD PUSH2 0x1A8B JUMP JUMPDEST SWAP2 POP POP SWAP3 POP SWAP3 SWAP1 POP JUMP JUMPDEST PUSH1 0x0 DUP1 REVERT JUMPDEST PUSH1 0x0 DUP1 REVERT JUMPDEST PUSH1 0x0 DUP1 REVERT JUMPDEST PUSH1 0x0 DUP1 DUP4 PUSH1 0x1F DUP5 ADD SLT PUSH2 0x1B05 JUMPI PUSH2 0x1B04 PUSH2 0x1AE0 JUMP JUMPDEST JUMPDEST DUP3 CALLDATALOAD SWAP1 POP PUSH8 0xFFFFFFFFFFFFFFFF DUP2 GT ISZERO PUSH2 0x1B22 JUMPI PUSH2 0x1B21 PUSH2 0x1AE5 JUMP JUMPDEST JUMPDEST PUSH1 0x20 DUP4 ADD SWAP2 POP DUP4 PUSH1 0x1 DUP3 MUL DUP4 ADD GT ISZERO PUSH2 0x1B3E JUMPI PUSH2 0x1B3D PUSH2 0x1AEA JUMP JUMPDEST JUMPDEST SWAP3 POP SWAP3 SWAP1 POP JUMP JUMPDEST PUSH1 0x0 DUP1 PUSH1 0x0 DUP1 PUSH1 0x60 DUP6 DUP8 SUB SLT ISZERO PUSH2 0x1B5F JUMPI PUSH2 0x1B5E PUSH2 0x17D3 JUMP JUMPDEST JUMPDEST PUSH1 0x0 DUP6 ADD CALLDATALOAD PUSH8 0xFFFFFFFFFFFFFFFF DUP2 GT ISZERO PUSH2 0x1B7D JUMPI PUSH2 0x1B7C PUSH2 0x17D8 JUMP JUMPDEST JUMPDEST PUSH2 0x1B89 DUP8 DUP3 DUP9 ADD PUSH2 0x1AEF JUMP JUMPDEST SWAP5 POP SWAP5 POP POP PUSH1 0x20 PUSH2 0x1B9C DUP8 DUP3 DUP9 ADD PUSH2 0x17FE JUMP JUMPDEST SWAP3 POP POP PUSH1 0x40 PUSH2 0x1BAD DUP8 DUP3 DUP9 ADD PUSH2 0x1A8B JUMP JUMPDEST SWAP2 POP POP SWAP3 SWAP6 SWAP2 SWAP5 POP SWAP3 POP JUMP JUMPDEST PUSH1 0x0 DUP2 MLOAD SWAP1 POP SWAP2 SWAP1 POP JUMP JUMPDEST PUSH1 0x0 DUP3 DUP3 MSTORE PUSH1 0x20 DUP3 ADD SWAP1 POP SWAP3 SWAP2 POP POP JUMP JUMPDEST PUSH1 0x0 DUP2 SWAP1 POP PUSH1 0x20 DUP3 ADD SWAP1 POP SWAP2 SWAP1 POP JUMP JUMPDEST PUSH2 0x1BEE DUP2 PUSH2 0x17DD JUMP JUMPDEST DUP3 MSTORE POP POP JUMP JUMPDEST PUSH1 0x0 DUP3 DUP3 MSTORE PUSH1 0x20 DUP3 ADD SWAP1 POP SWAP3 SWAP2 POP POP JUMP JUMPDEST PUSH1 0x0 PUSH2 0x1C10 DUP3 PUSH2 0x184F JUMP JUMPDEST PUSH2 0x1C1A DUP2 DUP6 PUSH2 0x1BF4 JUMP JUMPDEST SWAP4 POP PUSH2 0x1C2A DUP2 DUP6 PUSH1 0x20 DUP7 ADD PUSH2 0x186B JUMP JUMPDEST PUSH2 0x1C33 DUP2 PUSH2 0x1895 JUMP JUMPDEST DUP5 ADD SWAP2 POP POP SWAP3 SWAP2 POP POP JUMP JUMPDEST PUSH2 0x1C47 DUP2 PUSH2 0x18FF JUMP JUMPDEST DUP3 MSTORE POP POP JUMP JUMPDEST PUSH2 0x1C56 DUP2 PUSH2 0x1920 JUMP JUMPDEST DUP3 MSTORE POP POP JUMP JUMPDEST PUSH1 0x0 PUSH1 0xE0 DUP4 ADD PUSH1 0x0 DUP4 ADD MLOAD PUSH2 0x1C74 PUSH1 0x0 DUP7 ADD DUP3 PUSH2 0x1BE5 JUMP JUMPDEST POP PUSH1 0x20 DUP4 ADD MLOAD DUP5 DUP3 SUB PUSH1 0x20 DUP7 ADD MSTORE PUSH2 0x1C8C DUP3 DUP3 PUSH2 0x1C05 JUMP JUMPDEST SWAP2 POP POP PUSH1 0x40 DUP4 ADD MLOAD PUSH2 0x1CA1 PUSH1 0x40 DUP7 ADD DUP3 PUSH2 0x1BE5 JUMP JUMPDEST POP PUSH1 0x60 DUP4 ADD MLOAD PUSH2 0x1CB4 PUSH1 0x60 DUP7 ADD DUP3 PUSH2 0x1C3E JUMP JUMPDEST POP PUSH1 0x80 DUP4 ADD MLOAD PUSH2 0x1CC7 PUSH1 0x80 DUP7 ADD DUP3 PUSH2 0x1BE5 JUMP JUMPDEST POP PUSH1 0xA0 DUP4 ADD MLOAD PUSH2 0x1CDA PUSH1 0xA0 DUP7 ADD DUP3 PUSH2 0x1BE5 JUMP JUMPDEST POP PUSH1 0xC0 DUP4 ADD MLOAD PUSH2 0x1CED PUSH1 0xC0 DUP7 ADD DUP3 PUSH2 0x1C4D JUMP JUMPDEST POP DUP1 SWAP2 POP POP SWAP3 SWAP2 POP POP JUMP JUMPDEST PUSH1 0x0 PUSH2 0x1D04 DUP4 DUP4 PUSH2 0x1C5C JUMP JUMPDEST SWAP1 POP SWAP3 SWAP2 POP POP JUMP JUMPDEST PUSH1 0x0 PUSH1 0x20 DUP3 ADD SWAP1 POP SWAP2 SWAP1 POP JUMP JUMPDEST PUSH1 0x0 PUSH2 0x1D24 DUP3 PUSH2 0x1BB9 JUMP JUMPDEST PUSH2 0x1D2E DUP2 DUP6 PUSH2 0x1BC4 JUMP JUMPDEST SWAP4 POP DUP4 PUSH1 0x20 DUP3 MUL DUP6 ADD PUSH2 0x1D40 DUP6 PUSH2 0x1BD5 JUMP JUMPDEST DUP1 PUSH1 0x0 JUMPDEST DUP6 DUP2 LT ISZERO PUSH2 0x1D7C JUMPI DUP5 DUP5 SUB DUP10 MSTORE DUP2 MLOAD PUSH2 0x1D5D DUP6 DUP3 PUSH2 0x1CF8 JUMP JUMPDEST SWAP5 POP PUSH2 0x1D68 DUP4 PUSH2 0x1D0C JUMP JUMPDEST SWAP3 POP PUSH1 0x20 DUP11 ADD SWAP10 POP POP PUSH1 0x1 DUP2 ADD SWAP1 POP PUSH2 0x1D44 JUMP JUMPDEST POP DUP3 SWAP8 POP DUP8 SWAP6 POP POP POP POP POP POP SWAP3 SWAP2 POP POP JUMP JUMPDEST PUSH1 0x0 PUSH1 0x20 DUP3 ADD SWAP1 POP DUP2 DUP2 SUB PUSH1 0x0 DUP4 ADD MSTORE PUSH2 0x1DA8 DUP2 DUP5 PUSH2 0x1D19 JUMP JUMPDEST SWAP1 POP SWAP3 SWAP2 POP POP JUMP JUMPDEST PUSH1 0x0 DUP1 PUSH1 0x40 DUP4 DUP6 SUB SLT ISZERO PUSH2 0x1DC7 JUMPI PUSH2 0x1DC6 PUSH2 0x17D3 JUMP JUMPDEST JUMPDEST PUSH1 0x0 PUSH2 0x1DD5 DUP6 DUP3 DUP7 ADD PUSH2 0x19DA JUMP JUMPDEST SWAP3 POP POP PUSH1 0x20 PUSH2 0x1DE6 DUP6 DUP3 DUP7 ADD PUSH2 0x19DA JUMP JUMPDEST SWAP2 POP POP SWAP3 POP SWAP3 SWAP1 POP JUMP JUMPDEST PUSH1 0x0 PUSH1 0x20 DUP3 ADD SWAP1 POP PUSH2 0x1E05 PUSH1 0x0 DUP4 ADD DUP5 PUSH2 0x192C JUMP JUMPDEST SWAP3 SWAP2 POP POP JUMP JUMPDEST PUSH1 0x0 DUP1 PUSH1 0x40 DUP4 DUP6 SUB SLT ISZERO PUSH2 0x1E22 JUMPI PUSH2 0x1E21 PUSH2 0x17D3 JUMP JUMPDEST JUMPDEST PUSH1 0x0 PUSH2 0x1E30 DUP6 DUP3 DUP7 ADD PUSH2 0x19DA JUMP JUMPDEST SWAP3 POP POP PUSH1 0x20 PUSH2 0x1E41 DUP6 DUP3 DUP7 ADD PUSH2 0x17FE JUMP JUMPDEST SWAP2 POP POP SWAP3 POP SWAP3 SWAP1 POP JUMP JUMPDEST PUSH1 0x0 PUSH1 0x20 DUP3 DUP5 SUB SLT ISZERO PUSH2 0x1E61 JUMPI PUSH2 0x1E60 PUSH2 0x17D3 JUMP JUMPDEST JUMPDEST PUSH1 0x0 PUSH2 0x1E6F DUP5 DUP3 DUP6 ADD PUSH2 0x19DA JUMP JUMPDEST SWAP2 POP POP SWAP3 SWAP2 POP POP JUMP JUMPDEST PUSH32 0x4E487B7100000000000000000000000000000000000000000000000000000000 PUSH1 0x0 MSTORE PUSH1 0x22 PUSH1 0x4 MSTORE PUSH1 0x24 PUSH1 0x0 REVERT JUMPDEST PUSH1 0x0 PUSH1 0x2 DUP3 DIV SWAP1 POP PUSH1 0x1 DUP3 AND DUP1 PUSH2 0x1EBF JUMPI PUSH1 0x7F DUP3 AND SWAP2 POP JUMPDEST PUSH1 0x20 DUP3 LT DUP2 SUB PUSH2 0x1ED2 JUMPI PUSH2 0x1ED1 PUSH2 0x1E78 JUMP JUMPDEST JUMPDEST POP SWAP2 SWAP1 POP JUMP JUMPDEST PUSH32 0x596F7520617265206E6F7420616E20696E766573746F72000000000000000000 PUSH1 0x0 DUP3 ADD MSTORE POP JUMP JUMPDEST PUSH1 0x0 PUSH2 0x1F0E PUSH1 0x17 DUP4 PUSH2 0x185A JUMP JUMPDEST SWAP2 POP PUSH2 0x1F19 DUP3 PUSH2 0x1ED8 JUMP JUMPDEST PUSH1 0x20 DUP3 ADD SWAP1 POP SWAP2 SWAP1 POP JUMP JUMPDEST PUSH1 0x0 PUSH1 0x20 DUP3 ADD SWAP1 POP DUP2 DUP2 SUB PUSH1 0x0 DUP4 ADD MSTORE PUSH2 0x1F3D DUP2 PUSH2 0x1F01 JUMP JUMPDEST SWAP1 POP SWAP2 SWAP1 POP JUMP JUMPDEST PUSH32 0x4E6F7420656E6F7567682066756E647320617661696C61626C65000000000000 PUSH1 0x0 DUP3 ADD MSTORE POP JUMP JUMPDEST PUSH1 0x0 PUSH2 0x1F7A PUSH1 0x1A DUP4 PUSH2 0x185A JUMP JUMPDEST SWAP2 POP PUSH2 0x1F85 DUP3 PUSH2 0x1F44 JUMP JUMPDEST PUSH1 0x20 DUP3 ADD SWAP1 POP SWAP2 SWAP1 POP JUMP JUMPDEST PUSH1 0x0 PUSH1 0x20 DUP3 ADD SWAP1 POP DUP2 DUP2 SUB PUSH1 0x0 DUP4 ADD MSTORE PUSH2 0x1FA9 DUP2 PUSH2 0x1F6D JUMP JUMPDEST SWAP1 POP SWAP2 SWAP1 POP JUMP JUMPDEST PUSH32 0x596F7520646F6E2774206861766520656E6F7567682073686172657300000000 PUSH1 0x0 DUP3 ADD MSTORE POP JUMP JUMPDEST PUSH1 0x0 PUSH2 0x1FE6 PUSH1 0x1C DUP4 PUSH2 0x185A JUMP JUMPDEST SWAP2 POP PUSH2 0x1FF1 DUP3 PUSH2 0x1FB0 JUMP JUMPDEST PUSH1 0x20 DUP3 ADD SWAP1 POP SWAP2 SWAP1 POP JUMP JUMPDEST PUSH1 0x0 PUSH1 0x20 DUP3 ADD SWAP1 POP DUP2 DUP2 SUB PUSH1 0x0 DUP4 ADD MSTORE PUSH2 0x2015 DUP2 PUSH2 0x1FD9 JUMP JUMPDEST SWAP1 POP SWAP2 SWAP1 POP JUMP JUMPDEST PUSH32 0x4E487B7100000000000000000000000000000000000000000000000000000000 PUSH1 0x0 MSTORE PUSH1 0x11 PUSH1 0x4 MSTORE PUSH1 0x24 PUSH1 0x0 REVERT JUMPDEST PUSH1 0x0 PUSH2 0x2056 DUP3 PUSH2 0x17DD JUMP JUMPDEST SWAP2 POP PUSH2 0x2061 DUP4 PUSH2 0x17DD JUMP JUMPDEST SWAP3 POP DUP3 DUP3 SUB SWAP1 POP DUP2 DUP2 GT ISZERO PUSH2 0x2079 JUMPI PUSH2 0x2078 PUSH2 0x201C JUMP JUMPDEST JUMPDEST SWAP3 SWAP2 POP POP JUMP JUMPDEST PUSH1 0x0 PUSH2 0x208A DUP3 PUSH2 0x17DD JUMP JUMPDEST SWAP2 POP PUSH2 0x2095 DUP4 PUSH2 0x17DD JUMP JUMPDEST SWAP3 POP DUP3 DUP3 ADD SWAP1 POP DUP1 DUP3 GT ISZERO PUSH2 0x20AD JUMPI PUSH2 0x20AC PUSH2 0x201C JUMP JUMPDEST JUMPDEST SWAP3 SWAP2 POP POP JUMP JUMPDEST PUSH32 0x596F7520617265206E6F742061206D616E616765720000000000000000000000 PUSH1 0x0 DUP3 ADD MSTORE POP JUMP JUMPDEST PUSH1 0x0 PUSH2 0x20E9 PUSH1 0x15 DUP4 PUSH2 0x185A JUMP JUMPDEST SWAP2 POP PUSH2 0x20F4 DUP3 PUSH2 0x20B3 JUMP JUMPDEST PUSH1 0x20 DUP3 ADD SWAP1 POP SWAP2 SWAP1 POP JUMP JUMPDEST PUSH1 0x0 PUSH1 0x20 DUP3 ADD SWAP1 POP DUP2 DUP2 SUB PUSH1 0x0 DUP4 ADD MSTORE PUSH2 0x2118 DUP2 PUSH2 0x20DC JUMP JUMPDEST SWAP1 POP SWAP2 SWAP1 POP JUMP JUMPDEST PUSH1 0x0 PUSH2 0x212A DUP3 PUSH2 0x17DD JUMP JUMPDEST SWAP2 POP PUSH2 0x2135 DUP4 PUSH2 0x17DD JUMP JUMPDEST SWAP3 POP DUP3 DUP3 MUL PUSH2 0x2143 DUP2 PUSH2 0x17DD JUMP JUMPDEST SWAP2 POP DUP3 DUP3 DIV DUP5 EQ DUP4 ISZERO OR PUSH2 0x215A JUMPI PUSH2 0x2159 PUSH2 0x201C JUMP JUMPDEST JUMPDEST POP SWAP3 SWAP2 POP POP JUMP JUMPDEST PUSH32 0x4E487B7100000000000000000000000000000000000000000000000000000000 PUSH1 0x0 MSTORE PUSH1 0x12 PUSH1 0x4 MSTORE PUSH1 0x24 PUSH1 0x0 REVERT JUMPDEST PUSH1 0x0 PUSH2 0x219B DUP3 PUSH2 0x17DD JUMP JUMPDEST SWAP2 POP PUSH2 0x21A6 DUP4 PUSH2 0x17DD JUMP JUMPDEST SWAP3 POP DUP3 PUSH2 0x21B6 JUMPI PUSH2 0x21B5 PUSH2 0x2161 JUMP JUMPDEST JUMPDEST DUP3 DUP3 DIV SWAP1 POP SWAP3 SWAP2 POP POP JUMP JUMPDEST PUSH32 0x4D616A6F7269747920646F6573206E6F7420737570706F727400000000000000 PUSH1 0x0 DUP3 ADD MSTORE POP JUMP JUMPDEST PUSH1 0x0 PUSH2 0x21F7 PUSH1 0x19 DUP4 PUSH2 0x185A JUMP JUMPDEST SWAP2 POP PUSH2 0x2202 DUP3 PUSH2 0x21C1 JUMP JUMPDEST PUSH1 0x20 DUP3 ADD SWAP1 POP SWAP2 SWAP1 POP JUMP JUMPDEST PUSH1 0x0 PUSH1 0x20 DUP3 ADD SWAP1 POP DUP2 DUP2 SUB PUSH1 0x0 DUP4 ADD MSTORE PUSH2 0x2226 DUP2 PUSH2 0x21EA JUMP JUMPDEST SWAP1 POP SWAP2 SWAP1 POP JUMP JUMPDEST PUSH32 0x436F6E747269627574696F6E2074696D6520656E646564000000000000000000 PUSH1 0x0 DUP3 ADD MSTORE POP JUMP JUMPDEST PUSH1 0x0 PUSH2 0x2263 PUSH1 0x17 DUP4 PUSH2 0x185A JUMP JUMPDEST SWAP2 POP PUSH2 0x226E DUP3 PUSH2 0x222D JUMP JUMPDEST PUSH1 0x20 DUP3 ADD SWAP1 POP SWAP2 SWAP1 POP JUMP JUMPDEST PUSH1 0x0 PUSH1 0x20 DUP3 ADD SWAP1 POP DUP2 DUP2 SUB PUSH1 0x0 DUP4 ADD MSTORE PUSH2 0x2292 DUP2 PUSH2 0x2256 JUMP JUMPDEST SWAP1 POP SWAP2 SWAP1 POP JUMP JUMPDEST PUSH32 0x53656E64206D6F7265207468616E203020206574686572000000000000000000 PUSH1 0x0 DUP3 ADD MSTORE POP JUMP JUMPDEST PUSH1 0x0 PUSH2 0x22CF PUSH1 0x17 DUP4 PUSH2 0x185A JUMP JUMPDEST SWAP2 POP PUSH2 0x22DA DUP3 PUSH2 0x2299 JUMP JUMPDEST PUSH1 0x20 DUP3 ADD SWAP1 POP SWAP2 SWAP1 POP JUMP JUMPDEST PUSH1 0x0 PUSH1 0x20 DUP3 ADD SWAP1 POP DUP2 DUP2 SUB PUSH1 0x0 DUP4 ADD MSTORE PUSH2 0x22FE DUP2 PUSH2 0x22C2 JUMP JUMPDEST SWAP1 POP SWAP2 SWAP1 POP JUMP JUMPDEST PUSH32 0x4E6F7420656E6F7567682066756E647300000000000000000000000000000000 PUSH1 0x0 DUP3 ADD MSTORE POP JUMP JUMPDEST PUSH1 0x0 PUSH2 0x233B PUSH1 0x10 DUP4 PUSH2 0x185A JUMP JUMPDEST SWAP2 POP PUSH2 0x2346 DUP3 PUSH2 0x2305 JUMP JUMPDEST PUSH1 0x20 DUP3 ADD SWAP1 POP SWAP2 SWAP1 POP JUMP JUMPDEST PUSH1 0x0 PUSH1 0x20 DUP3 ADD SWAP1 POP DUP2 DUP2 SUB PUSH1 0x0 DUP4 ADD MSTORE PUSH2 0x236A DUP2 PUSH2 0x232E JUMP JUMPDEST SWAP1 POP SWAP2 SWAP1 POP JUMP JUMPDEST PUSH32 0x4E487B7100000000000000000000000000000000000000000000000000000000 PUSH1 0x0 MSTORE PUSH1 0x41 PUSH1 0x4 MSTORE PUSH1 0x24 PUSH1 0x0 REVERT JUMPDEST PUSH1 0x0 DUP2 SWAP1 POP DUP2 PUSH1 0x0 MSTORE PUSH1 0x20 PUSH1 0x0 KECCAK256 SWAP1 POP SWAP2 SWAP1 POP JUMP JUMPDEST PUSH1 0x0 PUSH1 0x20 PUSH1 0x1F DUP4 ADD DIV SWAP1 POP SWAP2 SWAP1 POP JUMP JUMPDEST PUSH1 0x0 DUP3 DUP3 SHL SWAP1 POP SWAP3 SWAP2 POP POP JUMP JUMPDEST PUSH1 0x0 PUSH1 0x8 DUP4 MUL PUSH2 0x2402 PUSH32 0xFFFFFFFFFFFFFFFFFFFFFFFFFFFFFFFFFFFFFFFFFFFFFFFFFFFFFFFFFFFFFFFF DUP3 PUSH2 0x23C5 JUMP JUMPDEST PUSH2 0x240C DUP7 DUP4 PUSH2 0x23C5 JUMP JUMPDEST SWAP6 POP DUP1 NOT DUP5 AND SWAP4 POP DUP1 DUP7 AND DUP5 OR SWAP3 POP POP POP SWAP4 SWAP3 POP POP POP JUMP JUMPDEST PUSH1 0x0 DUP2 SWAP1 POP SWAP2 SWAP1 POP JUMP JUMPDEST PUSH1 0x0 PUSH2 0x2449 PUSH2 0x2444 PUSH2 0x243F DUP5 PUSH2 0x17DD JUMP JUMPDEST PUSH2 0x2424 JUMP JUMPDEST PUSH2 0x17DD JUMP JUMPDEST SWAP1 POP SWAP2 SWAP1 POP JUMP JUMPDEST PUSH1 0x0 DUP2 SWAP1 POP SWAP2 SWAP1 POP JUMP JUMPDEST PUSH2 0x2463 DUP4 PUSH2 0x242E JUMP JUMPDEST PUSH2 0x2477 PUSH2 0x246F DUP3 PUSH2 0x2450 JUMP JUMPDEST DUP5 DUP5 SLOAD PUSH2 0x23D2 JUMP JUMPDEST DUP3 SSTORE POP POP POP POP JUMP JUMPDEST PUSH1 0x0 SWAP1 JUMP JUMPDEST PUSH2 0x248C PUSH2 0x247F JUMP JUMPDEST PUSH2 0x2497 DUP2 DUP5 DUP5 PUSH2 0x245A JUMP JUMPDEST POP POP POP JUMP JUMPDEST JUMPDEST DUP2 DUP2 LT ISZERO PUSH2 0x24BB JUMPI PUSH2 0x24B0 PUSH1 0x0 DUP3 PUSH2 0x2484 JUMP JUMPDEST PUSH1 0x1 DUP2 ADD SWAP1 POP PUSH2 0x249D JUMP JUMPDEST POP POP JUMP JUMPDEST PUSH1 0x1F DUP3 GT ISZERO PUSH2 0x2500 JUMPI PUSH2 0x24D1 DUP2 PUSH2 0x23A0 JUMP JUMPDEST PUSH2 0x24DA DUP5 PUSH2 0x23B5 JUMP JUMPDEST DUP2 ADD PUSH1 0x20 DUP6 LT ISZERO PUSH2 0x24E9 JUMPI DUP2 SWAP1 POP JUMPDEST PUSH2 0x24FD PUSH2 0x24F5 DUP6 PUSH2 0x23B5 JUMP JUMPDEST DUP4 ADD DUP3 PUSH2 0x249C JUMP JUMPDEST POP POP JUMPDEST POP POP POP JUMP JUMPDEST PUSH1 0x0 DUP3 DUP3 SHR SWAP1 POP SWAP3 SWAP2 POP POP JUMP JUMPDEST PUSH1 0x0 PUSH2 0x2523 PUSH1 0x0 NOT DUP5 PUSH1 0x8 MUL PUSH2 0x2505 JUMP JUMPDEST NOT DUP1 DUP4 AND SWAP2 POP POP SWAP3 SWAP2 POP POP JUMP JUMPDEST PUSH1 0x0 PUSH2 0x253C DUP4 DUP4 PUSH2 0x2512 JUMP JUMPDEST SWAP2 POP DUP3 PUSH1 0x2 MUL DUP3 OR SWAP1 POP SWAP3 SWAP2 POP POP JUMP JUMPDEST PUSH2 0x2555 DUP3 PUSH2 0x184F JUMP JUMPDEST PUSH8 0xFFFFFFFFFFFFFFFF DUP2 GT ISZERO PUSH2 0x256E JUMPI PUSH2 0x256D PUSH2 0x2371 JUMP JUMPDEST JUMPDEST PUSH2 0x2578 DUP3 SLOAD PUSH2 0x1EA7 JUMP JUMPDEST PUSH2 0x2583 DUP3 DUP3 DUP6 PUSH2 0x24BF JUMP JUMPDEST PUSH1 0x0 PUSH1 0x20 SWAP1 POP PUSH1 0x1F DUP4 GT PUSH1 0x1 DUP2 EQ PUSH2 0x25B6 JUMPI PUSH1 0x0 DUP5 ISZERO PUSH2 0x25A4 JUMPI DUP3 DUP8 ADD MLOAD SWAP1 POP JUMPDEST PUSH2 0x25AE DUP6 DUP3 PUSH2 0x2530 JUMP JUMPDEST DUP7 SSTORE POP PUSH2 0x2616 JUMP JUMPDEST PUSH1 0x1F NOT DUP5 AND PUSH2 0x25C4 DUP7 PUSH2 0x23A0 JUMP JUMPDEST PUSH1 0x0 JUMPDEST DUP3 DUP2 LT ISZERO PUSH2 0x25EC JUMPI DUP5 DUP10 ADD MLOAD DUP3 SSTORE PUSH1 0x1 DUP3 ADD SWAP2 POP PUSH1 0x20 DUP6 ADD SWAP5 POP PUSH1 0x20 DUP2 ADD SWAP1 POP PUSH2 0x25C7 JUMP JUMPDEST DUP7 DUP4 LT ISZERO PUSH2 0x2609 JUMPI DUP5 DUP10 ADD MLOAD PUSH2 0x2605 PUSH1 0x1F DUP10 AND DUP3 PUSH2 0x2512 JUMP JUMPDEST DUP4 SSTORE POP JUMPDEST PUSH1 0x1 PUSH1 0x2 DUP9 MUL ADD DUP9 SSTORE POP POP POP JUMPDEST POP POP POP POP POP POP JUMP JUMPDEST PUSH1 0x0 PUSH2 0x2629 DUP3 PUSH2 0x17DD JUMP JUMPDEST SWAP2 POP PUSH32 0xFFFFFFFFFFFFFFFFFFFFFFFFFFFFFFFFFFFFFFFFFFFFFFFFFFFFFFFFFFFFFFFF DUP3 SUB PUSH2 0x265B JUMPI PUSH2 0x265A PUSH2 0x201C JUMP JUMPDEST JUMPDEST PUSH1 0x1 DUP3 ADD SWAP1 POP SWAP2 SWAP1 POP JUMP JUMPDEST PUSH32 0x4E487B7100000000000000000000000000000000000000000000000000000000 PUSH1 0x0 MSTORE PUSH1 0x32 PUSH1 0x4 MSTORE PUSH1 0x24 PUSH1 0x0 REVERT JUMPDEST PUSH32 0x596F75206861766520616C726561647920766F74656420666F72207468697320 PUSH1 0x0 DUP3 ADD MSTORE PUSH32 0x70726F706F73616C000000000000000000000000000000000000000000000000 PUSH1 0x20 DUP3 ADD MSTORE POP JUMP JUMPDEST PUSH1 0x0 PUSH2 0x26F1 PUSH1 0x28 DUP4 PUSH2 0x185A JUMP JUMPDEST SWAP2 POP PUSH2 0x26FC DUP3 PUSH2 0x2695 JUMP JUMPDEST PUSH1 0x40 DUP3 ADD SWAP1 POP SWAP2 SWAP1 POP JUMP JUMPDEST PUSH1 0x0 PUSH1 0x20 DUP3 ADD SWAP1 POP DUP2 DUP2 SUB PUSH1 0x0 DUP4 ADD MSTORE PUSH2 0x2720 DUP2 PUSH2 0x26E4 JUMP JUMPDEST SWAP1 POP SWAP2 SWAP1 POP JUMP JUMPDEST PUSH32 0x566F74696E672074696D6520656E646564000000000000000000000000000000 PUSH1 0x0 DUP3 ADD MSTORE POP JUMP JUMPDEST PUSH1 0x0 PUSH2 0x275D PUSH1 0x11 DUP4 PUSH2 0x185A JUMP JUMPDEST SWAP2 POP PUSH2 0x2768 DUP3 PUSH2 0x2727 JUMP JUMPDEST PUSH1 0x20 DUP3 ADD SWAP1 POP SWAP2 SWAP1 POP JUMP JUMPDEST PUSH1 0x0 PUSH1 0x20 DUP3 ADD SWAP1 POP DUP2 DUP2 SUB PUSH1 0x0 DUP4 ADD MSTORE PUSH2 0x278C DUP2 PUSH2 0x2750 JUMP JUMPDEST SWAP1 POP SWAP2 SWAP1 POP JUMP JUMPDEST PUSH32 0x497420697320616C726561647920657865637574656400000000000000000000 PUSH1 0x0 DUP3 ADD MSTORE POP JUMP JUMPDEST PUSH1 0x0 PUSH2 0x27C9 PUSH1 0x16 DUP4 PUSH2 0x185A JUMP JUMPDEST SWAP2 POP PUSH2 0x27D4 DUP3 PUSH2 0x2793 JUMP JUMPDEST PUSH1 0x20 DUP3 ADD SWAP1 POP SWAP2 SWAP1 POP JUMP JUMPDEST PUSH1 0x0 PUSH1 0x20 DUP3 ADD SWAP1 POP DUP2 DUP2 SUB PUSH1 0x0 DUP4 ADD MSTORE PUSH2 0x27F8 DUP2 PUSH2 0x27BC JUMP JUMPDEST SWAP1 POP SWAP2 SWAP1 POP JUMP INVALID LOG2 PUSH5 0x6970667358 0x22 SLT KECCAK256 0x1F 0xF8 0x5F 0xEF PUSH14 0xBD7EBE99D27AF4ABC4F5AA56EB45 0xDE PUSH5 0x92CD56254 0xAA BYTE 0xB6 0xD0 EQ 0xDC PUSH5 0x736F6C6343 STOP ADDMOD SLT STOP CALLER "
				},
				"gasEstimates": {
					"creation": {
						"codeDepositCost": "2058600",
						"executionCost": "infinite",
						"totalCost": "infinite"
					},
					"external": {
						"ProposalList()": "infinite",
						"_transfer(uint256,address)": "infinite",
						"availableFunds()": "2518",
						"contribution()": "infinite",
						"contributionTimeEnd()": "2495",
						"createProposal(string,uint256,address)": "infinite",
						"executeProposal(uint256)": "infinite",
						"investorList(uint256)": "5046",
						"isVoted(address,uint256)": "3131",
						"manager()": "2625",
						"nextProposalId()": "2474",
						"numOfshares(address)": "2924",
						"proposals(uint256)": "infinite",
						"quorum()": "2541",
						"redeemShare(uint256)": "infinite",
						"totalShares()": "2496",
						"transferShare(uint256,address)": "infinite",
						"voteProposal(uint256)": "infinite",
						"voteTime()": "2517",
						"withdrawalStatus(address,address)": "infinite"
					}
				},
				"methodIdentifiers": {
					"ProposalList()": "6dfc1099",
					"_transfer(uint256,address)": "1942c3ce",
					"availableFunds()": "46fcff4c",
					"contribution()": "50520b1f",
					"contributionTimeEnd()": "afc8275b",
					"createProposal(string,uint256,address)": "6ac1e01f",
					"executeProposal(uint256)": "0d61b519",
					"investorList(uint256)": "12f9b48e",
					"isVoted(address,uint256)": "8ee36f05",
					"manager()": "481c6a75",
					"nextProposalId()": "2ab09d14",
					"numOfshares(address)": "e65da429",
					"proposals(uint256)": "013cf08b",
					"quorum()": "1703a018",
					"redeemShare(uint256)": "868643df",
					"totalShares()": "3a98ef39",
					"transferShare(uint256,address)": "039383e6",
					"voteProposal(uint256)": "807896d5",
					"voteTime()": "bcf93dd6",
					"withdrawalStatus(address,address)": "83f9f20e"
				}
			},
			"storageLayout": {
				"storage": [
					{
						"astId": 20,
						"contract": "DAO_smartcontract.sol:demo",
						"label": "isInvestor",
						"offset": 0,
						"slot": "0",
						"type": "t_mapping(t_address,t_bool)"
					},
					{
						"astId": 24,
						"contract": "DAO_smartcontract.sol:demo",
						"label": "numOfshares",
						"offset": 0,
						"slot": "1",
						"type": "t_mapping(t_address,t_uint256)"
					},
					{
						"astId": 30,
						"contract": "DAO_smartcontract.sol:demo",
						"label": "isVoted",
						"offset": 0,
						"slot": "2",
						"type": "t_mapping(t_address,t_mapping(t_uint256,t_bool))"
					},
					{
						"astId": 36,
						"contract": "DAO_smartcontract.sol:demo",
						"label": "withdrawalStatus",
						"offset": 0,
						"slot": "3",
						"type": "t_mapping(t_address,t_mapping(t_address,t_bool))"
					},
					{
						"astId": 39,
						"contract": "DAO_smartcontract.sol:demo",
						"label": "investorList",
						"offset": 0,
						"slot": "4",
						"type": "t_array(t_address)dyn_storage"
					},
					{
						"astId": 44,
						"contract": "DAO_smartcontract.sol:demo",
						"label": "proposals",
						"offset": 0,
						"slot": "5",
						"type": "t_mapping(t_uint256,t_struct(Proposal)16_storage)"
					},
					{
						"astId": 46,
						"contract": "DAO_smartcontract.sol:demo",
						"label": "totalShares",
						"offset": 0,
						"slot": "6",
						"type": "t_uint256"
					},
					{
						"astId": 48,
						"contract": "DAO_smartcontract.sol:demo",
						"label": "availableFunds",
						"offset": 0,
						"slot": "7",
						"type": "t_uint256"
					},
					{
						"astId": 50,
						"contract": "DAO_smartcontract.sol:demo",
						"label": "contributionTimeEnd",
						"offset": 0,
						"slot": "8",
						"type": "t_uint256"
					},
					{
						"astId": 52,
						"contract": "DAO_smartcontract.sol:demo",
						"label": "nextProposalId",
						"offset": 0,
						"slot": "9",
						"type": "t_uint256"
					},
					{
						"astId": 54,
						"contract": "DAO_smartcontract.sol:demo",
						"label": "voteTime",
						"offset": 0,
						"slot": "10",
						"type": "t_uint256"
					},
					{
						"astId": 56,
						"contract": "DAO_smartcontract.sol:demo",
						"label": "quorum",
						"offset": 0,
						"slot": "11",
						"type": "t_uint256"
					},
					{
						"astId": 58,
						"contract": "DAO_smartcontract.sol:demo",
						"label": "manager",
						"offset": 0,
						"slot": "12",
						"type": "t_address"
					}
				],
				"types": {
					"t_address": {
						"encoding": "inplace",
						"label": "address",
						"numberOfBytes": "20"
					},
					"t_address_payable": {
						"encoding": "inplace",
						"label": "address payable",
						"numberOfBytes": "20"
					},
					"t_array(t_address)dyn_storage": {
						"base": "t_address",
						"encoding": "dynamic_array",
						"label": "address[]",
						"numberOfBytes": "32"
					},
					"t_bool": {
						"encoding": "inplace",
						"label": "bool",
						"numberOfBytes": "1"
					},
					"t_mapping(t_address,t_bool)": {
						"encoding": "mapping",
						"key": "t_address",
						"label": "mapping(address => bool)",
						"numberOfBytes": "32",
						"value": "t_bool"
					},
					"t_mapping(t_address,t_mapping(t_address,t_bool))": {
						"encoding": "mapping",
						"key": "t_address",
						"label": "mapping(address => mapping(address => bool))",
						"numberOfBytes": "32",
						"value": "t_mapping(t_address,t_bool)"
					},
					"t_mapping(t_address,t_mapping(t_uint256,t_bool))": {
						"encoding": "mapping",
						"key": "t_address",
						"label": "mapping(address => mapping(uint256 => bool))",
						"numberOfBytes": "32",
						"value": "t_mapping(t_uint256,t_bool)"
					},
					"t_mapping(t_address,t_uint256)": {
						"encoding": "mapping",
						"key": "t_address",
						"label": "mapping(address => uint256)",
						"numberOfBytes": "32",
						"value": "t_uint256"
					},
					"t_mapping(t_uint256,t_bool)": {
						"encoding": "mapping",
						"key": "t_uint256",
						"label": "mapping(uint256 => bool)",
						"numberOfBytes": "32",
						"value": "t_bool"
					},
					"t_mapping(t_uint256,t_struct(Proposal)16_storage)": {
						"encoding": "mapping",
						"key": "t_uint256",
						"label": "mapping(uint256 => struct demo.Proposal)",
						"numberOfBytes": "32",
						"value": "t_struct(Proposal)16_storage"
					},
					"t_string_storage": {
						"encoding": "bytes",
						"label": "string",
						"numberOfBytes": "32"
					},
					"t_struct(Proposal)16_storage": {
						"encoding": "inplace",
						"label": "struct demo.Proposal",
						"members": [
							{
								"astId": 3,
								"contract": "DAO_smartcontract.sol:demo",
								"label": "id",
								"offset": 0,
								"slot": "0",
								"type": "t_uint256"
							},
							{
								"astId": 5,
								"contract": "DAO_smartcontract.sol:demo",
								"label": "description",
								"offset": 0,
								"slot": "1",
								"type": "t_string_storage"
							},
							{
								"astId": 7,
								"contract": "DAO_smartcontract.sol:demo",
								"label": "amount",
								"offset": 0,
								"slot": "2",
								"type": "t_uint256"
							},
							{
								"astId": 9,
								"contract": "DAO_smartcontract.sol:demo",
								"label": "receipent",
								"offset": 0,
								"slot": "3",
								"type": "t_address_payable"
							},
							{
								"astId": 11,
								"contract": "DAO_smartcontract.sol:demo",
								"label": "votes",
								"offset": 0,
								"slot": "4",
								"type": "t_uint256"
							},
							{
								"astId": 13,
								"contract": "DAO_smartcontract.sol:demo",
								"label": "end",
								"offset": 0,
								"slot": "5",
								"type": "t_uint256"
							},
							{
								"astId": 15,
								"contract": "DAO_smartcontract.sol:demo",
								"label": "isExecuted",
								"offset": 0,
								"slot": "6",
								"type": "t_bool"
							}
						],
						"numberOfBytes": "224"
					},
					"t_uint256": {
						"encoding": "inplace",
						"label": "uint256",
						"numberOfBytes": "32"
					}
				}
			},
			"userdoc": {
				"kind": "user",
				"methods": {},
				"version": 1
			}
		}
	}
}